:020000040800F2
:1000000060270020810300089D200008011E0008D1
:1000100099200008B9060008332A000800000000F3
:10002000000000000000000000000000C102000805
:1000300025070008000000001D03000863230008D6
:100040009B0300089B0300089B0300089B03000818
:100050009B0300089B0300089B0300089B03000808
:100060009B0300089B0300089B0300089B030008F8
:100070009B0300089B0300089B0300089B030008E8
:100080009B030008000000009B0300089B0300087E
:100090009B0300089B0300089B0300089B030008C8
:1000A0009B0300089B0300089B0300089B030008B8
:1000B000F9230008092400089B0300089B0300089B
:1000C0009B0300089B0300089B0300089B03000898
:1000D0009B0300089B0300089B0300089B03000888
:1000E0009B0300089B0300089B0300089B03000878
:1000F0009B0300089B0300089B030008000000000E
:10010000000000009B030008000000009B030008A3
:100110009B030008000000009B0300089B030008ED
:100120009B0300089B0300089B0300089B03000837
:100130009B03000800000000000000009B03000873
:100140009B0300089B030008000000000000000063
:10015000000000000000000000000000000000009F
:100160000000000000000000000000009B030008E9
:100170009B030008000000000000000000000000D9
:10018000000000009B0300080000000000000000C9
:10019000000000000000000000000000000000005F
:1001A00000000000000000009B0300089B03000803
:1001B0009B0300089B0300089B030008000000004D
:1001C000000000009B030008000000000000000089
:1001D0009B0300089B03000800F002F800F060F8A1
:1001E0000AA090E8000C82448344AAF10107DA4592
:1001F00001D100F055F8AFF2090EBAE80F0013F084
:10020000010F18BFFB1A43F001031847A83C000078
:10021000C83C000010F8013B0A4413F0030408BF77
:1002200010F8014B1D1108BF10F8015B641E05D0CA
:1002300010F8016B641E01F8016BF9D1002D15D087
:1002400010F8014B03F00C030C2BA1EB04040ABFC4
:1002500010F8013BA4EB8314A4EB032405F1010384
:1002600014F8016B5B1E01F8016BF9D5914238BFA0
:1002700010F8013BD1D3704700230024002500264D
:10028000103A28BF78C1FBD8520728BF30C148BFF9
:100290000B6070471FB503F0B5FD1FBD10B510BD55
:1002A00000F0EFF81146FFF7F5FF02F0FDFD00F05A
:1002B0000DF903B4FFF7F2FF03BC00F011F90000E1
:1002C0002C4B19680868B0E8F04F80F30988BFF339
:1002D0006F8F4FF0000080F311887047000000001E
:1002E00008480068006880F308884FF0000080F339
:1002F000148862B661B6BFF34F8FBFF36F8F00DF14
:1003000000BF00BF08ED00E0DFF80C00016841F419
:1003100070010160704700BF88ED00E0EFF30980D5
:10032000BFF36F8F134B1A681EF0100F08BF20ED3C
:10033000108A20E9F04F106009B44FF0500080F3AC
:100340001188BFF34F8FBFF36F8F03F0E1FA4FF0C7
:10035000000080F3118809BC19680868B0E8F04F04
:100360001EF0100F08BFB0EC108A80F30988BFF3AD
:100370006F8F70471C000020EFF30580704700006E
:100380000948804709480047FEE7FEE7FEE7FEE729
:10039000FEE7FEE7FEE7FEE7FEE7FEE70448054965
:1003A000054A064B70470000E5230008D901000804
:1003B00060210020602700206023002060230020AF
:1003C00010B5203AC0F00B80B1E81850203AA0E8F0
:1003D0001850B1E81850A0E81850BFF4F5AF5FEA24
:1003E000027C24BFB1E81850A0E8185044BF18C9D7
:1003F00018C0BDE810405FEA827C24BF51F8043B7E
:1004000040F8043B08BF7047D20728BF31F8023BD1
:1004100048BF11F8012B28BF20F8023B48BF00F865
:10042000012B70474FF0000200B5134694469646E4
:10043000203922BFA0E80C50A0E80C50B1F12001F7
:10044000BFF4F7AF090728BFA0E80C5048BF0CC0A5
:100450005DF804EB890028BF40F8042B08BF704703
:1004600048BF20F8022B11F0804F18BF00F8012B75
:100470007047704770477047004870470021002060
:1004800070477546FFF7F8FFAE46050069465346CC
:1004900020F00700854618B020B5FFF77FFFBDE8C4
:1004A00020404FF000064FF000074FF000084FF0DB
:1004B000000B21F00701AC46ACE8C009ACE8C0096C
:1004C000ACE8C009ACE8C0098D46704710B50446D9
:1004D000AFF300802046BDE81040FFF7EABE000001
:1004E00001491820ABBEFEE72600020000B587B028
:1004F00000BF3B48C06C40F020003949C864084642
:10050000C06C00F02000019000BF00BF4FF4F86005
:1005100002900120039004900220059002A9314826
:1005200000F018F94FF4C050029000200390012011
:1005300004900220059002A92A4800F00BF903F06C
:100540000FF800224FF40071264800F0F1F9012263
:100550004021244800F0ECF901228021214800F0DC
:10056000E7F9012291021F4800F0E2F9012211028D
:100570001C4800F0DDF90A2000F0D8F801225102F1
:10058000184800F0D5F9012000F0D0F800224FF40F
:100590000071144800F0CCF9642000F0C7F8022084
:1005A00000F046F80021022000F06EF8222103201E
:1005B00000F06AF82221042000F066F822210520CC
:1005C00000F062F82221062000F05EF800210820E9
:1005D00000F05AF80021084600F056F807B000BDB8
:1005E00000100240000800487FB505460E4B0FCBB7
:1005F0008DE80F0000224FF480610C4800F098F95C
:10060000002408E03DF8140002F0D8FF00B225F8FD
:100610001400601CC4B2082CF4DB012291020348D0
:1006200000F086F97FBD0000803E00080008004809
:1006300070B504460026002504F140054FF6FF7012
:1006400000EA052500224FF48061074800F070F9A8
:10065000284602F0B3FF064601229102024800F04C
:1006600067F9F0B270BD00000008004810B5002224
:100670008021044800F05CF901228021014800F04B
:1006800057F910BD0008004870B504460D46002615
:1006900045EA042600224FF48061064800F048F93C
:1006A000304602F08BFF01229102024800F040F92F
:1006B00070BD00000008004800BFFEE7124909684D
:1006C00041F08071104A11600021104A51601146BA
:1006D000096841F0010111600D4941430D4A116063
:1006E000114609684FF47A72B1FBF2F10A4A1160BF
:1006F00008490968064AB1FBF2F1084A1160002175
:10070000074A116070470000FCED00E0001000E0B7
:1007100040420F00C8110020CC110020D011002051
:10072000D4110020704772B600BFFEE770B50446D2
:1007300000F004F906462546681C10B1044800681C
:10074000054400BF00F0FAF8801BA842FAD370BD40
:100750001400002078B502460B460021CAE00126AD
:100760008E401D6805EA0604002C73D01D7905F043
:100770000305012D04D01D7905F00305022D13D1C9
:1007800090684E000325B540A8434E00DD68B54093
:1007900028439060506801258D40A8431D79C5F31A
:1007A00000158D40284350601D7905F00305032D89
:1007B00009D0D0684E000325B540A8434E009D687F
:1007C000B5402843D0601D7905F00305022D13D1F3
:1007D000CE0802F1200555F826004D07EE0E0F2534
:1007E000B540A8434E07F60E1D69B5402843CE0814
:1007F00002F1200545F8260010684E000325B5409B
:10080000A8431D7905F003054E00B540284310604C
:100810005D6805F44035002D6BD000BF384D2D6E5E
:1008200045F00105364E356635462D6E05F001055D
:10083000009500BF00BF4FEAB6358E0855F8260078
:100840008D072E0F0F25B540A843B2F1904F02D16E
:1008500000251AE04DE02B4DAA4201D1012514E0FC
:10086000294DAA4201D102250FE0284DAA4201D10B
:1008700003250AE0264DAA4201D1042505E0254DB5
:10088000AA4201D1052500E006258E07360FB540A6
:100890002843214D8E0845F82600204D2868A043A6
:1008A0005D6805F4801505B120431C4D28602D1DA1
:1008B0002868A0435D6805F4001505B12043174D75
:1008C0002D1D2860154D2D1F2868A0435D6805F477
:1008D000003505B12043114D2D1F28602D1F2868BC
:1008E000A0435D6805F4803505B120430B4D083DFC
:1008F0002860491C1D68CD40002D7FF430AF78BDC5
:10090000001002400004004800080048000C0048A5
:10091000001000480014004808000140080401408D
:10092000024613690B400BB1012000E00020704724
:100930000AB1816100E081627047000001480068EF
:10094000704700000C000020034800680349096854
:1009500008440149086070470C0000201400002082
:1009600010B50024032000F0AFF80F2000F008F8C5
:1009700008B1012401E000F02FF8204610BD00006E
:1009800070B50446002511480068D8B10F480068CA
:100990004FF47A71B1FBF0F00D490968B1FBF0F644
:1009A000304600F047FD58B9102C07D200222146EE
:1009B000501E00F04BF80748046004E0012502E0F7
:1009C000012500E00125284670BD0000140000202C
:1009D000180000201000002008B500BF1048006E6D
:1009E00040F001000E4908660846006E00F0010064
:1009F000009000BF00BF00BF0846806D40F08050EF
:100A000088650846806D00F08050009000BF00BFF0
:100A100000220F21901E00F019F800F0F5F808BD33
:100A2000001002400146084600280DDB00BF00BF51
:100A300000F01F0301229A4043099B0003F1E023C9
:100A4000C3F8002100BF00BF00BF70472DE9F05F71
:100A500080460D46164601F0EFFF074639462A4606
:100A6000334601F00700C0F1070ABAF1040F02D9BA
:100A70004FF0040A01E0C0F1070AD14600F1040A70
:100A8000BAF1070F02D24FF0000A01E0A0F1030A09
:100A9000D4464FF0010A0AFA09FAAAF1010A0AEA51
:100AA000020A0AFA0CFA4FF0010B0BFA0CFBABF13D
:100AB000010B0BEA030B4AEA0B042146404601F006
:100AC000C3FFBDE8F09F000000BF00F00702064B27
:100AD00019684FF6FF031940044B0B4343EA022108
:100AE000014B196000BF70470CED00E00000FA05F3
:100AF00002468ABB4148006800F4C060B0F5806FD0
:100B00002BD13E488030006820F480703B4BC3F806
:100B100080001846006820F4C06040F4007018603F
:100B20003748006832235843364BB0FBF3F0411C82
:100B300000E0491E3148406900F48060B0F5806FE4
:100B400001D10029F5D12D48406900F48060B0F54D
:100B5000806F51D10320704708E02848803000683A
:100B600020F48070254BC3F8800045E0B2F5007F8B
:100B70003AD12248006800F4C060B0F5806F2AD1F5
:100B80001E488030006840F480701C4BC3F8800021
:100B90001846006820F4C06040F4007018601848DF
:100BA000006832235843174BB0FBF3F0411C00E0C0
:100BB000491E1248406900F48060B0F5806F01D191
:100BC0000029F5D10D48406900F48060B0F5806FD0
:100BD00012D10320BFE709488030006840F48070DC
:100BE000064BC3F8800007E00448006820F4C060AA
:100BF00040F48060014B18600020ACE700700040BA
:100C00001800002040420F000348806840F48040F4
:100C10000149886070470000007000402DE9F041F4
:100C200004460D464FF0000814B90120BDE8F081DC
:100C30007D48006800F00F00A8420ED27A48006894
:100C400020F00F002843784908600846006800F04B
:100C50000F00A84201D00120E8E7207800F0010051
:100C6000002864D06068032823D17048006800F031
:100C7000007008B90120D9E701F03AFB06466C483C
:100C8000864237D96948806800F0F00030B120789A
:100C900000F0020002282DD1A06858BB634880688C
:100CA00020F0F00040F08000604988604FF080083C
:100CB00020E06068022806D15C48006800F400303B
:100CC00040B90120B2E75948006800F4806008B9D3
:100CD0000120ABE700F0B4F806465548864209D932
:100CE0005248806820F0F00040F080004F49886052
:100CF0004FF080084D48806820F003006168084389
:100D00004A498860FFF71AFE074608E0FFF716FE1B
:100D1000C01B41F28831884201D9032086E743484D
:100D2000806800F00C006168B0EB810FEED1207894
:100D300000F00200022820D1207800F004000428EE
:100D400005D13A48806840F4E060384988602078EE
:100D500000F00800082807D13448806820F460506B
:100D600040F4E060314988603048806820F0F0004D
:100D7000A16808432D49886008E0B8F1800F05D1CB
:100D80002A48806820F0F0002849886026480068DA
:100D900000F00F00A84219D92348006820F00F0086
:100DA000284321490860FFF7C9FD074608E0FFF71F
:100DB000C5FDC01B41F28831884201D9032035E7C7
:100DC0001948006800F00F00A842F0D1207800F028
:100DD0000400042807D11548806820F4E060E16829
:100DE000084312498860207800F00800082808D1DC
:100DF0000E48806820F46050216940EAC1000B4928
:100E0000886000F01DF809498968C1F30311094A97
:100E1000515C01F01F01C84007490860074800689D
:100E2000FFF7AEFD02E70000002002400010024084
:100E300000B4C4044C3E000818000020100000203C
:100E400070B5224DAD6805F00C05042D01D1204888
:100E50003AE01E4DAD6805F00C05082D01D11D4886
:100E600032E01A4DAD6805F00C050C2D2BD1174D55
:100E7000ED6805F00304154DED68C5F303156A1C14
:100E8000022C0CD0032C09D1124DB5FBF2F50F4EFC
:100E9000F668C6F3062605FB06F10AE000BF0C4D16
:100EA000B5FBF2F5094EF668C6F3062605FB06F11A
:100EB00000BF00BF054DED68C5F341656D1C6B00BB
:100EC000B1FBF3F000E0002070BD00000010024014
:100ED0000024F40000127A002DE9F843044614B906
:100EE0000120BDE8F883207800F00100002865D0DB
:100EF000FC48806800F00C07FA48C06800F0030660
:100F00000C2F01D1032E01D0082F0AD1F54800681B
:100F100000F40030002851D0606800284ED1012034
:100F2000DFE700BF6068B0F5803F06D1ED4800689C
:100F300040F48030EB4908601AE06068B0F5A02FFB
:100F40000BD1E848006840F48020E6490860084674
:100F5000006840F4803008600AE0E248006820F44D
:100F60008030E04908600846006820F4802008606E
:100F700000BF606888B1FFF7E1FC054606E0FFF7B7
:100F8000DDFC401B642801D90320AAE7D54800688E
:100F900000F400300028F2D010E0FFF7CFFC054647
:100FA00006E0FFF7CBFC401B642801D9032098E73B
:100FB000CC48006800F400300028F2D1207800F01E
:100FC0000200022860D1C748806800F00C07C548BD
:100FD000C06800F003060C2F01D1022E01D0042FAF
:100FE00018D1C048006800F4806018B1E06808B902
:100FF000012076E7BB48406820F0FE40217C40EAB3
:101000000160B8494860B8480068FFF7B9FC18B3F8
:10101000012066E7E06800B3B248006840F48070E1
:10102000B0490860FFF78AFC054606E0FFF786FC3A
:10103000401B022801D9032053E7AA48006800F4A6
:1010400080600028F2D0A748406820F0FE40217C54
:1010500040EA0160A349486016E0A248006820F415
:101060008070A0490860FFF769FC054606E0FFF7BD
:1010700065FC401B022801D9032032E7994800682B
:1010800000F480600028F2D1207800F008000828E1
:1010900036D16069D0B193489430006840F00100C7
:1010A0009049C1F89400FFF749FC054606E0FFF7B8
:1010B00045FC401B022801D9032012E789489430DF
:1010C000006800F002000028F1D019E08548943053
:1010D000006820F001008349C1F89400FFF72EFC5E
:1010E000054606E0FFF72AFC401B022801D9032031
:1010F000F7E67C489430006800F002000028F1D147
:10110000207800F00400042872D14FF000087548E0
:10111000806D012121EA107078B100BF7148806DA7
:1011200040F080506F4988650846806D00F080501F
:10113000009000BF00BF4FF001086C48006800F449
:101140008070B0B96948006840F4807067490860F1
:10115000FFF7F4FB054606E0FFF7F0FB401B022813
:1011600001D90320BDE66148006800F480700028C2
:10117000F2D000BFA068012808D15A48903000681A
:1011800040F001005749C1F8900021E0A06805280F
:101190000FD154489030006840F004005149C1F824
:1011A00090000846D0F8900040F00100C1F890008F
:1011B0000EE04C489030006820F001004949C1F829
:1011C00090000846D0F8900020F00400C1F890008C
:1011D00000BFA068A8B1FFF7B1FB054609E0FFF723
:1011E000ADFB401B41F28831884202D9032078E6EA
:1011F00025E03C489030006800F002000028EED066
:1012000013E0FFF79BFB054608E0FFF797FB401B49
:1012100041F28831884201D9032062E6314890309A
:10122000006800F002000028EFD1B8F1010F05D1ED
:101230002C48806D20F080502A49886500BF2078B6
:1012400000F02000202836D1A069D0B12548983080
:10125000006840F001002349C1F89800FFF76EFBD9
:10126000054606E0FFF76AFB401B022801D9032070
:1012700037E61C489830006800F002000028F1D0E2
:1012800019E018489830006820F001001549C1F8AD
:101290009800FFF753FB054606E0FFF74FFB401BA6
:1012A000022801D903201CE60E489830006800F09F
:1012B00002000028F1D1E069002860D00948806868
:1012C00000F00C000C287AD0E069022858D10548BB
:1012D000006820F0807003490860FFF72FFB054687
:1012E0000DE00000001002401000002000700040DF
:1012F000FFF724FB401B022801D90320F1E54A48EF
:10130000006800F000700028F2D1D4E90810401EF7
:1013100041EA0011A06A41EA0021208E0122C2EBBD
:10132000500041EA40513420005DC2EB500041EAD8
:1013300040612C20005D41EAC0603B49C9683B4ADE
:10134000114008433849C8600846006840F0807082
:1013500008600846C06840F08070C860FFF7EEFA89
:10136000054606E0FFF7EAFA401B022801D90320F0
:10137000B7E52D48006800F000700028F2D051E079
:101380002948006820F0807027490860FFF7D6FAE6
:10139000054606E0FFF7D2FA401B022801D90320D8
:1013A0009FE52148006800F000700028F2D11E4837
:1013B000C0681F4908401C49C86033E0FFE7E06986
:1013C000012800D18DE51848C66806F00301206A9F
:1013D000814225D106F0F001606A401EB1EB001F8A
:1013E0001ED106F4FE41A06AB1EB002F18D106F021
:1013F00078412C20005DB1EBC06F11D106F4C00123
:10140000208E0122C2EB5000B1EB405F08D106F004
:10141000C0613420005DC2EB5000B1EB406F01D0E1
:1014200001205EE500205CE5001002400C809F0179
:10143000FCFFEEFE70B504462546681EB0F1807FC5
:1014400001D301200FE0681E4FF0E02148610F2119
:101450004FF0FF3001F0F8FA00204FF0E0218861F2
:1014600007200861002070BD7047704770477047C3
:101470007047704730B502460B4600BF92F83C00FB
:10148000012801D1022030BD012082F83C0000BFBC
:10149000022082F83D0010684168106884681D4D84
:1014A0001068A84203D01C4D1068A84203D121F453
:1014B00070015868014319480140186801431068D9
:1014C0004160144D1068A84213D01068B0F1804FED
:1014D0000FD0134D1068A8420BD0124D1068A842CF
:1014E00007D00D4D1068A84203D00F4D1068A842D8
:1014F00005D124F0800498680443106884600120BA
:1015000082F83D0000BF002082F83C0000BF00BF11
:10151000B9E70000002C0140003401408FFFFFFDBF
:10152000000400400008004000400140704710B532
:1015300004460CB9012010BD94F83D0028B90020E4
:1015400084F83C00204600F029F8022084F83D0091
:10155000211D206800F0E4FF012084F8480000BF4E
:1015600084F83E0001213F200155402001554120D3
:101570000155422001554320015500BF00BF012005
:1015800084F8440045200155462001554720015567
:1015900000BF012084F83D000020CCE738B50446A8
:1015A0002068B0F1804F16D100BF1848806D40F020
:1015B0000100164988650846806D00F00100009022
:1015C00000BF00BF002205211C20FFF73FFA1C20AE
:1015D000FFF728FA19E00E492068884215D100BFAC
:1015E0000A48806D40F00200084988650846806D11
:1015F00000F00200009000BF00BF002205211D2066
:10160000FFF724FA1D20FFF70DFA38BD0010024045
:10161000000400402DE9F04104460D46002700BFBC
:1016200094F83C00012802D10220BDE8F08101209D
:1016300084F83C0000BF022084F83D0020688668E2
:101640003F48064026F47F46206886602868702858
:1016500024D00CDC00F00F01002964D10011072810
:1016600061D2DFE800F05354555649353F00354A02
:10167000811A90424FD009DCB0F5805F0DD0B0F5F3
:10168000005F18D0B0F1101F4DD143E0102943D0B6
:10169000202942D0502946D140E046E0D5E9021346
:1016A0006A68206800F0B3FF2068866846F0770615
:1016B0002068866039E0D5E902136A68206800F086
:1016C000A6FF2068806840F48040216888602CE094
:1016D000EA686968206801F085F95021206800F007
:1016E000A1FF22E0EA686968206801F08EF96021B4
:1016F000206800F097FF18E0EA686968206801F048
:1017000071F94021206800F08DFF0EE000BF00BF9E
:1017100000BF00BF00BF00BF00BF00BF2968206836
:1017200000F080FF01E0012700BF00BF012084F826
:101730003D0000BF002084F83C0000BF384674E73D
:1017400088FFCEFF20001000704770B50446206867
:10175000C6682068056905F00200022819D106F064
:101760000200022815D1401F21680861012020775E
:101770002068806900F0030018B12046FFF7E4FFFD
:1017800005E0204600F078F9204600F066FA0020D7
:10179000207705F00400042819D106F0040004287D
:1017A00015D1C04321680861022020772068806934
:1017B00000F4407018B12046FFF7C6FF05E0204650
:1017C00000F05AF9204600F048FA0020207705F092
:1017D0000800082819D106F00800082815D1C043D0
:1017E00021680861042020772068C06900F00300A8
:1017F00018B12046FFF7A8FF05E0204600F03CF9AD
:10180000204600F02AFA0020207705F0100010286A
:1018100019D106F01000102815D1C04321680861C5
:10182000082020772068C06900F4407018B1204675
:10183000FFF78AFF05E0204600F01EF9204600F081
:101840000CFA0020207705F0010048B106F00100F5
:1018500030B16FF0010021680861204600F0CEFA37
:1018600005F08000802804D005F40050B0F5005F3A
:101870000AD106F08000802806D16FF4025021685A
:1018800008612046FFF7F1FD05F48070B0F5807F18
:101890000AD106F08000802806D16FF4807021689C
:1018A00008612046FFF7E0FD05F04000402809D11F
:1018B00006F04000402805D1C04321680861204659
:1018C00000F09DFA05F02000202809D106F0200044
:1018D000202805D1C043216808612046FFF7C6FDD6
:1018E00005F48010B0F5801F0BD106F48010B0F520
:1018F000801F06D16FF48010216808612046FFF731
:10190000B7FD05F40010B0F5001F0BD106F4001070
:10191000B0F5001F06D16FF4001021680861204661
:10192000FFF7A5FD05F48000B0F5800F0BD106F49C
:101930008000B0F5800F06D16FF480002168086147
:101940002046FFF796FD05F40000B0F5000F0BD11F
:1019500006F40000B0F5000F06D16FF40000216816
:1019600008612046FFF7E2FD70BD000010B586B0AB
:101970000446142101A8FEF755FD2068B0F1804F00
:1019800037D100BF3948C06C40F001003749C86406
:101990000846C06C00F00100009000BF00BF00BF0F
:1019A0000846C06C40F00200C8640846C06C00F0F5
:1019B0000200009000BF00BF202001900220029092
:1019C0000020039004900120059001A94FF0904061
:1019D000FEF7C0FE40F60840019002200290002071
:1019E000039004900120059001A92148FEF7B2FE62
:1019F00039E020492068884235D100BF1B48C06CBF
:101A000040F001001949C8640846C06C00F00100AC
:101A1000009000BF00BF00BF0846C06C40F002004D
:101A2000C8640846C06C00F00200009000BF00BF10
:101A30005020019002200290002003900490022088
:101A4000059001A94FF09040FEF784FE032001901D
:101A5000022002900020039004900220059001A92A
:101A60000348FEF777FE06B010BD000000100240EC
:101A7000000400480004004070472DE9F04104468E
:101A80000D461646002700BF94F83C00012802D1FD
:101A90000220BDE8F081012084F83C0000BF0C2E3C
:101AA00051D005DC4EB1042E1ED0082E7AD133E081
:101AB000102E60D0142EF9D175E02946206800F070
:101AC000BDFD2068806940F00800216888612068B9
:101AD000806920F004002168886120688069296994
:101AE00008432168886178E02946206800F0FCFD01
:101AF0002068806940F400602168886120688069FE
:101B000020F480602168886120688069296940EA42
:101B100001202168886160E02946206800F03EFECF
:101B20002068C06940F008002168C8612068C06969
:101B300020F004002168C8612068C0692969084351
:101B40002168C86149E02946206800F081FE2068CC
:101B5000C06940F400602168C8612068C06920F451
:101B600080602168C8612068C069296940EA012055
:101B70002168C86131E02946206800F0C3FE206872
:101B8000006D40F00800216808652068006D20F0B5
:101B90000400216808652068006D296908432168F0
:101BA00008651AE017E02946206800F0E3FE206887
:101BB000006D40F40060216808652068006D20F425
:101BC0008060216808652068006D296940EA01206D
:101BD0002168086501E0012700BF00BF00BF0020A9
:101BE00084F83C0000BF384653E710B504460CB9F2
:101BF000012010BD94F83D0028B9002084F83C0075
:101C0000204600F029F8022084F83D00211D2068BC
:101C100000F086FC012084F8480000BF84F83E00F4
:101C200001213F200155402001554120015542200E
:101C300001554320015500BF00BF012084F8440036
:101C400045200155462001554720015500BF012080
:101C500084F83D000020CCE770477047F0B504469B
:101C60000D46002715B994F83E0015E0042D02D169
:101C70003F20005D10E0082D02D14020005D0BE008
:101C80000C2D02D14120005D06E0102D02D1422032
:101C9000005D01E04320005D012801D00120F0BD7E
:101CA0001DB9022084F83E001AE0042D03D1022160
:101CB0003F20015514E0082D03D102214020015599
:101CC0000EE00C2D03D102214120015508E0102D1A
:101CD00003D102214220015502E002214320015597
:101CE00035B1042D0BD0082D10D00C2D1CD114E0D3
:101CF0002068C06840F002002168C86016E02068D3
:101D0000C06840F004002168C8600FE02068C06827
:101D100040F008002168C86008E02068C06840F012
:101D200010002168C86001E0012700BF00BFEFBBC1
:101D300001222946206800F059FC28492068884281
:101D40000FD02749206888420BD026492068884256
:101D500007D025492068884203D02449206888425A
:101D600001D1012000E0002028B12068406C40F43F
:101D700000402168486419492068884213D02068CF
:101D8000B0F1804F0FD01A49206888420BD0194912
:101D90002068884207D012492068884203D0114940
:101DA0002068884212D12068806800E00DE0124966
:101DB00000EA0106062E0FD0B6F5803F0CD0206851
:101DC000006840F001002168086005E020680068B4
:101DD00040F0010021680860384660E7002C0140AF
:101DE00000340140004001400044014000480140EF
:101DF00000040040000800400700010070477047E1
:101E000000BFFEE700B58FB0142212490AA8FEF702
:101E1000D7FA00210AA801F0ADF80F490860142292
:101E20000C49143105A8FEF7CBFA002105A801F0F2
:101E3000A1F80A4908601422064928316846FEF7CD
:101E4000BFFA0021684601F095F8054908600FB017
:101E500000BD0000103E000800000020040000202B
:101E60000800002008B500BF1A48C06C40F004000C
:101E70001849C8640846C06C00F00400009000BF18
:101E800000BF00BF0846C06C40F02000C864084690
:101E9000C06C00F02000009000BF00BF00BF0846EB
:101EA000C06C40F00100C8640846C06C00F001003E
:101EB000009000BF00BF00BF0846C06C40F00200A9
:101EC000C8640846C06C00F00200009000BF00BF6C
:101ED00008BD00000010024000B58FB000200B903C
:101EE0000C900D900E90089009900A901C2101A86A
:101EF000FEF798FA4FF080402F49086002204860B2
:101F000000212D48816040F2E731C160002101616C
:101F10008161FFF70CFB08B1FEF705FC4FF4805020
:101F20000B900BA92448FFF775FB08B1FEF7FBFBEC
:101F30002148FFF75AFE08B1FEF7F5FB0020089094
:101F40000A9008A91C48FFF795FA08B1FEF7EBFBC9
:101F5000602001904FF4FA600290002003900590F9
:101F6000002201A91448FFF788FD08B1FEF7DBFB4A
:101F700070200190042201A90F48FFF77EFD08B1EF
:101F8000FEF7D1FB60200190082201A90A48FFF763
:101F900074FD08B1FEF7C7FB702001900C2201A967
:101FA0000548FFF76AFD08B1FEF7BDFB0248FFF7E1
:101FB000DDFC0FB000BD00000012002000B58FB0A6
:101FC00000200B900C900D900E90089009900A90B4
:101FD0001C2101A8FEF726FA2D482E490860022090
:101FE000486000212B48816040F2E731C160002148
:101FF00001618161FFF79BFA08B1FEF794FB4FF492
:1020000080500B900BA92348FFF704FB08B1FEF7A3
:102010008AFB2048FFF7E9FD08B1FEF784FB0020AA
:1020200008900A9008A91B48FFF724FA08B1FEF7A8
:102030007AFB602001904FF4FA6002900020039038
:102040000590002201A91348FFF717FD08B1FEF71C
:102050006AFB042201A90F48FFF70FFD08B1FEF744
:1020600062FB70200190082201A90A48FFF705FDD4
:1020700008B1FEF758FB0C2201A90648FFF7FDFC4A
:1020800008B1FEF750FB0348FFF770FC0FB000BD2E
:10209000000400404C12002000BFFEE700BFFEE736
:1020A000B0EE401A10B99FED790A704790ED100A12
:1020B00080ED110A90ED0F0A80ED100AC0ED060ABE
:1020C00080ED071A30EEC10A80ED0F0A0178002971
:1020D00075D190ED010AD0ED0F1A20EE210A80EDA6
:1020E000090A90ED0A0AD0ED021A90ED0F2A01EECE
:1020F000820A80ED0A0A90ED0D0A80ED0E0A90ED3D
:102100000C0A80ED0D0A90ED0F0AD0ED101A30EE9A
:10211000610A80ED0C0A90ED030AD0ED0C1A20EE56
:10212000210A80ED0B0A90ED0A0AD0ED051AB4EEF3
:10213000E10AF1EE10FA04DD90ED050A80ED0A0ADD
:1021400010E090ED0A0AD0ED051AF1EE611AB4EE36
:10215000E10AF1EE10FA05D290ED050AB1EE400A5F
:1021600080ED0A0A90ED090AD0ED0A1A30EE210A34
:10217000D0ED0B1A30EE210A80ED080A90ED080A26
:10218000D0ED041AB4EEE10AF1EE10FA04DD90EDA0
:10219000040A80ED080A76E090ED080AD0ED041AF2
:1021A000F1EE611AB4EEE10AF1EE10FA6BD290EDA5
:1021B000040AB1EE400A80ED080A64E0FFE7017806
:1021C000012960D190ED0F0AD0ED101A30EE610AAE
:1021D000D0ED011A20EE210A80ED090A90ED020AE5
:1021E000D0ED0F1A20EE210A80ED0A0A90ED0D0ABB
:1021F00080ED0E0A90ED0C0A80ED0D0A90ED0F0AAD
:10220000D0ED101AB0EE002A02EE610AD0ED111ADC
:1022100030EE210A80ED0C0A90ED030AD0ED0C1A85
:1022200020EE210A80ED0B0A90ED090AD0ED0A1A82
:1022300030EE210AD0ED0B1A30EE210AD0ED081A4B
:1022400030EE210A80ED080A90ED080AD0ED041A5C
:10225000B4EEE10AF1EE10FA04DD90ED040A80ED2F
:10226000080A10E090ED080AD0ED041AF1EE611AA8
:10227000B4EEE10AF1EE10FA05D290ED040AB1EEE7
:10228000400A80ED080A90ED080A0EE70000000001
:1022900000B102B97047017092ED001A80ED011A89
:1022A00092ED011A80ED021A92ED021A80ED031AE6
:1022B00080ED040AC0ED050A9FED0C1A80ED0E1AA0
:1022C00080ED0D1A80ED0C1A9FED081A80ED081AAA
:1022D00080ED0B1A80ED0A1A80ED091A80ED111AB3
:1022E00080ED101A80ED0F1A00BFD3E70000000048
:1022F00070B5164DED6805F00304144DED68C5F397
:1023000003156B1C022C0CD0032C09D1104DB5FB0E
:10231000F3F50E4EF668C6F3062605FB06F10AE055
:1023200000BF0C4DB5FBF3F5084EF668C6F3062664
:1023300005FB06F100BF00BF044DED68C5F3416524
:102340006D1C6A00B1FBF2F070BD0000001002408D
:1023500000127A000024F40000BF012000F0F9FD13
:10236000FBE710B5FEF7F0FA01F016FC012801D0EA
:1023700001F0C8FB10BD00B593B0382105A8FEF7E9
:1023800051F814216846FEF74DF84FF40070FEF73F
:10239000AFFB02200590C001089040200990022068
:1023A0000C9002210D9104210E914B210F910221DD
:1023B00010911191129105A8FEF78EFD08B1FEF75C
:1023C000B2F90F20009003200190002002900390AA
:1023D000049004216846FEF721FC08B1FEF7A3F93A
:1023E00013B000BD0348006840F470000149086064
:1023F0007047000088ED00E010B50248FFF7A5F92E
:1024000010BD00000012002010B54048006864288C
:1024100007DB00203D49086008460068401C086052
:1024200004E03A480068401C384908603749632294
:102430000868002100F022FD354901EB800090ED95
:10244000000ADFED340A20EE200ADFED330A80EEC9
:10245000201ABCEEC10A10EE100A30490968486320
:102460002A49096801F132006322002100F006FDCB
:10247000274901EB800090ED000ADFED260A20EEEF
:10248000200ADFED250A80EE201ABCEEC10A10EE0C
:10249000100A2249096888631C49632208680021E0
:1024A00000F0ECFC1A4901EB800090ED000ADFED32
:1024B000190A20EE200ADFED180A80EE201ABCEE81
:1024C000C10A10EE100A15490968C8630F49096866
:1024D00001F132006322002100F0D0FC0C4901EB35
:1024E000800090ED000ADFED0B0A20EE200ADFED00
:1024F0000A0A80EE201ABCEEC10A10EE100A074943
:10250000096808640548FFF720F910BD881F0020FE
:102510002C10002000007A44000096434C1200204A
:1025200010B502682A4B98420BD0B0F1804F08D00A
:10253000284B984205D0284B984202D0274B98420E
:1025400003D122F070024B681A43214B984214D0F9
:10255000B0F1804F11D01F4B98420ED01E4B9842C5
:102560000BD01E4B984208D01D4B984205D01D4BF6
:10257000984202D01C4B984203D122F44072CB689F
:102580001A4322F080034C6943EA040202608B681C
:10259000C3620B6883620E4B98420BD00F4B98427C
:1025A00008D00F4B984205D00E4B984202D00E4BEC
:1025B000984201D10B69036301234361036903F06E
:1025C00001031BB1036923F00103036110BD000087
:1025D000002C01400004004000080040003401408D
:1025E00000400140004401400048014030B501F086
:1025F0001F05012404FA05F3046A9C430462046A7B
:1026000001F01F0502FA05F52C43046230BD30B518
:102610000C46816821F47F4142EA03252543294382
:10262000816030BD0A468168034B194042F00703C0
:1026300019438160704700008FFFCFFF30B5026AF9
:10264000056A25F00105056243688469204D2C4028
:1026500024F003040D682C4322F002028D682A4303
:102660001C4DA84200D10FE01B4DA84200D10BE049
:102670001A4DA84200D107E0194DA84200D103E04D
:10268000184DA84206D100BF22F00802CD682A43A7
:1026900022F004020F4DA8420BD00F4DA84208D0E3
:1026A0000E4DA84205D00E4DA84202D00D4DA842B5
:1026B00007D123F4807323F400734D692B438D6994
:1026C0002B43436084614D684563026230BD000066
:1026D0008FFFFEFF002C014000340140004001400C
:1026E000004401400048014030B5026A056A25F007
:1026F0001005056243688469224D2C4024F440741F
:102700000D6844EA052422F020028D6842EA051291
:102710001D4DA84200D10FE01C4DA84200D10BE096
:102720001B4DA84200D100BF1A4DA84200D100BFE6
:10273000194DA84207D106E022F08002CD6842EA96
:10274000051222F04002104DA8420BD00F4DA842B6
:1027500008D00F4DA84205D00E4DA84202D00E4D14
:10276000A84209D123F4806323F400634D6943EA4E
:1027700085038D6943EA8503436084614D68856301
:10278000026230BDFF8FFFFE002C0140003401408B
:1027900000400140004401400048014030B5026A59
:1027A000056A25F4807505624368C469224D2C4092
:1027B00024F003040D682C4322F400728D6842EA71
:1027C00005221E4DA84200D10FE01D4DA84200D1A8
:1027D0000BE01C4DA84200D100BF1B4DA84200D108
:1027E00000BF1A4DA84207D106E022F40062CD686E
:1027F00042EA052222F48062104DA8420BD0104D0F
:10280000A84208D00F4DA84205D00F4DA84202D0D3
:102810000E4DA84209D123F4805323F400534D698F
:1028200043EA05138D6943EA05134360C4614D68AB
:10283000C563026230BD00008FFFFEFF002C014027
:102840000034014000400140004401400048014084
:1028500030B5026A056A25F4805505624368C4698B
:10286000224D2C4024F440740D6844EA052422F4DF
:1028700000528D6842EA05321D4DA84200D10FE09A
:102880001C4DA84200D10BE01B4DA84200D100BF57
:102890001A4DA84200D100BF194DA84207D106E049
:1028A00022F40042CD6842EA053222F48042104D03
:1028B000A8420BD00F4DA84208D00F4DA84205D01A
:1028C0000E4DA84202D00E4DA84209D123F48043F8
:1028D00023F400434D6943EA85138D6943EA851368
:1028E0004360C4614D680564026230BDFF8FFFFE26
:1028F000002C0140003401400040014000440140F0
:102900000048014030B5026A056A25F48035056249
:102910004368046D114D2C400D682C4322F40032A5
:102920000D8942EA05420E4DA8420BD00D4DA8423A
:1029300008D00D4DA84205D00C4DA84202D00C4D38
:10294000A84204D123F480334D6943EA0523436050
:1029500004654D688564026230BD00008FFFFEFF94
:10296000002C01400034014000400140004401407F
:102970000048014030B5026A056A25F480150562F9
:102980004368046D114D2C400D6844EA052422F47F
:1029900000120D8942EA05520D4DA8420BD00D4D93
:1029A000A84208D00C4DA84205D00C4DA84202D038
:1029B0000B4DA84204D123F480234D6943EA8523BB
:1029C000436004654D68C564026230BDFF8FFFFE41
:1029D000002C01400034014000400140004401400F
:1029E0000048014030B50B461446026A056A25F0DE
:1029F00001050562816921F0F00141EA041122F02C
:102A00000A021A438161026230BD30B50B4614469A
:102A1000026A056A25F010050562816921F470419A
:102A200041EA043122F0A00242EA0312816102620B
:102A300030BD00BFFEE7000002480068C0F302207E
:102A4000704700000CED00E010B5002804DB0A0719
:102A5000130E054A135406E00A07140E034A00F049
:102A60000F031B1FD45410BD00E400E018ED00E07C
:102A70000A2000F06EFA00200BE000221E4921F827
:102A800010209FED1E0A103101EB800181ED000A3C
:102A9000401C0828F1DB00BFFDF7E8FD012000F035
:102AA00058FA00E000BF4FF400611548FDF738FF09
:102AB0000128F7D01048FDF797FD002015E00E49DA
:102AC00031F9101000EE101AB8EEC00ADFED0D0A51
:102AD00020EE200ADFED0C0A80EE201A06491031A4
:102AE00001EB800181ED001A401C0828E7DB012082
:102AF00000F02FFAD0E70000A41F00200000000023
:102B00000008004800401C460000004770B504461D
:102B1000002509E004F14C0101EB051028499FED67
:102B2000290A00F099F96D1C032DF3DB002509E05B
:102B300004F17C0101EB051021499FED220A00F010
:102B40008BF96D1C032DF3DBDFED1F0A9FED1F0AD0
:102B50001F4A002104F1C800FFF79AFBDFED1D0AB0
:102B60009FED1D0A1D4A002104F58870FFF790FBB8
:102B7000002005E0002204F1AC0141F82020401CB7
:102B80000428F7DB00200FE09FED0F0A04F110018D
:102B900001EB800181ED000A9FED0B0A211D01EB85
:102BA000800181ED000A401C0328EDDBB3EE0E0A24
:102BB00084ED2F0A9FED040A84ED300A70BD0000F9
:102BC000643E0008A69B443B0000000000002F4428
:102BD000683E0008000048420000FA43743E0008C6
:102BE00070B504464F49D4F8AC0009684863B0207A
:102BF00000594C4909688863B4200059494909685B
:102C0000C863B820005947490968086494ED200A50
:102C1000D4ED140AB2EE041A01EE200AB5EEC00A91
:102C2000F1EE10FA04D29FED400A84ED300A09E07B
:102C300094ED200AD4ED140AB2EE041A01EE200A33
:102C400084ED300A002020E094ED3A0ABDEEC00A7F
:102C5000364981ED000A0968B1F5C87F04DD4FF4FB
:102C6000C871324A116007E03049096811F5967F52
:102C700002DA2F492D4A11602C49096801F5C87103
:102C800004F1AC0242F82010401C0228DCDB0220D8
:102C900020E094ED4C0ABDEEC00A264981ED000A01
:102CA0000968B1F5967F04DD4FF49671214A1160F1
:102CB00007E02049096811F5967F02DA1C491D4A90
:102CC00011601C490968C1F5FA7204F1AC0141F8C0
:102CD0002020401C0428DCDB00250EE004F110015C
:102CE00001EB8501D1ED000AB0EE600A04F14C0160
:102CF00001EB051000F086F86D1C032DEEDB0025BE
:102D00000DE0211D01EB8501D1ED000AB0EE600A56
:102D100004F17C0101EB051000F074F86D1C032D2B
:102D2000EFDB70BD001200200000000084000020D6
:102D3000D4FEFFFF8800002010B5044600201AE0F2
:102D400004F12C0101EB800191ED000AB1EE400A83
:102D50009FED2A1AC0EE010A9FED290A20EE800A93
:102D6000F1EE080A80EE201A04F1100101EB800157
:102D700081ED001A401C0328E2DB03201AE004F175
:102D80002C0101EB800191ED000AB1EE400A9FEDAC
:102D90001B1AC0EE010A9FED1A0A20EE800AF1EE1E
:102DA000080A80EE201AC11E221D02EB810181ED6E
:102DB000001A401C0628E2DB94ED140AF2EE040A25
:102DC00020EE200A84ED310A94ED311AF0EE410A2A
:102DD00094ED201AB0EE410A04F1C800FFF760F943
:102DE00094ED2F1AF0EE410A94ED241AB0EE410A48
:102DF00004F58870FFF754F910BD000000007A4414
:102E00000000CA4210EE101A0160816800EE901AAC
:102E1000C16801EE101A70EE811A816800EE901AF6
:102E200080EEA11A416800EE901A61EE200A8168D6
:102E300001EE101AC16801EE901A31EE212A01EE5E
:102E4000101AC1EE021A016801EE101A41EE810A51
:102E500010EE901A4160704710EE102AC2600A68A6
:102E60008260DFED050A10EE902A0260DFED020AB3
:102E700010EE902A426070470000000010B58A42B0
:102E800000DA10BD904205DD531A00E0C01A9042EE
:102E9000FCDC07E0884205DA531A00E01844884257
:102EA000FCDB00BF00BFECE7FDF75AFDFFF763FA5C
:102EB000FEF7D8FFFFF782F8FFF70EF8002115485C
:102EC000FEF7CCFE04211348FEF7C8FE0821114886
:102ED000FEF7C4FE0C210F48FEF7C0FE00210E488D
:102EE000FEF7BCFE04210C48FEF7B8FE08210A4894
:102EF000FEF7B4FE0C210848FEF7B0FE9620FDF761
:102F0000DDFBFDF7F3FAFEF77DFF00F02EF800BFC2
:102F1000FEE700004C12002000120020642000F0A8
:102F200018F80748FFF7F2FD00BF0548FFF704FF58
:102F30000348FFF755FE012000F00BF8F5E700000D
:102F4000881F002001460020842901D0CA1C10449B
:102F5000704770B5044625460DB1294600E00121B1
:102F6000084600F05BFC002070BD10B500F084FC4A
:102F7000002010BDFEB504460D46B4F90800FFF769
:102F8000E1FF064602A8CDE90060238A9AB22B46EB
:102F9000D4E9001000F0D0FD012801D00020FEBDD2
:102FA0000298FCE72DE9F04105460E461C480768EB
:102FB0001C480068001D00F039FB50B91948006832
:102FC00090F82C1001208840174909688143164861
:102FD0000160681C38B936B112480168091D1348F0
:102FE00000F062FB1AE07C190E4800684460BC42A5
:102FF00007D20C480168091D0D48006800F03AFB33
:103000000CE008480168091D0A48006800F032FB1E
:1030100009480068844201D207480460BDE8F08195
:10302000300000201C000020340000207413002019
:1030300024000020200000204C00002010B5044691
:1030400000F03EFB23480068401C224908602248EB
:10305000006840B9204804600846006801280DD186
:1030600000F020F90AE01D48006838B91A480068E5
:10307000C06AE16A884201D81748046018480068AD
:10308000401C1749086094F82C100120884015490D
:103090000968084313490860E16A01EB8101124A9B
:1030A00002EB8100211D00F0FFFA00F033FB0B481A
:1030B000006868B108480068C06AE16A884207D2BF
:1030C0004FF0805009490860BFF34F8FBFF36F8FF7
:1030D00010BD00002C0000201C0000203800002043
:1030E00048000020340000209812002004ED00E089
:1030F00010B516E000F0E4FA0C48C068C468201D62
:1031000000F094FA0A480068401E0949086009481E
:103110000068401E0749086000F0FCFA204600F0F5
:103120000BF8044800680028E4D110BD60130020AB
:103130002C0000202800002010B50446206B00F071
:1031400007FB204600F004FB10BD000030B54FF433
:103150004063174800F007042CB1C01D20F00700A1
:10316000134C041B1B1B0246124C22600024114D01
:103170006C60D018083820F007000F4C2060002445
:103180000D4D2D686C600C4D2D682C601146441A55
:103190004C60094C24680C60084D4C682C60084D4C
:1031A0004C682C604FF00044064D2C6030BD000090
:1031B00088130020580000206000002068000020D4
:1031C000640000207400002000BFFFF791FF064854
:1031D00000680128F9D94FF0805004490860BFF316
:1031E0004F8FBFF36F8FF0E79812002004ED00E0DF
:1031F0002DE9FF5F81460E469246DDE90E7B109C6D
:10320000AAF10100216B01EB800828F0070808F003
:10321000070008B9012000E0002050B900BF50208D
:1032200080F31188BFF34F8FBFF36F8F00BF00BFD4
:10323000FEE786B1002507E0715D04F134004155D9
:10324000705D00B902E06D1C102DF5D300BF0021A8
:103250004320015502E0002084F83400072F00D3FA
:103260000627E76267640020A064201D00F0FFF9D4
:1032700004F1180000F0FBF92461C7F10700A06118
:1032800064620020E06484F8500049464046039A96
:1032900000F050F92060BBF1000F01D0CBF80040E6
:1032A000BDE8FF9F10B5002407E004EB84010F4A3E
:1032B00002EB810000F0CEF9641C072CF5D30C481A
:1032C00000F0C8F90B4800F0C5F90B4800F0C2F94E
:1032D0000A4800F0BFF90A4800F0BCF9044809495F
:1032E000086004480849086010BD000098120020DA
:1032F00024130020381300204C13002060130020FA
:1033000074130020200000202400002010B5014686
:10331000164800E0006803688B42FBD3024643680E
:1033200013448B4204D143684C68234443600146F4
:103330000A464B6813440468A34211D10C4C03683D
:103340002468A34208D04B680468646823444B6037
:1033500003681B680B6005E0054B1B680B6001E010
:1033600003680B60884200D0016010BD5800002047
:10337000600000200A490968096809B9012100E0D4
:10338000002121B14FF0FF31064A116006E00449E7
:103390000968C968C868034A41681160704700003D
:1033A000200000204C0000200E480068401C08B996
:1033B000012000E0002050B900BF502080F31188A8
:1033C000BFF34F8FBFF36F8F00BF00BFFEE700BF9B
:1033D000502080F31188BFF34F8FBFF36F8F00BF72
:1033E00000BFFEE7780000202DE9F04104464FF0D1
:1033F000000800F085FA4948006808B9FFF7A6FE02
:10340000474800682040002870D1D4B1083404F047
:103410000700B0B104F00700C0F10800044404F054
:10342000070008B9012000E0002050B900BF50207B
:1034300080F31188BFF34F8FBFF36F8F00BF00BFC2
:10344000FEE7002C52D03748006884424ED8364EF2
:103450003046056801E02E462D686868A04202D219
:1034600028680028F7D12D48006885423ED0306892
:1034700000F10808286830606868001B102819D916
:103480002F1907F0070008B9012000E0002050B90B
:1034900000BF502080F31188BFF34F8FBFF36F8FB1
:1034A00000BF00BFFEE76868001B78606C603846AC
:1034B000FFF72CFF1B4968680968081A194908605A
:1034C0000846006819490968884203D2154800680F
:1034D0001649086012496868096808436860002056
:1034E000286013480068401C1149086000F008FC7F
:1034F00008F0070008B9012000E0002050B900BF23
:10350000502080F31188BFF34F8FBFF36F8F00BF40
:1035100000BFFEE74046BDE8F081000060000020EB
:103520007400002064000020580000206800002083
:103530006C000020001F4FF080730360001F21F01B
:1035400001030360001F054B036014380260001F75
:103550006FF002030360203870470000A9330008B1
:1035600000B587B000BF1348C06C40F0010011499E
:10357000C8640846C06C00F00100019000BF00BFA5
:103580000A2002900120039004900220059002A9D5
:103590000948FDF7DFF80420029000200390012085
:1035A00004900220059002A90348FDF7D3F807B064
:1035B00000BD000000100240000800482DE9F04165
:1035C000054600242F46002628E04FF6FF7000EA4B
:1035D000440407F4004028B1012208211248FDF7F5
:1035E000A7F904E0002208210F48FDF7A1F9002205
:1035F00002210D48FDF79CF94FF6FF7000EA4707DE
:1036000004210948FDF78CF908B1601C84B201223D
:1036100002210548FDF78CF9701CC6B2102ED4DBD0
:103620002046BDE8F08100000008004801460A6914
:10363000D1E901309860D1E90103586050688842AF
:1036400001D188685060002008611068401E106039
:103650001068704700F1080141604FF0FF31816050
:1036600000F10801C1600161002101607047002183
:103670000161704710B502460B685C1C0CB91069FB
:1036800007E002F1080000E04068446824689C42BA
:10369000FAD944684C604C68A160886041600A6156
:1036A0001468641C146010BD42684A6093688B60A3
:1036B000936859609160086103685B1C0360704700
:1036C00000BF502080F31188BFF34F8FBFF36F8F7F
:1036D00000BF0E480068401C0C490860084600689E
:1036E000012812D10A480068C0B208B9012000E0E0
:1036F000002050B900BF502080F31188BFF34F8FD6
:10370000BFF36F8F00BF00BFFEE770477800002057
:1037100004ED00E00D48006850B900BF502080F370
:103720001188BFF34F8FBFF36F8F00BF00BFFEE75D
:1037300006480068401E054908600846006820B930
:10374000002080F3118800BF00BF70477800002080
:1037500070B506463546002E44D0083D2C46224919
:1037600060680968084008B1012000E0002050B9F5
:1037700000BF502080F31188BFF34F8FBFF36F8FCE
:1037800000BF00BFFEE7206808B9012000E000206C
:1037900050B900BF502080F31188BFF34F8FBFF3A3
:1037A0006F8F00BF00BFFEE70F49606809680840DF
:1037B000C0B12068B0B90C4960680968884360608E
:1037C00000F09EF8094960680968084407490860E4
:1037D0002046FFF79BFD06480068401C044908602E
:1037E00000F08EFA70BD000074000020640000201C
:1037F0007000002000204FF0E02108618861064839
:1038000000684FF47A71B0FBF1F0401E4FF0E021F8
:1038100048610720086170471800002070B5044611
:103820000025D4B11248006808B9012000E000204A
:1038300050B900BF502080F31188BFF34F8FBFF302
:103840006F8F00BF00BFFEE700F05AF8002120464E
:10385000FFF7A8FB00F054FA05463DB94FF0805041
:1038600004490860BFF34F8FBFF36F8F70BD000036
:103870005400002004ED00E01CB51A4800210B465E
:103880008022CDE9001018A1194800F055F904462E
:10389000012C15D100BF502080F31188BFF34F8F4A
:1038A000BFF36F8F00BF4FF0FF3012490860012057
:1038B0001149086000201149086000F06FF810E01D
:1038C000601C08B1012000E0002050B900BF50206A
:1038D00080F31188BFF34F8FBFF36F8F00BF00BF1E
:1038E000FEE71CBD5000002049444C45000000008C
:1038F000C93100084C0000203800002030000020B2
:1039000002480068401C01490860704754000020CC
:103910001D48006818B101201C49086032E00020F1
:103920001A4908601A480068B0FA80F0C0F11F0117
:1039300001EB8100174A52F8200008B1012000E095
:10394000002050B900BF502080F31188BFF34F8F83
:10395000BFF36F8F00BF00BFFEE701EB81020D4B8D
:1039600003EB820042685268426000F1080243683B
:10397000934202D14268526842604268D268064B64
:103980001A6000BF70470000540000204000002073
:1039900034000020981200201C0000201CB5524862
:1039A00000685249884201D0012000E0002050B94F
:1039B00000BF502080F31188BFF34F8FBFF36F8F8C
:1039C00000BF00BFFEE7484800684849491E8842DA
:1039D00001D0012000E0002050B900BF502080F34A
:1039E0001188BFF34F8FBFF36F8F00BF00BFFEE79B
:1039F0003F49084600780190FF200A4610700846AB
:103A0000007800909DF8000000F0F0009DF8002084
:103A1000904201D1012000E0002050B900BF5020A9
:103A200080F31188BFF34F8FBFF36F8F00BF00BFCC
:103A3000FEE79DF8000000F050002E4A10700720AD
:103A40002D4A106009E02C480068401E2A4A106088
:103A50009DF800004006000E00909DF8000000F068
:103A600080008028EFD024480068C0F107000428B7
:103A700001D1012000E0002050B900BF502080F3A8
:103A80001188BFF34F8FBFF36F8F00BF00BFFEE7FA
:103A9000194800680002184A10601046008800F4B7
:103AA000E0601060124A019810700F4820300068E2
:103AB00040F470000C49203108600846006840F06E
:103AC00070400860FFF796FE00200C490860FCF784
:103AD0001BFC0B48006840F0404009490860FCF7B7
:103AE000FFFB00201CBD000000ED00E071C20F4193
:103AF00000E400E07C00002080000020780000202E
:103B000034EF00E010B500BF502080F31188BFF300
:103B10004F8FBFF36F8F00BF00F04EF818B14FF01A
:103B200080500449086000BF002080F3118800BF66
:103B300010BD000004ED00E02DE9FF4F85B0804688
:103B400089461746DDE912ABB800FFF74DFC064683
:103B500056B15420FFF748FC04460CB1266304E03C
:103B60003046FFF7F5FD00E000247CB10020CDE9F0
:103B700000ABCDE902403A4649464046089BFFF774
:103B800037FB2046FFF75AFA012501E04FF0FF35D9
:103B9000284609B0BDE8F08F0549096809B9012038
:103BA00005E00449096809B9022000E000207047D7
:103BB00038000020540000202DE9F0414FF00008AB
:103BC0004448006800287CD143480068451C4248AE
:103BD000056015BB41480068006808B9012000E095
:103BE000002050B900BF502080F31188BFF34F8FE1
:103BF000BFF36F8F00BF00BFFEE738480768384843
:103C00000068364908603648076036480068401C3E
:103C100034490860FFF7AEFB00BF334800688542B7
:103C20003CD300BF2D480068006808B9012000E0BF
:103C3000002020B14FF0FF302B4908602DE02748CD
:103C40000068C068C4686668B54202D2264806604B
:103C500023E0201DFFF7EAFCA06A18B104F1180068
:103C6000FFF7E4FC94F82C10012088401F490968F4
:103C700008431E490860E16A01EB81011C4A02EB1E
:103C80008100211DFFF710FD1A49E06A0968C96A21
:103C90008842C7D34FF00108C4E700BF1548006849
:103CA000C06A00EB8000124951F82000012801D9B8
:103CB0004FF001081048006808B14FF0010805E016
:103CC000FFE70E480068401C0C4908604046BDE80C
:103CD000F08100005400002030000020200000206F
:103CE00024000020440000204C000020340000206C
:103CF000981200201C000020400000203C00002002
:103D000070B5002400263648006850B900BF502026
:103D100080F31188BFF34F8FBFF36F8F00BF00BFD9
:103D2000FEE7FFF7CDFC2E480068401E2C490860D6
:103D30000846006800284FD12A48006800284BD068
:103D400024E02948C068C46804F11800FFF76EFC3D
:103D5000201DFFF76BFC94F82C10012088402349AC
:103D60000968084321490860E16A01EB8101204AA2
:103D700002EB8100211DFFF797FC1E49E06A0968EC
:103D8000C96A884202D301201B49086016480068AE
:103D900008B9012000E000200028D2D00CB1FFF7C4
:103DA000E9FA1648056865B100BFFFF705FF10B1D5
:103DB0000120114908606D1E002DF6D100200F4929
:103DC00008600D48006838B1012630070C490860CA
:103DD000BFF34F8FBFF36F8FFFF79CFC304670BD72
:103DE000540000202C0000204C1300203400002040
:103DF000981200201C000020400000203C00002001
:103E000004ED00E04FF04070E1EE100A7047000052
:103E1000A83E000859230008000000000000000030
:103E200080000000983E00081D2F000800000000E0
:103E30000000000080000000903E0008712A000889
:103E400000000000000000008000000000000000F2
:103E5000000000000102030406070809000000003A
:103E600001020304CDCCCC3D0000E1430000000082
:103E7000000000000000F042000000000000C04010
:103E8000FFFFFFFFFFFFFFFFFFFFFFFFFFFFFFFF42
:103E90006164635461736B006D61696E636F6E740E
:103EA000726F6C5461736B0064656661756C7454F9
:103EB00061736B00D43E0008000000200012000077
:103EC00014020008D445000800120020601500000C
:103ED00078020008D2000112100422010900045ADD
:103EE00024F4000112AA010110164316430412170C
:103EF00004121804121904121A04121B04121C04CE
:103F0000121D04121E04121F041220041221041296
:103F10002204122304122404522504122604122718
:103F200004122804122904122A04122B04122C044D
:103F3000122D04122E04122F041230041231041216
:103F40003204523304123404123504123604123788
:103F500004123804123904123A04123B04123C04CD
:103F6000123D04523E04123F041240041241041256
:103F700042041243041244041245041246045247F8
:103F800004124804124904124A04124B04124C044D
:103F9000124D04524E04124F0412500412510412D6
:103FA0005204125304125404525504125604125768
:103FB00004125804125904525A04125B04125C048D
:103FC000125D04125E04525F041260041261041256
:103FD0006204526304126404126504126604526798
:103FE00004126804126904126A04526B04126C040D
:103FF000126D04526E04126F041270045271041296
:104000007204127304527404127504127604527707
:1040100004127804527904127A04527B04127C044C
:10402000127D04527E04127F0442800422800842E2
:1040300081045280041300820C51041300830C513C
:104040000443008404228008428504528004130043
:10405000860C5104430087045280044300880422E4
:10406000800842890452800443008A045280044339
:10407000008B0452800483008C0452800443008D22
:104080000452800483008E0452800483008F045203
:104090008004830090049280048300910492800441
:1040A000C3009204928004C30093040211800403AD
:1040B0001000940402118004031C00950402458042
:1040C00004034900964C011EB40112E805121005C4
:1040D0001238E55CA578E594A5B0A5C8A5E0A5F8DB
:1040E000690CA9206934A948695C696C697CA9904C
:1040F00069A469B469C469D469E469F49E880C034D
:104100006D1C036D2C036D3C039E8654036D64038C
:104110009E847C036D8C039E83A4039E82BC036DEE
:10412000CC038E80E4033DF0036DFC035E7D100440
:104130006D1C049E7A34049E784C045E7660046D97
:104140006C045E7380046D8C045E70A0046DAC041E
:104150005E6DC0046DCC045E6AE0049E68F4045E8B
:104160006608059E641C055E6230059E6044055E1F
:104170005E58055E5C68056D74055E5988055E577E
:1041800098056DA4055E54B8055E52C8055E50D80A
:10419000056DE4055E4DF8055E4B08065E491806A0
:1041A0006D24065E4638065E4448065E4258065E4A
:1041B0004068066D74065E3D88065E3B98065E3973
:1041C000A8065E37B8065E35C8066DD4065E32E8CE
:1041D000065E30F8065E2E08075E2C18075E2A2859
:1041E000075E2838079E264C075E2460075E227013
:1041F000075E2080075E1E90075E1CA0075E1AB057
:10420000075E18C0076DCC071215041214041213B0
:1042100004121204121104121004120F04120E04DC
:10422000120D04120C04120B04120A0412090412D7
:1042300008041207045206041205041204041203AF
:10424000041202041201041E0048041006FE42007B
:1042500000FC0412FA0412F80412F60412F4041218
:10426000F20452F00412EE0412EC0412EA0412E812
:104270000412E60412E40412E20412E00412DE0462
:1042800012DC0452DA0412D80412D60412D4041236
:10429000D20412D00412CE0412CC0412CA0452C8A2
:1042A0000412C60412C40412C20412C00412BE04D2
:1042B00012BC0452BA0412B80412B60412B40412A6
:1042C000B20412B00412AE0452AC0412AA0412A832
:1042D0000412A60412A40452A20412A004129E0402
:1042E000129C04129A045298041296041294041216
:1042F0009204529004128E04128C04128A04528882
:1043000004128604128404128204528004127C0473
:10431000127804527404127004126C04526804126D
:104320006404126004525C04125804125404525083
:1043300004124C04524804124404524004123C0437
:10434000123804523404123004522C04122804523D
:104350002404522004121C04521804121404521093
:1043600004520C0412080452040452000417F841C9
:10437000C8510452E80452E00452D80412D0045246
:10438000C80452C00452B80452B00452A80452A047
:10439000049298045290045288045280049270044B
:1043A00052600492500452400492300492200492CD
:1043B0001004920004C3E0400492C004D2A004029E
:1043C0001180040211400402110004031C803F0408
:1043D000019201011FB40111E8051210051238E520
:1043E0005CA578E594A5B0A5C8A5E0A5F8690CA9D9
:1043F000206934A948695C696C697CA99069A469E1
:10440000B469C469D469E469F49ED00C036D1C03DB
:104410006D2C036D3C032D48036D54036D64039EA6
:10442000087C036D8C039E14A4039E1CBC036DCCFE
:10443000039E28E4039E30FC035E3810046D1C04C8
:104440009E4434049E4C4C045E5460046D6C045EC7
:104450006080046D8C045E6CA0046DAC045E78C05A
:10446000046DCC045E82E0049E86F4045E8A080536
:104470009E8E1C055E9230059E9644055E9A5805F8
:104480005E9E68056D74055EA488055EA898056D3E
:10449000A4055EAEB8055EB2C8055EB6D8056DE48B
:1044A000055EBCF8055EC008065EC418066D2406ED
:1044B0005ECA38065ECE48065ED258065ED66806EC
:1044C0006D74065EDC88065EE098065EE4A8065E13
:1044D000E8B8065EECC8066DD4065EF2E8065EF645
:1044E000F8065EFA08072D10075E0020075E02300E
:1044F000075E0440076D4C075E0760075E097007A2
:104500005E0B80075E0D90075E0FA0075E11B0077F
:104510005E13C0075E159C0F5E1F580F5E32100FB2
:104520005E44C80E5E55800E5E66340E4E75F00D0C
:104530003DCC0D5E84800D5E8A3C0D5E8EF00C5E7F
:1045400092B00C8E94600C6D1C0C7DBC0B5E936065
:104550000B5E90200B5E8CD40A5287585E81480A0D
:104560005E75000A5E66B8095E5570095E442809EA
:104570005E32E0085E1F9808560C205EF208085E66
:10458000CEC0075EAC78075E8A2C075E58E8065EF0
:104590002030035EE058065E9010065E20D0059E37
:1045A000807405EDD0045E00800421285E20140490
:1045B0005E90CC0321505E0864035E3C1C035A7479
:1045C000D45A9A885ABC445EE0DC085203C00140C9
:0445D00001000000E6
:04000005080001D915
:00000001FF
