:020000040800F2
:1000000010240020810300086F1A0008CD17000893
:100010006D1A0008EB0400085F20000800000000D3
:10002000000000000000000000000000C102000805
:10003000ED040008000000001D030008791A000804
:100040009B0300089B0300089B0300089B03000818
:100050009B0300089B0300089B0300089B03000808
:100060009B0300089B0300089B0300089B030008F8
:100070009B0300089B0300089B0300089B030008E8
:100080009B030008000000009B0300089B0300087E
:100090009B0300089B0300089B0300089B030008C8
:1000A0009B0300080D1B00089B0300089B0300082E
:1000B0009B0300087D1B00089B0300089B030008AE
:1000C0009B0300089B0300089B0300089B03000898
:1000D0009B0300089B0300089B0300089B03000888
:1000E0009B0300089B0300089B0300089B03000878
:1000F0009B0300089B0300089B030008000000000E
:10010000000000009B030008000000009B030008A3
:100110009B030008000000009B0300089B030008ED
:100120009B0300089B0300089B0300089B03000837
:100130009B03000800000000000000009B03000873
:100140009B0300089B030008000000000000000063
:10015000000000000000000000000000000000009F
:100160000000000000000000000000009B030008E9
:100170009B030008000000000000000000000000D9
:10018000000000009B0300080000000000000000C9
:10019000000000000000000000000000000000005F
:1001A00000000000000000009B0300089B03000803
:1001B0009B0300089B0300089B030008000000004D
:1001C000000000009B030008000000000000000089
:1001D0009B0300089B03000800F002F800F060F8A1
:1001E0000AA090E8000C82448344AAF10107DA4592
:1001F00001D100F055F8AFF2090EBAE80F0013F084
:10020000010F18BFFB1A43F00103184768290000CB
:100210008829000010F8013B0A4413F0030408BFCA
:1002200010F8014B1D1108BF10F8015B641E05D0CA
:1002300010F8016B641E01F8016BF9D1002D15D087
:1002400010F8014B03F00C030C2BA1EB04040ABFC4
:1002500010F8013BA4EB8314A4EB032405F1010384
:1002600014F8016B5B1E01F8016BF9D5914238BFA0
:1002700010F8013BD1D3704700230024002500264D
:10028000103A28BF78C1FBD8520728BF30C148BFF9
:100290000B6070471FB502F041FC1FBD10B510BDCB
:1002A00000F0EAF81146FFF7F5FF01F0E9FE00F073
:1002B00008F903B4FFF7F2FF03BC00F00FF90000E8
:1002C0002C4B19680868B0E8F04F80F30988BFF339
:1002D0006F8F4FF0000080F311887047000000001E
:1002E00008480068006880F308884FF0000080F339
:1002F000148862B661B6BFF34F8FBFF36F8F00DF14
:1003000000BF00BF08ED00E0DFF80C00016841F419
:1003100070010160704700BF88ED00E0EFF30980D5
:10032000BFF36F8F134B1A681EF0100F08BF20ED3C
:10033000108A20E9F04F106009B44FF0500080F3AC
:100340001188BFF34F8FBFF36F8F02F027FA4FF082
:10035000000080F3118809BC19680868B0E8F04F04
:100360001EF0100F08BFB0EC108A80F30988BFF3AD
:100370006F8F704718000020EFF305807047000072
:100380000948804709480047FEE7FEE7FEE7FEE729
:10039000FEE7FEE7FEE7FEE7FEE7FEE70448054965
:1003A000054A064B70470000FD1A0008D9010008F5
:1003B000101E0020102400201020002010200020FB
:1003C00010B5203AC0F00B80B1E81850203AA0E8F0
:1003D0001850B1E81850A0E81850BFF4F5AF5FEA24
:1003E000027C24BFB1E81850A0E8185044BF18C9D7
:1003F00018C0BDE810405FEA827C24BF51F8043B7E
:1004000040F8043B08BF7047D20728BF31F8023BD1
:1004100048BF11F8012B28BF20F8023B48BF00F865
:10042000012B70474FF0000200B5134694469646E4
:10043000203922BFA0E80C50A0E80C50B1F12001F7
:10044000BFF4F7AF090728BFA0E80C5048BF0CC0A5
:100450005DF804EB890028BF40F8042B08BF704703
:1004600048BF20F8022B11F0804F18BF00F8012B75
:100470007047704770477047754600F02BF8AE46DE
:1004800005006946534620F00700854618B020B5A0
:10049000FFF784FFBDE820404FF000064FF0000753
:1004A0004FF000084FF0000B21F00701AC46ACE81C
:1004B000C009ACE8C009ACE8C009ACE8C0098D4689
:1004C000704710B50446AFF300802046BDE81040E9
:1004D000FFF7EFBE00487047B01D0020014918200B
:1004E000ABBEFEE7260002007047FEE7704772B61B
:1004F000FEE700002DE9F04FDFF8209200230126EF
:100500000324A9F1040B85B00F2709F1040AABF10C
:10051000040EFAE006FA03F52A407CD091F804C0F4
:100520000CF0030CBCF1010F02D0BCF1020F26D17C
:10053000D0F808C0CDF800C04FEA430C04FA0CF81C
:10054000CDF810C0DDF800C02CEA080CCDF800C0D2
:10055000D1F80C80DDF810C008FA0CF8DDF800C006
:1005600048EA0C08C0F80880D0F804C02CEA050C52
:100570000D79C5F300159D4045EA0C0545600D79E0
:10058000ED43AD070ED0C5684FEA430804FA08FCF6
:1005900025EA0C05D1F808C00CFA08FC4CEA050C59
:1005A000C0F80CC00D7905F00305022D16D1DD0849
:1005B00000EB850CCDF808C0DCF820805D074FEA21
:1005C000D56C07FA0CF528EA05080D6905FA0CF553
:1005D000DDF808C045EA0805CCF8205005684FEA68
:1005E000430CCDF808C004FA0CFC25EA0C0591F880
:1005F00004C00CF00308DDF808C008FA0CF848EA5B
:100600000508C0F800804D6815F4403F7CD0444D8B
:10061000D5F860C000E077E04CF0010CC5F860C090
:100620002D6E23F0030C05F0010500953D4D65444A
:100630000295AD684FEA837C4FEA1C7807FA08FC04
:1006400025EA0C05B0F1904F06D0DFF8DCC060451C
:1006500005D14FF0010C20E04FF0000C1DE0DFF859
:10066000CCC0604502D14FF0020C16E0DFF8C0C0EC
:10067000604502D14FF0030C0FE0DFF8B8C06045D1
:1006800002D14FF0040C08E0DFF8ACC0604502D1A5
:100690004FF0050C01E04FF0060C0CFA08FC4CEA98
:1006A000050C029DC5F808C0D9F80050CC46D1F819
:1006B000048095435FEAC82800D51543CCF8005064
:1006C000DAF80050D446D1F8048095435FEA8828D0
:1006D00000D51543CCF80050DBF80050DC46D1F8CB
:1006E000048095435FEA883800D51543CCF8005064
:1006F000DEF80050F446D1F8048095435FEAC8382C
:1007000000D51543CCF800505B1C0A6832FA03F59B
:100710007FF400AF05B0BDE8F08F00000804014091
:10072000001002400000014000040048000800489A
:10073000000C004800100048001400480AB1816114
:100740007047816270470000014880687047000070
:1007500008000020024881684268114481607047A7
:100760000800002010B50024032000F079F80F20C5
:1007700000F008F808B1012401E000F025F8204657
:1007800010BD000070B50E4E05460024706898B18B
:100790004FF47A71B1FBF0F00A490968B1FBF0F04F
:1007A00000F0FCFB40B9102D06D200222946501E55
:1007B00000F036F8356000E00124204670BD0000EE
:1007C00008000020140000200D4808B5016E41F01B
:1007D00001010166016E01F001010091816D41F09E
:1007E00080518165806D002200F0805000900F21C3
:1007F000901E00F015F8BDE8084000F0A1B8000018
:1008000000100240002809DB00F01F020121914086
:100810004009800000F1E020C0F80011704700009E
:10082000F0B40E4B1B680C46C3F30223C3F107055B
:10083000042D00D90425191D072901D2002300E049
:10084000DB1E012606FA05F1491E214099409E4013
:10085000761E16403143F0BC01F002BC0CED00E006
:10086000064900F0070208684FF6FF03184040EA07
:100870000220034A10430860704700000CED00E0BE
:100880000000FA052B492C4B0A6832214A432B49B8
:1008900040B1B0F5007F086829D020F4C06040F472
:1008A00080602CE00868C0F34120022804D051F891
:1008B000800F20F4807022E0D1F8800020F4807056
:1008C000C1F88000086820F4C06040F4007008603F
:1008D000B2FBF3F0401C00E0401E4A69520501D50E
:1008E0000028F9D1486940050AD503207047C0F3B4
:1008F0004120022806D051F8800F40F48070086033
:1009000000207047D1F8800040F48070C1F880006A
:10091000086820F4C06040F400700860B2FBF3F097
:10092000401C00E0401E4A695205DBD50028F9D181
:10093000D8E700001400002040420F000070004083
:100940000248816841F48041816070470070004036
:100950002DE9F0470E4605004FF0000725D0DFF8DF
:10096000AC81D8F8000000F00F00B0420CD2D8F8EB
:10097000001021F00F013143C8F80010D8F8000032
:1009800000F00F00B04210D12968614CC80741F255
:10099000883A5AD06868DFF87C91032808D002288A
:1009A00020682DD0400500282CDB0120BDE8F08711
:1009B00020688001F9D5E06800F00302E068C0F328
:1009C0000310401C032A19D0534A00BFB2FBF0F0B9
:1009D000E268C2F306225043E268C2F34162521C4D
:1009E0005200B0FBF2F0484517D9A06810F0F00FA4
:1009F0000CD0880711D5A86840B10EE0474AE5E75A
:100A00008003D0E700F092F8484506D9A06820F0AE
:100A1000F00040F08000A0608027A068696820F0A6
:100A200003000843A060FFF78FFE814606E000BF89
:100A3000FFF78AFEA0EB090151453AD8A068696822
:100A400000F00C00B0EB810FF2D12868810714D5BB
:100A5000400703D5A06840F4E060A0602878000754
:100A600005D5A06820F4605040F4E060A060A06864
:100A7000A96820F0F000084304E0802F03D1A068AB
:100A800020F0F000A060D8F80010404601F00F01FF
:100A9000B14216D9016821F00F0131430160FFF71F
:100AA00053FE074607E000BFFFF74EFEC11B51454E
:100AB00001D903207AE7D8F8000000F00F00B04217
:100AC000F2D12878400705D5A068E96820F4E060F5
:100AD0000843A0602878000706D5A068296920F49B
:100AE000605040EAC100A06000F020F8A1680C4A04
:100AF000C1F30311515C01F01F01C84009490860AE
:100B000009480068BDE8F047FFF73CBE00200240FE
:100B10000010024000B4C4040024F40000127A0063
:100B2000502B00081400002008000020184910B5C0
:100B30008868C0F381021748012A0BD08A684310E5
:100B4000C2F38102022A06D08A68C2F38102032A14
:100B500003D0002010BD184610BDCA6802F003047F
:100B6000CA68C2F30312521C032C02D0B0FBF2F08D
:100B700001E0B3FBF2F0CA68C968C2F30622504331
:100B8000C1F34161491C4900B0FBF1F010BD000008
:100B9000001002400024F4002DE9F84304007AD04C
:100BA0002078F84DC00747D0A868E96800F00C002D
:100BB00001F003010C2802D0082817D001E0032916
:100BC00014D06068B0F5803F17D0B0F5A02F28682A
:100BD00017D020F480302860286820F48020286016
:100BE0006068E0B1FFF7B0FD064614E028688003B6
:100BF00022D560680028D2D01EE0286840F48030FA
:100C0000EDE740F480202860F7E700BFFFF79CFD88
:100C1000801B642870D828688003F7D50CE0FFF7A4
:100C200093FD064605E000BFFFF78EFD801B64289C
:100C3000F0D828688003F7D4207880074CD5A868BE
:100C4000E96800F00C0001F003010C2802D0042830
:100C50000DD001E002290AD0E068002828682BD0D6
:100C600040F480702860FFF76FFD064619E02868A1
:100C7000400502D5E068002891D06868217C20F00A
:100C8000FE4040EA01606860BF480068FFF77AFDF7
:100C9000002800D120E072E1FFF756FD801B0228FA
:100CA000B8D828684005F7D56868217C20F0FE4058
:100CB00040EA016068600FE020F480702860FFF770
:100CC00043FD064605E000BFFFF73EFD801B0228FE
:100CD000A0D828684005F7D42078000729D5606996
:100CE0000028D5F8940013D040F00100C5F8940016
:100CF000FFF72AFD064606E090E000BFFFF724FD5F
:100D0000801B022886D8D5F894008007F6D510E01D
:100D100020F00100C5F89400FFF716FD064604E038
:100D2000FFF712FD801B022878D8D5F894008007C1
:100D3000F6D42078400761D5A86D0026C00008D4FD
:100D4000A86D40F08050A865A86D012600F0805085
:100D500000908E480168C90511D40168804641F4AD
:100D600080710160FFF7F0FC074604E0FFF7ECFC40
:100D7000C01B022852D8D8F80000C005F6D5A068DC
:100D8000012815D00528D5F8900016D020F00100D4
:100D9000C5F89000D5F8900020F00400C5F8900048
:100DA000A06841F28838B8B1FFF7CEFC07460EE0E4
:100DB000D5F8900040F00100F0E740F00400C5F8DD
:100DC0009000F5E7FFF7C0FCC11B414526D8D5F8D8
:100DD00090008007F6D50CE0FFF7B6FC074604E06C
:100DE000FFF7B2FCC11B414518D8D5F89000800729
:100DF000F6D41EB1A86D20F08050A865207880063A
:100E000029D5A0690028D5F8980013D040F001003A
:100E1000C5F89800FFF798FC064606E075E000BFAD
:100E2000FFF792FC801B02286FD8D5F89800800746
:100E3000F6D510E020F00100C5F89800FFF784FC1B
:100E4000064604E0FFF780FC801B02285DD8D5F839
:100E500098008007F6D4E069F0B3A968C1F3810176
:100E600003295DD00228286820F08070286003D014
:100E7000FFF76AFC04464BE0FFF766FC064604E019
:100E8000FFF762FC801B02283FD828688001F7D456
:100E9000F4E908016FF00F0202EB01110843218A07
:100EA0005204490802EB4151A26841EA0221084379
:100EB000217D4FF07E42490802EB41610843217BCE
:100EC00040EAC160E968324A11400843E860286896
:100ED00040F08070286000E05EE0E86840F08070DC
:100EE000E860FFF731FC044605E000BFFFF72CFC8B
:100EF000001B022809D828688001F7D54CE000BF04
:100F0000FFF722FC001B022802D90320BDE8F8836A
:100F100028688001F4D4E8681E490840E8603BE096
:100F20000128F3D0E868226A00F00301914226D13B
:100F3000616A00F0F0020901103991421FD1A26AE2
:100F400000F4FE41B1EB022F19D194F82C2000F0EF
:100F50007841B1EBC26F12D1218E00F4C002490872
:100F60004905A1F50011914209D194F8341000F01F
:100F7000C06049084906A1F1007181420CD00120EE
:100F8000C4E700000010024008000020007000408C
:100F90000C809F01FCFFEEFE0020B7E710B5401E5D
:100FA000B0F1807F01D3012010BD4FF0E0246061DB
:100FB0000F21601701F054F80020A0610720206184
:100FC000002010BD704770477047000030B590F8A2
:100FD0003C20012A42D0012280F83C20CA688B685C
:100FE00022F440721A434B6822F480621A430B6861
:100FF00022F400621A430B6922F480521A434B69AF
:1010000022F400521A430B6B22F480421A430B8BDA
:1010100022F4702242EA0342CB6922F080521A4342
:101020000F4D03680024AB4202D00E4DAB4210D1ED
:101030000D8D22F4700242EA05520D6A22F0807290
:101040002A434D6A22F000722A43C96A22F00052F4
:101050000A435A6480F83C40002030BD022030BD75
:10106000002C014000340140704770477047000079
:10107000F0B590F83C20012A3AD0012580F83C5088
:10108000022280F83D2003685A689C68194E1A4F66
:10109000B34201D0BB4204D122F4700C4A6842EA48
:1010A0000C02DFF858C002EA0C02D1F800C04CEA8A
:1010B000020CC3F804C00268B2420DD0B2F1804FF6
:1010C0000AD00F4B9A4207D00E4B9A4204D0BA4234
:1010D00002D00D4B9A4204D1896824F08003194351
:1010E000916080F83D50002180F83C100846F0BD2A
:1010F0000220F0BD002C0140003401408FFFFFFDB5
:10110000000400400008004000400140704710B556
:10111000040003D094F83D0010B107E0012010BD99
:10112000002084F83C00204600F022F8022084F8D9
:101130003D00211D206800F059FD012084F8480081
:1011400084F83E0084F83F0084F8400084F84100B1
:1011500084F8420084F8430084F8440084F8450091
:1011600084F8460084F8470084F83D00002010BD54
:1011700008B5154A0168154891420ED1016E41F437
:1011800000610166006E002200F4006000900521FD
:101190001920FFF745FB192010E00D4A914211D1AB
:1011A000816D41F002018165806D002200F0020036
:1011B000009005211D20FFF733FB1D20BDE80840EE
:1011C000FFF720BB08BD0000002C014000100240CA
:1011D0000004004070B5044690F83C00002501284A
:1011E00014D0012684F83C60022084F83D00226877
:1011F0009068364B184020F47F4090600868702853
:101200002ED010DC10F00F0F03D021E04FF00200C1
:1012100070BD4FEA2012072A1AD2DFE802F05252BC
:1012200052524A3840002A4BC21A984249D009DC2F
:10123000B0F5805F0DD0B0F5005F1CD0B0F1101F8D
:1012400006D13EE0102A3CD0202A3AD0502A38D08D
:10125000012584F83D60002084F83C00284670BDDC
:10126000CB68D1E90121206800F02BFD206881685E
:1012700041F0770109E0CB68D1E90121206800F055
:1012800020FD2068816841F480418160E1E7CA68FF
:101290004968206800F0C0FE5021206806E0CA6856
:1012A0004968206800F0C9FE6021206800F014FD44
:1012B000CFE7CA684968206800F0AEFE4021206888
:1012C000F4E7226801461046F0E7000088FFCEFFF1
:1012D0002000100070472DE9F04104460068C66800
:1012E00005694FF00007A90713D5B10711D5F91EFD
:1012F000016101202077206880698007204602D0A4
:10130000FFF7E8FF04E000F005F9204600F0C7F918
:101310002777680716D5700714D521686FF0040089
:101320000861022020772068806910F4407F204601
:1013300002D0FFF7CFFF04E000F0ECF8204600F009
:10134000AEF92777280715D5300713D521686FF038
:1013500008000861042020772068C06980072046C3
:1013600002D0FFF7B7FF04E000F0D4F8204600F009
:1013700096F92777E80616D5F00614D521686FF0A0
:1013800010000861082020772068C06910F4407FB1
:10139000204602D0FFF79EFF04E000F0BBF8204695
:1013A00000F07DF92777E80708D0F00706D021681C
:1013B0006FF001000861204600F006FA280601D40B
:1013C000A80408D5300606D521686FF402500861DC
:1013D0002046FFF7F8FDE80508D5300606D5216858
:1013E0006FF4807008612046FFF7ECFD680608D5B1
:1013F000700606D521686FF040000861204600F0B5
:10140000E4F9A80608D5B00606D521686FF02000DB
:1014100008612046FFF7D8FDE80208D5F00206D59E
:1014200021686FF4801008612046FFF71EFEA802B5
:1014300008D5B00206D521686FF400100861204677
:10144000FFF712FE680208D5700206D521686FF416
:10145000800008612046FFF709FE28020AD5300205
:1014600008D521686FF4000008612046BDE8F0410E
:10147000FFF74CBEBDE8F08130B587B004461421BB
:101480006846FEF7CFFF1E4A216800251D4802244A
:1014900091420DD1C16C41F00401C164C06C694638
:1014A00000F0040005900F208DE83100164821E07F
:1014B000164A914222D1C16C41F00101C164C16C54
:1014C00001F001010591C16C41F00201C164C06CE1
:1014D000694600F00200059050208DE83100CDE90A
:1014E00003544FF09040FFF705F803208DE83100DA
:1014F00007486946CDE90354FEF7FCFF07B030BD4D
:10150000002C014000100240000800480004004088
:1015100000040048704770B5044690F83C0000266F
:101520000D4601280BD0012084F83C000C2A4AD03B
:1015300007DC82B1042A20D0082A06D131E002203B
:1015400070BD102A53D0142A63D00126002084F8DD
:101550003C00304670BD206800F0C8FB20688169FF
:1015600041F0080181612068816921F004018161F5
:10157000206881692A69114311E0206800F004FCA9
:101580002068816941F4006181612068816921F4EA
:1015900080618161206881692A6941EA0221816153
:1015A000D4E7206800F038FC2068C16941F00801E8
:1015B000C1612068C16921F00401C1612068C1696D
:1015C0002A69114311E0206800F06EFC2068C169AF
:1015D00041F40061C1612068C16921F48061C16189
:1015E0002068C1692A6941EA0221C161AEE7206829
:1015F00000F0A2FC2068016D41F00801016520683F
:10160000016D21F0040101652068016D2A69114313
:1016100011E0206800F0C8FC2068016D41F4006111
:1016200001652068016D21F4806101652068016D0C
:101630002A6941EA0221016588E710B5040003D058
:1016400094F83D0010B107E0012010BD002084F89F
:101650003C00204600F022F8022084F83D00211DC5
:10166000206800F0C3FA012084F8480084F83E00A6
:1016700084F83F0084F8400084F8410084F8420078
:1016800084F8430084F8440084F8450084F8460058
:1016900084F8470084F83D00002010BD7047704773
:1016A00070B500250446022269B1042916D0082924
:1016B00055D00C295ED0102963D094F8430001283E
:1016C00066D0012070BD94F83E000128F9D184F85D
:1016D0003E202068C26842F0020209E094F83F0010
:1016E0000128EED184F83F202068C26842F004024D
:1016F000C2600122206800F0D7FA2B4920682B4AEB
:101700002B4B884209D0904207D0984205D0294EF1
:10171000B04202D0284EB04203D1466C46F4004697
:101720004664206888420CD0B0F1804F09D023492C
:10173000884206D02249884203D0904201D0984284
:1017400007D181681F4A1140062906D0B1F5803FB4
:1017500003D0016841F001010160284670BD94F892
:1017600040000128ADD184F840202068C26842F0D2
:101770000802BDE794F841000128A2D184F8412075
:1017800008E094F8420001289BD184F8422003E04D
:1017900084F843200C2901D00125DEE72068C268C7
:1017A00042F01002A4E70000002C01400034014088
:1017B0000040014000440140004801400004004056
:1017C000000800400700010070477047FEE7000076
:1017D00010B58AB014220B496846FEF7F1FD0021CE
:1017E000684600F083FC084C06491422206014313E
:1017F00005A8FEF7E5FD002105A800F077FC606074
:101800000AB010BD282B00080000002030B587B0BA
:1018100014216846FEF706FE1A48C16C41F0040127
:10182000C164C16C01F004010591C16C41F020015B
:10183000C164C16C01F020010591C16C41F001014E
:10184000C164C16C01F001010591C16C41F002015C
:10185000C164C06C0C4D00F002004FF400540590C0
:10186000002221462846FEF769FF0120002100944E
:10187000CDE90101039169462846FEF73BFE07B01A
:1018800030BD0000001002400008004810B59CB0B8
:10189000002419941A9417941894149415941C21E4
:1018A00068461694FEF7BEFD342107A8FEF7BAFD80
:1018B00039483849016040F22B11C0E9011409216F
:1018C000C0E9031444618461FFF721FC08B1FEF70D
:1018D0000EFE4FF48050179017A92F48FFF77AFC9F
:1018E00008B1FEF704FE2C48FFF7A7FE08B1FEF78B
:1018F000FEFD1494159414A927481694FFF7B8FB1D
:1019000008B1FEF7F4FD602000904FF4FA60CDE9D5
:101910000104039404940594002269461E48069429
:10192000FFF7F9FD08B1FEF7E2FD042269461A4807
:10193000FFF7F1FD08B1FEF7DAFD08226946164807
:10194000FFF7E9FD08B1FEF7D2FD0C226946124807
:10195000FFF7E1FD08B1FEF7CAFD0794089409946A
:101960004FF400500A94CDE90B400D9400030E94FF
:10197000CDE90F401194129407A907481394FFF77B
:1019800025FB08B1FEF7B3FD0348FFF775FD1CB05A
:1019900010BD0000002C01402810002010B58EB0B2
:1019A00000240794089409940A940B940C941C2125
:1019B00068460D94FEF736FD2B482A490160022146
:1019C000C0E9011440F2E731C0E903148461FFF774
:1019D0009EFB08B1FEF78BFD4FF48050079007A9DE
:1019E0002148FFF7F7FB08B1FEF781FD1E48FFF71E
:1019F00024FE08B1FEF77BFD0B940BA91A480D9449
:101A0000FFF736FB08B1FEF772FD602000904FF43F
:101A1000FA60CDE901040022694613480494FFF7F7
:101A20007AFD08B1FEF763FD042269460E48FFF710
:101A300072FD08B1FEF75BFD082269460A48FFF710
:101A40006AFD08B1FEF753FD0C2269460648FFF710
:101A500062FD08B1FEF74BFD0348FFF70DFD0EB028
:101A600010BD00000004004074100020FEE7FEE7F7
:101A7000012000F02FFBFBE710B5FEF76BFE00F036
:101A800077FF012803D0BDE8104000F02FBF10BD44
:101A900000B593B038216846FEF7C4FC14210EA8A7
:101AA000FEF7C0FC4FF40070FEF7ECFE0220C1010F
:101AB0000391402104910421CDE9080100904B21BC
:101AC000CDE90A1007900C900D906846FFF764F876
:101AD00008B172B6FEE70F200E9003200F90002091
:101AE00010901190129004210EA8FEF731FF0028EB
:101AF00001D072B6FEE713B000BD000002480168D5
:101B000041F470010160704788ED00E0174930B47E
:101B1000A1F10800B2EE040A026801EB8201154A45
:101B2000D1ED000A146820EE801ADFED110AC1EE33
:101B3000201ABCEEE11A11EE103A636391ED001A1F
:101B4000126821EE000A80EE201ABCEEC10A10EEE7
:101B5000101A916341680A2901DB012100E0491C48
:101B6000416030BC0448FFF7B6BB0000880000208D
:101B7000000096437410002028100020174A30B44B
:101B8000A2F108009FED160A016802EB8103164AD4
:101B9000D3ED000A156820EE801ADFED120AC1EEBF
:101BA000201ABCEEE11A11EE104A6C6393ED001A94
:101BB000126821EE000A80EE201ABCEEC10A10EE77
:101BC000103A9363B1F57A7F01DB012100E0491CF3
:101BD000016030BC0448FFF77EBB00008800002095
:101BE00000007A4400009643741000202DE9F04371
:101BF0000268264B264D274E274C4FF080499842CD
:101C000007D0484505D0A84203D0B04201D0A04239
:101C100003D122F070074A683A43204FDFF880C0B2
:101C2000DFF8808098420DD048450BD0A84209D0FB
:101C3000B04207D0A04205D0B84203D0604501D0E1
:101C4000404503D122F44075CA682A434D6922F009
:101C500080022A4302608A68C2620A6882629842ED
:101C600007D0A04205D0B84203D0604501D040451E
:101C700001D109690163012141610169C90703D0EB
:101C8000016921F001010161BDE8F083002C0140F0
:101C900000040040000800400034014000400140C2
:101CA000004401400048014010B501F01F0301212C
:101CB000046A99408C430462016A9A4011430162AC
:101CC00010BD10B5846842EA032224F47F440A431D
:101CD0002243826010BD00008268034B1A400A4311
:101CE00042F00701816070478FFFCFFF2DE9F0437D
:101CF000056A026A22F001020262436882691C4C92
:101D000025F0020522400C6822F0030214438A6881
:101D1000194E2A43174D194FDFF864C0DFF864905D
:101D2000A84207D0B04205D0B84203D0604501D0E8
:101D3000484506D122F00808CA6842EA080222F0A3
:101D40000402A84207D0B04205D0B84203D0604593
:101D500001D0484505D14D6923F440731D438B697B
:101D60002B4343608461496841630262BDE8F083AC
:101D70008FFFFEFF002C0140003401400040014075
:101D80000044014000480140F0B5056A026A22F0B3
:101D90001002026242688369194C1B4E23400C6892
:101DA00023F4407343EA042425F020038D6843EABA
:101DB0000513144DA84201D0B04206D1CF6823F0DC
:101DC000800343EA071323F04003A8420AD0B0423D
:101DD00008D00E4DA84205D00D4DA84202D00D4DA1
:101DE000A84207D14D6922F4406242EA85028D691A
:101DF00042EA850242608461496881630362F0BD02
:101E0000FF8FFFFE002C01400034014000400140E4
:101E10000044014000480140F0B5056A026A22F41E
:101E2000807202624368C269194C1B4E22400C68E2
:101E300022F00302144325F400728D6842EA052261
:101E4000144DA84201D0B04206D1CF6822F40062FE
:101E500042EA072222F48062A8420AD0B04208D0A7
:101E60000E4DA84205D00E4DA84202D00D4DA842FD
:101E700007D14D6923F4405343EA05138D6943EAC2
:101E800005134360C4614968C1630262F0BD00008C
:101E90008FFFFEFF002C0140003401400040014054
:101EA0000044014000480140F0B5056A026A22F48E
:101EB000805202624268C369194C1B4E23400C6871
:101EC00023F4407343EA042425F400538D6843EA65
:101ED0000533144DA84201D0B04206D1CF6823F497
:101EE000004343EA073323F48043A8420AD0B042B8
:101EF00008D00E4DA84205D00D4DA84202D00D4D80
:101F0000A84207D14D6922F4404242EA85128D6908
:101F100042EA85124260C461496801640362F0BD0F
:101F2000FF8FFFFE002C01400034014000400140C3
:101F3000004401400048014030B5056A026A22F4BD
:101F4000803202624268036D114C23400C681C43CE
:101F500025F400330D8943EA05430E4DA8420BD00A
:101F60000D4DA84208D00D4DA84205D00C4DA842F9
:101F700002D00C4DA84204D14D6922F4803242EACD
:101F800005224260046549688164036230BD000037
:101F90008FFFFEFF002C0140003401400040014053
:101FA000004401400048014030B5046A026A22F44E
:101FB000801202624268036D114D24F400142B401C
:101FC0000D6843EA05230D8944EA05540D4DA842E6
:101FD0000BD00D4DA84208D00C4DA84205D00C4D99
:101FE000A84202D00B4DA84204D14D6922F48022B0
:101FF00042EA8522426003654968C164046230BDDB
:10200000FF8FFFFE002C01400034014000400140E2
:10201000004401400048014010B5036A046A24F0FE
:1020200001040462846924F0F00444EA021423F0F9
:102030000A020A438461026210BD10B5036A046A91
:1020400024F010040462846923F0A00324F4704493
:1020500044EA023243EA01118261016210BDFEE7E7
:102060000907090E002804DB00F1E02080F80014C5
:10207000704700F00F0000F1E02080F8141D704759
:10208000FEF770FBFFF704FDFFF7C0FBFFF786FCD0
:10209000FFF7FCFB00210A48FFF702FB0421084878
:1020A000FFF7FEFA00210748FFF7FAFA0421054876
:1020B000FFF7F6FAFFF78CFB00F013F8FEE70000DD
:1020C000281000207410002001460020842900D030
:1020D000C81C704710B500B9012000F0FDFA0020BF
:1020E00010BD10B500F01EFB002010BD3EB504462B
:1020F0000D46B0F90800FFF7E7FF02A9CDE900019E
:10210000208A2B4682B2D4E9001000F005FC012899
:1021100001D000203EBD02983EBD00002DE9F041F7
:10212000184C0F460546E6682068001D00F016FAB8
:1021300038B9206890F82C1001208840216981432B
:102140002161681C07D137B12168BDE8F0410E4814
:10215000091D00F03CBA20683544B542456021684D
:1021600005D2A06BBDE8F041091D00F018BA606B04
:10217000091D00F014FAA06A854200D2A562BDE8EC
:10218000F0810000180000209C1100202DE9F04192
:10219000054600F029FA2E4CA068401CA06020687B
:1021A0002C4F10B1606940B32DE02560A068012874
:1021B00029D1002606EB860007EB800000F0E1F94C
:1021C000761C072EF6D323488C3000F0DAF921482C
:1021D000A03000F0D6F91F48B43000F0D2F91D4805
:1021E000C83000F0CEF91B48DC3000F0CAF91948BD
:1021F0008C3060631430A06305E02068E96AC06A2F
:10220000884200D82560606A401C6062E96A01204B
:10221000226988401043206101EB810007EB8000B8
:10222000291D00F0D4F900F0FFF9606900280CD0F6
:102230002068E96AC06A884207D207494FF0805097
:102240000860BFF34F8FBFF36F8FBDE8F0810000D0
:1022500018000020C010002004ED00E010B5044676
:10226000006B00F0F5F92046BDE8104000F0F0B931
:1022700010484FF44061420706D0C01D0D4920F0C0
:102280000700411AC1F540610B4A00230144C2E92D
:1022900000030839183A21F0070111604B600B6008
:1022A0000B1AC0E9001393604FF000405360506177
:1022B00070470000B01100206C000020144E154C37
:1022C000A6F1C8074FF08058DFF84C9012E000BF2D
:1022D00000F08AF9F068C568281D00F03FF9A06891
:1022E000401EA0606068401E606000F09DF92846B6
:1022F000FFF7B4FF60680028EAD138680128F9D9EF
:10230000C9F80080BFF34F8FBFF36F8FF2E7000073
:10231000881100201800002004ED00E02DE9F047AE
:102320009A46DDE9098481466FF00303206B03EBD5
:1023300082021044089E20F00707780707D050203B
:1023400080F31188BFF34F8FBFF36F8FFEE7002537
:1023500061B1002023180A5C83F834200A5C12B1B2
:10236000401C1028F6D384F8435001E084F8345020
:10237000072E00D30626E662C4E91165201D00F091
:102380000BF904F1180000F007F92461C6F1070009
:102390006462A061E56484F850505246494638466C
:1023A00000F0C6F82060B8F1000F01D0C8F8004076
:1023B000BDE8F08730B5114900E011460A68824255
:1023C000FBD34B685C18844203D1406818444860D2
:1023D000084643681C18944209D1084C183C2468EC
:1023E000A24209D052681A4442600A681268026028
:1023F000814200D0086030BD0460F9E76C00002025
:102400000648416B096829B1416BC968C9684968C8
:10241000816270474FF0FF31FAE70000180000209A
:1024200008484068401C4FF0500080F3118804D0E9
:10243000BFF34F8FBFF36F8FFEE7BFF34F8FBFF335
:102440006F8FFEE7740000202DE9F041054600275C
:1024500000F09CF9324E306808B9FFF709FF706947
:1024600005424ED1C5B3083568070ED005F0070008
:10247000C0F108000544680707D0502080F3118898
:10248000BFF34F8FBFF36F8FFEE72DB370688542A8
:1024900037D82348183001460C6801E020460C4626
:1024A0006168A94202D221680029F7D131688C42C3
:1024B00027D007682168016060680837411B102930
:1024C0000FD96019420708D0502080F31188BFF35C
:1024D0004F8FBFF36F8FFEE713E041606560FFF73A
:1024E00069FF61687068401A7060B268904200D2FB
:1024F000B060706901430020C4E90001F068401C2D
:10250000F06000F0A9FA780707D0502080F3118816
:10251000BFF34F8FBFF36F8FFEE73846BDE8F08102
:10252000540000205FF0C800FFF7D4FD0120FBE756
:1025300010B5031F4FF080741C601B1F21F00101B8
:102540001960191F044B0B6014390A60091F6FF0E2
:10255000020244380A6010BD21240008D0E901328B
:1025600001699A60D0E901235A604A68824201D128
:1025700082684A60002202610868401E086008689C
:10258000704700F108014FF0FF32C0E90112C1604D
:10259000016100210160704700210161704730B581
:1025A0000B685A1C02D000F1080202E0026904E044
:1025B0002246546825689D42FAD953684B60996059
:1025C0008A60516008610168491C016030BD426841
:1025D0004A6093688B6093685960916008610168F4
:1025E000491C016070470000502080F31188BFF340
:1025F0004F8FBFF36F8F0A494868401C486001281D
:102600000CD10848006810F0FF0F07D0502080F36D
:102610001188BFF34F8FBFF36F8FFEE77047000045
:102620007400002004ED00E00849486828B1401E0D
:10263000486001D180F311887047502080F31188E1
:10264000BFF34F8FBFF36F8FFEE7000074000020D1
:1026500070B500282AD0164DA0F108046068696999
:10266000084207D1502080F31188BFF34F8FBFF38A
:102670006F8FFEE722683AB1502080F31188BFF3D4
:102680004F8FBFF36F8FFEE78843606000F07EF8E6
:1026900060686968084468602046FFF78BFE286917
:1026A000401C2861BDE8704000F0D6B970BD000044
:1026B000540000204FF0E0200021016181610549B4
:1026C0004FF47A720968B1FBF2F1491E41610721AA
:1026D000016170471400002010B5020014D00F48AB
:1026E000006B38B1502080F31188BFF34F8FBFF3D8
:1026F0006F8FFEE700F04AF800211046FFF70EFD4D
:1027000000F0AAF9002807D105494FF08050086071
:10271000BFF34F8FBFF36F8F10BD00001800002074
:1027200004ED00E01CB515480024CDE90040234627
:10273000802213A1144800F0EFF8012809D0401CB2
:102740001AD1502080F31188BFF34F8FBFF36F8FE2
:10275000FEE7502080F31188BFF34F8FBFF36F8FD8
:1027600006484FF0FF312C38816201214161C4607D
:10277000BDE81C4000F040B81CBD00004400002033
:1027800049444C4500000000BD2200080248016B8E
:10279000491C016370470000180000201448016BB9
:1027A00011B10121C16170470021C1610169B1FA14
:1027B00081F1C1F11F0101EB81020E4951F8223074
:1027C0006BB101EB820101F108034A6852684A606B
:1027D0009A4201D152684A60D16801607047502026
:1027E00080F31188BFF34F8FBFF36F8FFEE70000B8
:1027F00018000020C01000201CB537480168374A77
:10280000914207D1502080F31188BFF34F8FBFF35F
:102810006F8FFEE700683149491E884207D150207A
:1028200080F31188BFF34F8FBFF36F8FFEE72C4902
:1028300008780190FF20087008788DF800009DF856
:1028400000009DF8002000F0F000904207D05020DA
:1028500080F31188BFF34F8FBFF36F8FFEE79DF8B2
:102860000000204C00F0500020700720A06005E020
:102870009DF8002052008DF80020401E9DF8002099
:102880001206F5D4A060032807D0502080F31188E9
:10289000BFF34F8FBFF36F8FFEE74FF44070A06020
:1028A000019808700C482030016841F47001016003
:1028B000016841F070410160FFF7FCFE002060609C
:1028C000FDF722FD0848016841F040410160FDF735
:1028D00007FD00201CBD000000ED00E071C20F41AB
:1028E00000E400E07400002034EF00E010B5502058
:1028F00080F31188BFF34F8FBFF36F8F00F046F85E
:1029000018B104494FF080500860002080F311880E
:1029100010BD000004ED00E02DE9FF5F8346DDE916
:102920000E87994616468A469000FFF78DFD0500F2
:102930001AD05420FFF788FD040012D0256300212F
:10294000CDE90241CDE900874B4632465146584613
:10295000FFF7E4FC2046FFF719FC012004B0BDE8B6
:10296000F09F2846FFF774FE4FF0FF30F6E70000B7
:102970000548416919B1006B18B10020704701206A
:102980007047022070470000180000202DE9F04138
:102990002F4C0026206B28B1A069401CA061304656
:1029A000BDE8F081E5686D1CE56013D1606B0068DF
:1029B00038B1502080F31188BFF34F8FBFF36F8F72
:1029C000FEE7606BA16B6163A063206A401C20621C
:1029D000FFF716FDA06ADFF87C80854209D3606BA3
:1029E0000068A0B1606BC068C7687868854211D282
:1029F000A0622068C06A00EB800158F8210001281D
:102A000000D90126E0690028C9D00126C7E74FF0A8
:102A1000FF30EDE7381DFFF7A1FDB86A18B107F1E7
:102A20001800FFF79BFDF96A0120226988401043D6
:102A3000206101EB810108EB8100391DFFF7C7FD23
:102A4000F86A2168C96A8842C9D30126C7E700002D
:102A500018000020C01000202DE9F0472C4D002464
:102A60002746286B38B1FFF7BFFD286B401E28634F
:102A7000286B40B146E0502080F31188BFF34F8FA0
:102A8000BFF36F8FFEE7A968224E0120D1B3A6F1F4
:102A9000B40980463068E8B1F068C46804F11800F1
:102AA000FFF75CFD201DFFF759FDE06A2A6908FA6F
:102AB00000F11143296100EB800109EB8100211D28
:102AC000FFF785FDE06A2968C96A8842E2D3C5F844
:102AD0001C80DFE70CB1FFF793FCAC6944B14646BC
:102AE000FFF754FF00B1EE61641EF9D10020A86128
:102AF000E86938B10849012738070860BFF34F8FEC
:102B0000BFF36F8FFFF790FD3846BDE8F0870000F8
:102B1000180000207411002004ED00E04FF0407018
:102B2000E1EE100A70470000682B0008711A0008D7
:102B3000000000000000000080000000602B000882
:102B40002525000800000000000000000001000032
:102B5000000000000000000001020304060708094D
:102B600070776D5461736B0064656661756C745445
:102B700061736B00942B00080000002028100000F7
:102B800014020008D831000828100020E8130000C3
:102B90007802000852000112100462010D00045E68
:102BA00024F4000112AA01C11243164304121704AF
:102BB000121804121904121A04121B04121C041213
:102BC0001D04121E04121F041220041221041222DA
:102BD000041223041224045225041226041227048A
:102BE000122804122904122A04122B04122C041293
:102BF0002D04122E04122F0412300412310412324A
:102C00000452330412340412350412360412370409
:102C1000123804123904123A04123B04123C041212
:102C20003D04523E04123F04124004124104124279
:102C30000412430412440412450412460452470489
:102C4000124804124904124A04124B04124C041292
:102C50004D04524E04124F041250041251041252E9
:102C60000412530412540452550412560412570409
:102C7000125804125904525A04125B04125C0412D2
:102C80005D04125E04525F04126004126104126259
:102C90000452630412640412650412660452670449
:102CA000126804126904126A04526B04126C041252
:102CB0006D04526E04126F04127004527104127289
:102CC00004127304527404127504127604527704C9
:102CD000127804527904127A04527B04127C041292
:102CE0007D04527E04127F044280042280084281C7
:102CF000045280041300820C51041300830C51040D
:102D00004300840422800842850452800413008614
:102D10000C5104430087045280044300880422803D
:102D20000842890452800443008A0452800443000C
:102D30008B0452800483008C0452800443008D0471
:102D400052800483008E0452800483008F045280DA
:102D5000048300900492800483009104928004C351
:102D6000009204928004C3009304021180040310B3
:102D700000940402118004031C00950402458004A1
:102D8000034900964C011EB40112E8051210051209
:102D900038E55CA578E594A5B0A5C8A5E0A5F869D7
:102DA0000CA9206934A948695C696C697CA990699F
:102DB000A469B469C469D469E469F49E880C036D9C
:102DC0001C036D2C036D3C039E8654036D64039EAF
:102DD000847C036D8C039E83A4039E82BC036DCC14
:102DE000038E80E4033DF0036DFC035E7D10046DF3
:102DF0001C049E7A34049E784C045E7660046D6CEC
:102E0000045E7380046D8C045E70A0046DAC045E7F
:102E10006DC0046DCC045E6AE0049E68F4045E66D6
:102E200008059E641C055E6230059E6044055E5E7A
:102E300058055E5C68056D74055E5988055E579897
:102E4000056DA4055E54B8055E52C8055E50D805F0
:102E50006DE4055E4DF8055E4B08065E4918066D8B
:102E600024065E4638065E4448065E4258065E40CA
:102E700068066D74065E3D88065E3B98065E39A85E
:102E8000065E37B8065E35C8066DD4065E32E806C3
:102E90005E30F8065E2E08075E2C18075E2A2807AB
:102EA0005E2838079E264C075E2460075E22700766
:102EB0005E2080075E1E90075E1CA0075E1AB007AA
:102EC0005E18C0076DCC0712150412140412130407
:102ED000121204121104121004120F04120E041222
:102EE0000D04120C04120B04120A04120904120835
:102EF0000412070452060412050412040412030407
:102F00001202041201041E0048041006FE420000D2
:102F1000FC0412FA0412F80412F60412F40412F279
:102F20000452F00412EE0412EC0412EA0412E80453
:102F300012E60412E40412E20412E00412DE0412A7
:102F4000DC0452DA0412D80412D60412D40412D2C9
:102F50000412D00412CE0412CC0412CA0452C804C3
:102F600012C60412C40412C20412C00412BE041217
:102F7000BC0452BA0412B80412B60412B40412B259
:102F80000412B00412AE0452AC0412AA0412A80433
:102F900012A60412A40452A20412A004129E041247
:102FA0009C04129A045298041296041294041292E9
:102FB00004529004128E04128C04128A0452880463
:102FC000128604128404128204528004127C0412B9
:102FD0007804527404127004126C0452680412646F
:102FE00004126004525C0412580412540452500437
:102FF000124C04524804124404524004123C04127D
:103000003804523404123004522C0412280452247E
:1030100004522004121C0452180412140452100406
:10302000520C0412080452040452000417F841C858
:10303000510452E80452E00452D80412D00452C899
:103040000452C00452B80452B00452A80452A0045E
:103050009298045290045288045280049270045250
:103060006004925004524004923004922004921062
:1030700004920004C3E0400492C004D2A0040211F0
:1030800080040211400402110004031C803F04016B
:103090009201011FB40111E8051210051238E55C18
:1030A000A578E594A5B0A5C8A5E0A5F8690CA92068
:1030B0006934A948695C696C697CA99069A469B4A0
:1030C00069C469D469E469F49ED00C036D1C036D76
:1030D0002C036D3C032D48036D54036D64039E085F
:1030E0007C036D8C039E14A4039E1CBC036DCC0357
:1030F0009E28E4039E30FC035E3810046D1C049E81
:103100004434049E4C4C045E5460046D6C045E6058
:1031100080046D8C045E6CA0046DAC045E78C00409
:103120006DCC045E82E0049E86F4045E8A08059EEF
:103130008E1C055E9230059E9644055E9A58055E8B
:103140009E68056D74055EA488055EA898056DA44B
:10315000055EAEB8055EB2C8055EB6D8056DE4057D
:103160005EBCF8055EC008065EC418066D24065EE7
:10317000CA38065ECE48065ED258065ED668066D30
:1031800074065EDC88065EE098065EE4A8065EE8EB
:10319000B8065EECC8066DD4065EF2E8065EF6F888
:1031A000065EFA08072D10075E0020075E02300752
:1031B0005E0440076D4C075E0760075E0970075E9E
:1031C0000B80075E0D90075E0FA0075E11B0075ED3
:0831D00013C0070300154300C2
:04000005080001D915
:00000001FF
