:020000040800F2
:100000008827002081030008C5200008291E000859
:10001000C1200008CD0600085B2A0008000000008F
:10002000000000000000000000000000C102000805
:1000300075070008000000001D0300088B2300085E
:100040009B0300089B0300089B0300089B03000818
:100050009B0300089B0300089B0300089B03000808
:100060009B0300089B0300089B0300089B030008F8
:100070009B0300089B0300089B0300089B030008E8
:100080009B030008000000009B0300089B0300087E
:100090009B0300089B0300089B0300089B030008C8
:1000A0009B0300089B0300089B0300089B030008B8
:1000B00021240008312400089B0300089B0300084A
:1000C0009B0300089B0300089B0300089B03000898
:1000D0009B0300089B0300089B0300089B03000888
:1000E0009B0300089B0300089B0300089B03000878
:1000F0009B0300089B0300089B030008000000000E
:10010000000000009B030008000000009B030008A3
:100110009B030008000000009B0300089B030008ED
:100120009B0300089B0300089B0300089B03000837
:100130009B03000800000000000000009B03000873
:100140009B0300089B030008000000000000000063
:10015000000000000000000000000000000000009F
:100160000000000000000000000000009B030008E9
:100170009B030008000000000000000000000000D9
:10018000000000009B0300080000000000000000C9
:10019000000000000000000000000000000000005F
:1001A00000000000000000009B0300089B03000803
:1001B0009B0300089B0300089B030008000000004D
:1001C000000000009B030008000000000000000089
:1001D0009B0300089B03000800F002F800F060F8A1
:1001E0000AA090E8000C82448344AAF10107DA4592
:1001F00001D100F055F8AFF2090EBAE80F0013F084
:10020000010F18BFFB1A43F001031847E43D00003B
:10021000043E000010F8013B0A4413F0030408BF39
:1002200010F8014B1D1108BF10F8015B641E05D0CA
:1002300010F8016B641E01F8016BF9D1002D15D087
:1002400010F8014B03F00C030C2BA1EB04040ABFC4
:1002500010F8013BA4EB8314A4EB032405F1010384
:1002600014F8016B5B1E01F8016BF9D5914238BFA0
:1002700010F8013BD1D3704700230024002500264D
:10028000103A28BF78C1FBD8520728BF30C148BFF9
:100290000B6070471FB503F053FE1FBD10B510BDB6
:1002A00000F0EFF81146FFF7F5FF02F099FE00F0BD
:1002B0000DF903B4FFF7F2FF03BC00F011F90000E1
:1002C0002C4B19680868B0E8F04F80F30988BFF339
:1002D0006F8F4FF0000080F311887047000000001E
:1002E00008480068006880F308884FF0000080F339
:1002F000148862B661B6BFF34F8FBFF36F8F00DF14
:1003000000BF00BF08ED00E0DFF80C00016841F419
:1003100070010160704700BF88ED00E0EFF30980D5
:10032000BFF36F8F134B1A681EF0100F08BF20ED3C
:10033000108A20E9F04F106009B44FF0500080F3AC
:100340001188BFF34F8FBFF36F8F03F07FFB4FF028
:10035000000080F3118809BC19680868B0E8F04F04
:100360001EF0100F08BFB0EC108A80F30988BFF3AD
:100370006F8F70471C000020EFF30580704700006E
:100380000948804709480047FEE7FEE7FEE7FEE729
:10039000FEE7FEE7FEE7FEE7FEE7FEE70448054965
:1003A000054A064B704700000D240008D9010008DB
:1003B000882100208827002088230020882300200F
:1003C00010B5203AC0F00B80B1E81850203AA0E8F0
:1003D0001850B1E81850A0E81850BFF4F5AF5FEA24
:1003E000027C24BFB1E81850A0E8185044BF18C9D7
:1003F00018C0BDE810405FEA827C24BF51F8043B7E
:1004000040F8043B08BF7047D20728BF31F8023BD1
:1004100048BF11F8012B28BF20F8023B48BF00F865
:10042000012B70474FF0000200B5134694469646E4
:10043000203922BFA0E80C50A0E80C50B1F12001F7
:10044000BFF4F7AF090728BFA0E80C5048BF0CC0A5
:100450005DF804EB890028BF40F8042B08BF704703
:1004600048BF20F8022B11F0804F18BF00F8012B75
:10047000704770477047704700487047242100203C
:1004800070477546FFF7F8FFAE46050069465346CC
:1004900020F00700854618B020B5FFF77FFFBDE8C4
:1004A00020404FF000064FF000074FF000084FF0DB
:1004B000000B21F00701AC46ACE8C009ACE8C0096C
:1004C000ACE8C009ACE8C0098D46704710B50446D9
:1004D000AFF300802046BDE81040FFF7EABE000001
:1004E00001491820ABBEFEE72600020000B587B028
:1004F00000BF3D48C06C40F020003B49C86408463E
:10050000C06C00F02000019000BF00BF4FF4F86005
:1005100002900120039004900220059002A9334824
:1005200000F02CF94FF4C0500290002003900120FD
:1005300004900220059002A92C4800F01FF903F056
:10054000ADF800224FF40071284800F005FA0122AE
:100550004021264800F000FA01228021234800F0C3
:10056000FBF901229102214800F0F6F90122110263
:100570001E4800F0F1F99FED1E0A00F0A9F80122D3
:1005800051021A4800F0E8F99FED1A0A00F0A0F8AD
:1005900000224FF40071154800F0DEF99FED160AB5
:1005A00000F096F8022000F04DF80021022000F043
:1005B00075F82221032000F071F82221042000F0B8
:1005C0006DF82221052000F069F82221062000F0B4
:1005D00065F80021082000F061F80021084600F0CD
:1005E0005DF807B000BD00000010024000080048A0
:1005F0000AD7233C6F12833ACDCCCC3D7FB505465C
:100600000E4B0FCB8DE80F0000224FF480610C4899
:1006100000F0A2F9002408E03DF8140003F06CF8A3
:1006200000B225F81400601CC4B2082CF4DB0122CF
:100630009102034800F090F97FBD0000BC3F000824
:100640000008004870B504460026002504F1400566
:100650004FF6FF7000EA052500224FF4806107483D
:1006600000F07AF9284603F047F806460122910285
:10067000024800F071F9F0B270BD000000080048B7
:1006800010B500228021044800F066F90122802183
:10069000014800F061F910BD0008004870B504463B
:1006A0000D46002645EA042600224FF480610648E4
:1006B00000F052F9304603F01FF80122910202487F
:1006C00000F04AF970BD00000008004800BFFEE7D6
:1006D0000C494868F0EE400A00BF0A494968091A07
:1006E00001EE101AF8EE411A074991ED001AB8EE22
:1006F000411A20EE811AF4EEC11AF1EE10FAECD391
:1007000070470000001000E0D8110020124909686D
:1007100041F08071104A11600021104A5160114669
:10072000096841F0010111600D4941430D4A116012
:10073000114609684FF47A72B1FBF2F10A4A11606E
:1007400008490968064AB1FBF2F1084A1160002124
:10075000074A116070470000FCED00E0001000E067
:1007600040420F00D8110020DC110020E0110020D1
:10077000E4110020704772B600BFFEE778B502466C
:100780000B460021CAE001268E401D6805EA0604DA
:10079000002C73D01D7905F00305012D04D01D79BF
:1007A00005F00305022D13D190684E000325B540D6
:1007B000A8434E00DD68B54028439060506801258D
:1007C0008D40A8431D79C5F300158D402843506026
:1007D0001D7905F00305032D09D0D0684E000325CF
:1007E000B540A8434E009D68B5402843D0601D79B0
:1007F00005F00305022D13D1CE0802F1200555F8AE
:1008000026004D07EE0E0F25B540A8434E07F60E05
:100810001D69B5402843CE0802F1200545F82600A1
:1008200010684E000325B540A8431D7905F0030567
:100830004E00B540284310605D6805F44035002D3A
:100840006BD000BF384D2D6E45F00105364E356634
:1008500035462D6E05F00105009500BF00BF4FEA3B
:10086000B6358E0855F826008D072E0F0F25B5409A
:10087000A843B2F1904F02D100251AE04DE02B4D74
:10088000AA4201D1012514E0294DAA4201D1022535
:100890000FE0284DAA4201D103250AE0264DAA42C5
:1008A00001D1042505E0254DAA4201D1052500E02E
:1008B00006258E07360FB5402843214D8E0845F892
:1008C0002600204D2868A0435D6805F4801505B119
:1008D00020431C4D28602D1D2868A0435D6805F449
:1008E000001505B12043174D2D1D2860154D2D1FF6
:1008F0002868A0435D6805F4003505B12043114D1B
:100900002D1F28602D1F2868A0435D6805F48035E1
:1009100005B120430B4D083D2860491C1D68CD40A2
:10092000002D7FF430AF78BD001002400004004875
:1009300000080048000C004800100048001400485F
:100940000800014008040140024613690B400BB146
:10095000012000E0002070470AB1816100E081625F
:100960007047000001480068704700000C0000203C
:100970000348006803490968084401490860704752
:100980000C0000201400002010B50024032000F00B
:10099000AFF80F2000F008F808B1012401E000F0E2
:1009A0002FF8204610BD000070B504460025114800
:1009B0000068D8B10F4800684FF47A71B1FBF0F0CD
:1009C0000D490968B1FBF0F6304600F047FD58B913
:1009D000102C07D200222146501E00F04BF8074889
:1009E000046004E0012502E0012500E0012528461D
:1009F00070BD00001400002018000020100000202E
:100A000008B500BF1048006E40F001000E490866AE
:100A10000846006E00F00100009000BF00BF00BF5C
:100A20000846806D40F0805088650846806D00F073
:100A30008050009000BF00BF00220F21901E00F0E8
:100A400019F800F0F5F808BD00100240014608460C
:100A500000280DDB00BF00BF00F01F0301229A40F9
:100A600043099B0003F1E023C3F8002100BF00BF4E
:100A700000BF70472DE9F05F80460D46164601F035
:100A8000EFFF074639462A46334601F00700C0F11A
:100A9000070ABAF1040F02D94FF0040A01E0C0F1CD
:100AA000070AD14600F1040ABAF1070F02D24FF04B
:100AB000000A01E0A0F1030AD4464FF0010A0AFA45
:100AC00009FAAAF1010A0AEA020A0AFA0CFA4FF034
:100AD000010B0BFA0CFBABF1010B0BEA030B4AEA1F
:100AE0000B042146404601F0C3FFBDE8F09F000023
:100AF00000BF00F00702064B19684FF6FF031940CC
:100B0000044B0B4343EA0221014B196000BF7047BD
:100B10000CED00E00000FA0502468ABB414800687F
:100B200000F4C060B0F5806F2BD13E488030006883
:100B300020F480703B4BC3F880001846006820F416
:100B4000C06040F400701860374800683223584392
:100B5000364BB0FBF3F0411C00E0491E31484069C0
:100B600000F48060B0F5806F01D10029F5D12D48E7
:100B7000406900F48060B0F5806F51D10320704768
:100B800008E028488030006820F48070254BC3F8C6
:100B9000800045E0B2F5007F3AD12248006800F4B9
:100BA000C060B0F5806F2AD11E488030006840F4E4
:100BB00080701C4BC3F880001846006820F4C060A9
:100BC00040F4007018601848006832235843174BEF
:100BD000B0FBF3F0411C00E0491E1248406900F4EC
:100BE0008060B0F5806F01D10029F5D10D484069D2
:100BF00000F48060B0F5806F12D10320BFE7094890
:100C00008030006840F48070064BC3F8800007E035
:100C10000448006820F4C06040F48060014B186014
:100C20000020ACE7007000401800002040420F0098
:100C30000348806840F480400149886070470000A4
:100C4000007000402DE9F04104460D464FF00008C9
:100C500014B90120BDE8F0817D48006800F00F0064
:100C6000A8420ED27A48006820F00F002843784945
:100C700008600846006800F00F00A84201D001207B
:100C8000E8E7207800F00100002864D060680328BD
:100C900023D17048006800F0007008B90120D9E73E
:100CA00001F03AFB06466C48864237D969488068AD
:100CB00000F0F00030B1207800F0020002282DD1C1
:100CC000A06858BB6348806820F0F00040F08000C6
:100CD000604988604FF0800820E06068022806D1F3
:100CE0005C48006800F4003040B90120B2E7594880
:100CF000006800F4806008B90120ABE700F0B4F8A8
:100D000006465548864209D95248806820F0F000CE
:100D100040F080004F4988604FF080084D4880685F
:100D200020F00300616808434A498860FFF71AFE13
:100D3000074608E0FFF716FEC01B41F288318842E3
:100D400001D9032086E74348806800F00C00616801
:100D5000B0EB810FEED1207800F00200022820D104
:100D6000207800F00400042805D13A48806840F457
:100D7000E06038498860207800F00800082807D132
:100D80003448806820F4605040F4E0603149886065
:100D90003048806820F0F000A16808432D49886041
:100DA00008E0B8F1800F05D12A48806820F0F000F3
:100DB000284988602648006800F00F00A84219D929
:100DC0002348006820F00F00284321490860FFF7FE
:100DD000C9FD074608E0FFF7C5FDC01B41F2883199
:100DE000884201D9032035E71948006800F00F0058
:100DF000A842F0D1207800F00400042807D115485B
:100E0000806820F4E060E168084312498860207837
:100E100000F00800082808D10E48806820F46050CF
:100E2000216940EAC1000B49886000F01DF80949BA
:100E30008968C1F30311094A515C01F01F01C840E0
:100E40000749086007480068FFF7AEFD02E70000A9
:100E5000002002400010024000B4C404883F000893
:100E6000180000201000002070B5224DAD6805F07C
:100E70000C05042D01D120483AE01E4DAD6805F067
:100E80000C05082D01D11D4832E01A4DAD6805F062
:100E90000C050C2D2BD1174DED6805F00304154DF5
:100EA000ED68C5F303156A1C022C0CD0032C09D184
:100EB000124DB5FBF2F50F4EF668C6F3062605FB9C
:100EC00006F10AE000BF0C4DB5FBF2F5094EF668DD
:100ED000C6F3062605FB06F100BF00BF054DED6811
:100EE000C5F341656D1C6B00B1FBF3F000E0002021
:100EF00070BD0000001002400024F40000127A00CF
:100F00002DE9F843044614B90120BDE8F8832078A0
:100F100000F00100002865D0FC48806800F00C0754
:100F2000FA48C06800F003060C2F01D1032E01D04F
:100F3000082F0AD1F548006800F40030002851D08D
:100F4000606800284ED10120DFE700BF6068B0F57F
:100F5000803F06D1ED48006840F48030EB490860DE
:100F60001AE06068B0F5A02F0BD1E848006840F4A3
:100F70008020E64908600846006840F48030086038
:100F80000AE0E248006820F48030E0490860084642
:100F9000006820F48020086000BF606888B1FFF717
:100FA000E1FC054606E0FFF7DDFC401B642801D9A3
:100FB0000320AAE7D548006800F400300028F2D0EA
:100FC00010E0FFF7CFFC054606E0FFF7CBFC401B27
:100FD000642801D9032098E7CC48006800F4003069
:100FE0000028F2D1207800F00200022860D1C74822
:100FF000806800F00C07C548C06800F003060C2F9D
:1010000001D1022E01D0042F18D1C048006800F48D
:10101000806018B1E06808B9012076E7BB484068F5
:1010200020F0FE40217C40EA0160B8494860B848A1
:101030000068FFF7B9FC18B3012066E7E06800B369
:10104000B248006840F48070B0490860FFF78AFC3D
:10105000054606E0FFF786FC401B022801D9032065
:1010600053E7AA48006800F480600028F2D0A7483F
:10107000406820F0FE40217C40EA0160A3494860BE
:1010800016E0A248006820F48070A0490860FFF7CD
:1010900069FC054606E0FFF765FC401B022801D904
:1010A000032032E79948006800F480600028F2D1FC
:1010B000207800F00800082836D16069D0B1934844
:1010C0009430006840F001009049C1F89400FFF7A7
:1010D00049FC054606E0FFF745FC401B022801D904
:1010E000032012E789489430006800F002000028CD
:1010F000F1D019E085489430006820F00100834960
:10110000C1F89400FFF72EFC054606E0FFF72AFC25
:10111000401B022801D90320F7E67C489430006880
:1011200000F002000028F1D1207800F0040004282B
:1011300072D14FF000087548806D012121EA1070CE
:1011400078B100BF7148806D40F080506F4988656C
:101150000846806D00F08050009000BF00BF4FF047
:1011600001086C48006800F48070B0B969480068F4
:1011700040F4807067490860FFF7F4FB054606E01D
:10118000FFF7F0FB401B022801D90320BDE66148B0
:10119000006800F480700028F2D000BFA068012829
:1011A00008D15A489030006840F001005749C1F812
:1011B000900021E0A06805280FD1544890300068C5
:1011C00040F004005149C1F890000846D0F8900062
:1011D00040F00100C1F890000EE04C4890300068EB
:1011E00020F001004949C1F890000846D0F890006D
:1011F00020F00400C1F8900000BFA068A8B1FFF77C
:10120000B1FB054609E0FFF7ADFB401B41F2883119
:10121000884202D9032078E625E03C4890300068F7
:1012200000F002000028EED013E0FFF79BFB05461C
:1012300008E0FFF797FB401B41F28831884201D953
:10124000032062E631489030006800F00200002878
:10125000EFD1B8F1010F05D12C48806D20F08050FE
:101260002A49886500BF207800F02000202836D168
:10127000A069D0B125489830006840F001002349AA
:10128000C1F89800FFF76EFB054606E0FFF76AFB22
:10129000401B022801D9032037E61C48983000681B
:1012A00000F002000028F1D019E0184898300068DA
:1012B00020F001001549C1F89800FFF753FB0546DF
:1012C00006E0FFF74FFB401B022801D903201CE674
:1012D0000E489830006800F002000028F1D1E06963
:1012E000002860D00948806800F00C000C287AD0F3
:1012F000E069022858D10548006820F08070034951
:101300000860FFF72FFB05460DE0000000100240CB
:101310001000002000700040FFF724FB401B022853
:1013200001D90320F1E54A48006800F00070002868
:10133000F2D1D4E90810401E41EA0011A06A41EA46
:101340000021208E0122C2EB500041EA405134209E
:10135000005DC2EB500041EA40612C20005D41EA93
:10136000C0603B49C9683B4A114008433849C860DE
:101370000846006840F0807008600846C06840F089
:101380008070C860FFF7EEFA054606E0FFF7EAFA5C
:10139000401B022801D90320B7E52D48006800F062
:1013A00000700028F2D051E02948006820F08070D9
:1013B00027490860FFF7D6FA054606E0FFF7D2FA9C
:1013C000401B022801D903209FE52148006800F056
:1013D00000700028F2D11E48C0681F4908401C490F
:1013E000C86033E0FFE7E069012800D18DE51848C7
:1013F000C66806F00301206A814225D106F0F0019B
:10140000606A401EB1EB001F1ED106F4FE41A06AC7
:10141000B1EB002F18D106F078412C20005DB1EB24
:10142000C06F11D106F4C001208E0122C2EB500022
:10143000B1EB405F08D106F0C0613420005DC2EB23
:101440005000B1EB406F01D001205EE500205CE56B
:10145000001002400C809F01FCFFEEFE70B50446B8
:101460002546681EB0F1807F01D301200FE0681E81
:101470004FF0E02148610F214FF0FF3001F0F8FA02
:1014800000204FF0E021886107200861002070BD36
:1014900070477047704770477047704730B50246D5
:1014A0000B4600BF92F83C00012801D1022030BD5C
:1014B000012082F83C0000BF022082F83D00106845
:1014C0004168106884681D4D1068A84203D01C4D07
:1014D0001068A84203D121F47001586801431948EB
:1014E00001401868014310684160144D1068A8421B
:1014F00013D01068B0F1804F0FD0134D1068A84280
:101500000BD0124D1068A84207D00D4D1068A842AC
:1015100003D00F4D1068A84205D124F080049868CC
:10152000044310688460012082F83D0000BF002061
:1015300082F83C0000BF00BFB9E70000002C01406A
:10154000003401408FFFFFFD000400400008004010
:1015500000400140704710B504460CB9012010BD91
:1015600094F83D0028B9002084F83C00204600F0A3
:1015700029F8022084F83D00211D206800F0E4FFD6
:10158000012084F8480000BF84F83E0001213F207C
:10159000015540200155412001554220015543206D
:1015A000015500BF00BF012084F8440045200155CB
:1015B000462001554720015500BF012084F83D0019
:1015C0000020CCE738B504462068B0F1804F16D132
:1015D00000BF1848806D40F0010016498865084634
:1015E000806D00F00100009000BF00BF00220521C7
:1015F0001C20FFF73FFA1C20FFF728FA19E00E49DC
:101600002068884215D100BF0A48806D40F0020072
:10161000084988650846806D00F00200009000BF10
:1016200000BF002205211D20FFF724FA1D20FFF72F
:101630000DFA38BD00100240000400402DE9F041D1
:1016400004460D46002700BF94F83C00012802D153
:101650000220BDE8F081012084F83C0000BF022098
:1016600084F83D00206886683F48064026F47F469F
:10167000206886602868702824D00CDC00F00F01F8
:10168000002964D10011072861D2DFE800F053542B
:10169000555649353F00354A811A90424FD009DCF2
:1016A000B0F5805F0DD0B0F5005F18D0B0F1101F1D
:1016B0004DD143E0102943D0202942D0502946D1B2
:1016C00040E046E0D5E902136A68206800F0B3FF05
:1016D0002068866846F077062068866039E0D5E99C
:1016E00002136A68206800F0A6FF2068806840F452
:1016F0008040216888602CE0EA686968206801F011
:1017000085F95021206800F0A1FF22E0EA686968AD
:10171000206801F08EF96021206800F097FF18E042
:10172000EA686968206801F071F94021206800F0DA
:101730008DFF0EE000BF00BF00BF00BF00BF00BFB5
:1017400000BF00BF2968206800F080FF01E001278A
:1017500000BF00BF012084F83D0000BF002084F8D6
:101760003C0000BF384674E788FFCEFF2000100021
:10177000704770B504462068C6682068056905F0A2
:101780000200022819D106F00200022815D1401FDC
:1017900021680861012020772068806900F003003B
:1017A00018B12046FFF7E4FF05E0204600F078F985
:1017B000204600F066FA0020207705F00400042897
:1017C00019D106F00400042815D1C043216808612E
:1017D000022020772068806900F4407018B120460C
:1017E000FFF7C6FF05E0204600F05AF9204600F05A
:1017F00048FA0020207705F00800082819D106F0E3
:101800000800082815D1C04321680861042020770A
:101810002068C06900F0030018B12046FFF7A8FF58
:1018200005E0204600F03CF9204600F02AFA0020AE
:10183000207705F01000102819D106F010001028AC
:1018400015D1C04321680861082020772068C0694D
:1018500000F4407018B12046FFF78AFF05E02046EB
:1018600000F01EF9204600F00CFA0020207705F069
:10187000010048B106F0010030B16FF001002168AD
:101880000861204600F0CEFA05F08000802804D0E0
:1018900005F40050B0F5005F0AD106F08000802802
:1018A00006D16FF40250216808612046FFF7F1FD70
:1018B00005F48070B0F5807F0AD106F080008028A2
:1018C00006D16FF48070216808612046FFF7E0FDC3
:1018D00005F04000402809D106F04000402805D11D
:1018E000C04321680861204600F09DFA05F0200001
:1018F000202809D106F02000202805D1C043216806
:1019000008612046FFF7C6FD05F48010B0F5801F82
:101910000BD106F48010B0F5801F06D16FF4801053
:10192000216808612046FFF7B7FD05F40010B0F507
:10193000001F0BD106F40010B0F5001F06D16FF4A4
:101940000010216808612046FFF7A5FD05F480001E
:10195000B0F5800F0BD106F48000B0F5800F06D1F2
:101960006FF48000216808612046FFF796FD05F4BA
:101970000000B0F5000F0BD106F40000B0F5000F29
:1019800006D16FF40000216808612046FFF7E2FDF0
:1019900070BD000010B586B00446142101A8FEF702
:1019A00041FD2068B0F1804F37D100BF3948C06C8D
:1019B00040F001003749C8640846C06C00F00100DF
:1019C000009000BF00BF00BF0846C06C40F002009E
:1019D000C8640846C06C00F00200009000BF00BF61
:1019E000202001900220029000200390049001200A
:1019F000059001A94FF09040FEF7C0FE40F6084068
:101A00000190022002900020039004900120059094
:101A100001A92148FEF7B2FE39E02049206888423A
:101A200035D100BF1B48C06C40F001001949C864A3
:101A30000846C06C00F00100009000BF00BF00BF6E
:101A40000846C06C40F00200C8640846C06C00F054
:101A50000200009000BF00BF5020019002200290C1
:101A60000020039004900220059001A94FF09040BF
:101A7000FEF784FE032001900220029000200390D4
:101A800004900220059001A90348FEF777FE06B0F6
:101A900010BD000000100240000400480004004097
:101AA00070472DE9F04104460D461646002700BF59
:101AB00094F83C00012802D10220BDE8F081012009
:101AC00084F83C0000BF0C2E51D005DC4EB1042E32
:101AD0001ED0082E7AD133E0102E60D0142EF9D10A
:101AE00075E02946206800F0BDFD2068806940F05F
:101AF0000800216888612068806920F0040021685E
:101B0000886120688069296908432168886178E0D4
:101B10002946206800F0FCFD2068806940F40060E0
:101B2000216888612068806920F48060216888616C
:101B300020688069296940EA01202168886160E0A5
:101B40002946206800F03EFE2068C06940F0080089
:101B50002168C8612068C06920F004002168C8615C
:101B60002068C069296908432168C86149E029469D
:101B7000206800F081FE2068C06940F400602168A0
:101B8000C8612068C06920F480602168C86120684D
:101B9000C069296940EA01202168C86131E029460D
:101BA000206800F0C3FE2068006D40F00800216846
:101BB00008652068006D20F0040021680865206831
:101BC000006D29690843216808651AE017E0294675
:101BD000206800F0E3FE2068006D40F4006021689A
:101BE00008652068006D20F4806021680865206821
:101BF000006D296940EA01202168086501E001279C
:101C000000BF00BF00BF002084F83C0000BF384682
:101C100053E710B504460CB9012010BD94F83D00FF
:101C200028B9002084F83C00204600F029F8022062
:101C300084F83D00211D206800F086FC012084F816
:101C4000480000BF84F83E0001213F20015540209C
:101C5000015541200155422001554320015500BF47
:101C600000BF012084F8440045200155462001555D
:101C70004720015500BF012084F83D000020CCE73B
:101C800070477047F0B504460D46002715B994F823
:101C90003E0015E0042D02D13F20005D10E0082D2C
:101CA00002D14020005D0BE00C2D02D14120005DEF
:101CB00006E0102D02D14220005D01E04320005DCE
:101CC000012801D00120F0BD1DB9022084F83E009A
:101CD0001AE0042D03D102213F20015514E0082D04
:101CE00003D10221402001550EE00C2D03D1022129
:101CF0004120015508E0102D03D102214220015559
:101D000002E002214320015535B1042D0BD0082DEE
:101D100010D00C2D1CD114E02068C06840F00200E7
:101D20002168C86016E02068C06840F0040021689F
:101D3000C8600FE02068C06840F008002168C860F3
:101D400008E02068C06840F010002168C86001E029
:101D5000012700BF00BFEFBB01222946206800F029
:101D600059FC2849206888420FD0274920688842BA
:101D70000BD026492068884207D025492068884230
:101D800003D024492068884201D1012000E00020CE
:101D900028B12068406C40F400402168486419492B
:101DA0002068884213D02068B0F1804F0FD01A49C4
:101DB000206888420BD019492068884207D0124910
:101DC0002068884203D011492068884212D12068D7
:101DD000806800E00DE0124900EA0106062E0FD0EF
:101DE000B6F5803F0CD02068006840F00100216803
:101DF000086005E02068006840F001002168086084
:101E0000384660E7002C01400034014000400140AA
:101E10000044014000480140000400400008004028
:101E2000070001007047704700BFFEE700B58FB0A4
:101E3000142212490AA8FEF7C3FA00210AA801F0E9
:101E400037F90F49086014220C49143105A8FEF730
:101E5000B7FA002105A801F02BF90A4908601422FD
:101E6000064928316846FEF7ABFA0021684601F0C2
:101E70001FF9054908600FB000BD00004C3F000885
:101E800000000020040000200800002008B500BF6A
:101E90001A48C06C40F004001849C8640846C06C79
:101EA00000F00400009000BF00BF00BF0846C06CF7
:101EB00040F02000C8640846C06C00F0200000908C
:101EC00000BF00BF00BF0846C06C40F00100C864FE
:101ED0000846C06C00F00100009000BF00BF00BFCA
:101EE0000846C06C40F00200C8640846C06C00F0B0
:101EF0000200009000BF00BF08BD000000100240BB
:101F000000B58FB000200B900C900D900E900890B3
:101F100009900A901C2101A8FEF784FA4FF0804036
:101F20002F4908600220486000212D48816040F25E
:101F3000E731C160002101618161FFF70CFB08B14D
:101F4000FEF719FC4FF480500B900BA92448FFF7C3
:101F500075FB08B1FEF70FFC2148FFF75AFE08B1E8
:101F6000FEF709FC002008900A9008A91C48FFF71A
:101F700095FA08B1FEF7FFFB602001904FF4FA607C
:101F80000290002003900590002201A91448FFF759
:101F900088FD08B1FEF7EFFB70200190042201A933
:101FA0000F48FFF77EFD08B1FEF7E5FB60200190CA
:101FB000082201A90A48FFF774FD08B1FEF7DBFB10
:101FC000702001900C2201A90548FFF76AFD08B1B5
:101FD000FEF7D1FB0248FFF7DDFC0FB000BD0000AB
:101FE0001012002000B58FB000200B900C900D90C7
:101FF0000E90089009900A901C2101A8FEF712FA91
:102000002D482E4908600220486000212B4881603D
:1020100040F2E731C160002101618161FFF79BFA65
:1020200008B1FEF7A8FB4FF480500B900BA9234892
:10203000FFF704FB08B1FEF79EFB2048FFF7E9FD20
:1020400008B1FEF798FB002008900A9008A91B48E9
:10205000FFF724FA08B1FEF78EFB602001904FF4E1
:10206000FA600290002003900590002201A9134815
:10207000FFF717FD08B1FEF77EFB042201A90F4808
:10208000FFF70FFD08B1FEF776FB702001900822E4
:1020900001A90A48FFF705FD08B1FEF76CFB0C2209
:1020A00001A90648FFF7FDFC08B1FEF764FB0348F1
:1020B000FFF770FC0FB000BD000400405C12002070
:1020C00000BFFEE700BFFEE7B0EE401A10B99FED7B
:1020D000790A704790ED100A80ED110A90ED0F0A11
:1020E00080ED100AC0ED060A80ED071A30EEC10A35
:1020F00080ED0F0A0178002975D190ED010AD0ED2D
:102100000F1A20EE210A80ED090A90ED0A0AD0ED9F
:10211000021A90ED0F2A01EE820A80ED0A0A90ED74
:102120000D0A80ED0E0A90ED0C0A80ED0D0A90ED7F
:102130000F0AD0ED101A30EE610A80ED0C0A90ED16
:10214000030AD0ED0C1A20EE210A80ED0B0A90ED67
:102150000A0AD0ED051AB4EEE10AF1EE10FA04DD38
:1021600090ED050A80ED0A0A10E090ED0A0AD0ED24
:10217000051AF1EE611AB4EEE10AF1EE10FA05D299
:1021800090ED050AB1EE400A80ED0A0A90ED090AC9
:10219000D0ED0A1A30EE210AD0ED0B1A30EE210AEA
:1021A00080ED080A90ED080AD0ED041AB4EEE10AB9
:1021B000F1EE10FA04DD90ED040A80ED080A76E0F5
:1021C00090ED080AD0ED041AF1EE611AB4EEE10ABE
:1021D000F1EE10FA6BD290ED040AB1EE400A80EDF8
:1021E000080A64E0FFE70178012960D190ED0F0A49
:1021F000D0ED101A30EE610AD0ED011A20EE210A5E
:1022000080ED090A90ED020AD0ED0F1A20EE210AA6
:1022100080ED0A0A90ED0D0A80ED0E0A90ED0C0A91
:1022200080ED0D0A90ED0F0AD0ED101AB0EE002AE5
:1022300002EE610AD0ED111A30EE210A80ED0C0A8F
:1022400090ED030AD0ED0C1A20EE210A80ED0B0A66
:1022500090ED090AD0ED0A1A30EE210AD0ED0B1AE2
:1022600030EE210AD0ED081A30EE210A80ED080A7E
:1022700090ED080AD0ED041AB4EEE10AF1EE10FA7E
:1022800004DD90ED040A80ED080A10E090ED080AE4
:10229000D0ED041AF1EE611AB4EEE10AF1EE10FA93
:1022A00005D290ED040AB1EE400A80ED080A90EDE7
:1022B000080A0EE70000000000B102B97047017083
:1022C00092ED001A80ED011A92ED011A80ED021ACA
:1022D00092ED021A80ED031A80ED040AC0ED050AA2
:1022E0009FED0C1A80ED0E1A80ED0D1A80ED0C1A80
:1022F0009FED081A80ED081A80ED0B1A80ED0A1A7E
:1023000080ED091A80ED111A80ED101A80ED0F1A78
:1023100000BFD3E70000000070B5164DED6805F072
:102320000304144DED68C5F303156B1C022C0CD08F
:10233000032C09D1104DB5FBF3F50E4EF668C6F32C
:10234000062605FB06F10AE000BF0C4DB5FBF3F5D0
:10235000084EF668C6F3062605FB06F100BF00BF6F
:10236000044DED68C5F341656D1C6A00B1FBF2F0E8
:1023700070BD00000010024000127A000024F4003A
:1023800000BF012000F083FEFBE710B5FEF7F0FA76
:1023900001F0A0FC012801D001F052FC10BD00B5F5
:1023A00093B0382105A8FEF73DF814216846FEF7E2
:1023B00039F84FF40070FEF7AFFB02200590C00122
:1023C00008904020099002200C9002210D910421D8
:1023D0000E914B210F91022110911191129105A89C
:1023E000FEF78EFD08B1FEF7C6F90F20009003201E
:1023F0000190002002900390049004216846FEF7AB
:1024000021FC08B1FEF7B7F913B000BD034800681E
:1024100040F47000014908607047000088ED00E05A
:1024200010B50248FFF7A5F910BD000010120020FA
:1024300010B540480068642807DB00203D4908606B
:1024400008460068401C086004E03A480068401CE8
:1024500038490860374963220868002100F0AAFD66
:10246000354901EB800090ED000ADFED340A20EEE3
:10247000200ADFED330A80EE201ABCEEC10A10EE0E
:10248000100A3049096848632A49096801F1320095
:102490006322002100F08EFD274901EB800090EDC2
:1024A000000ADFED260A20EE200ADFED250A80EE85
:1024B000201ABCEEC10A10EE100A2249096888638E
:1024C0001C4963220868002100F074FD1A4901EBE1
:1024D000800090ED000ADFED190A20EE200ADFED02
:1024E000180A80EE201ABCEEC10A10EE100A154937
:1024F0000968C8630F49096801F1320063220021AD
:1025000000F058FD0C4901EB800090ED000ADFED72
:102510000B0A20EE200ADFED0A0A80EE201ABCEE3C
:10252000C10A10EE100A0749096808640548FFF758
:1025300020F910BD981F00203C10002000007A44B4
:10254000000096435C12002010B502682A4B9842A6
:102550000BD0B0F1804F08D0284B984205D0284BC3
:10256000984202D0274B984203D122F070024B6868
:102570001A43214B984214D0B0F1804F11D01F4B19
:1025800098420ED01E4B98420BD01E4B984208D05A
:102590001D4B984205D01D4B984202D01C4B9842CF
:1025A00003D122F44072CB681A4322F080034C69B5
:1025B00043EA040202608B68C3620B6883620E4BBD
:1025C00098420BD00F4B984208D00F4B984205D041
:1025D0000E4B984202D00E4B984201D10B69036317
:1025E00001234361036903F001031BB1036923F075
:1025F0000103036110BD0000002C014000040040F5
:102600000008004000340140004001400044014007
:102610000048014030B501F01F05012404FA05F31C
:10262000046A9C430462046A01F01F0502FA05F57E
:102630002C43046230BD30B50C46816821F47F41E3
:1026400042EA032525432943816030BD0A4681685B
:10265000034B194042F007031943816070470000A3
:102660008FFFCFFF30B5026A056A25F001050562CC
:1026700043688469204D2C4024F003040D682C43EA
:1026800022F002028D682A431C4DA84200D10FE0BF
:102690001B4DA84200D10BE01A4DA84200D107E023
:1026A000194DA84200D103E0184DA84206D100BF41
:1026B00022F00802CD682A4322F004020F4DA842FE
:1026C0000BD00F4DA84208D00E4DA84205D00E4D9C
:1026D000A84202D00D4DA84207D123F4807323F401
:1026E00000734D692B438D692B43436084614D68B2
:1026F0004563026230BD00008FFFFEFF002C0140E9
:1027000000340140004001400044014000480140C5
:1027100030B5026A056A25F01005056243688469D0
:10272000224D2C4024F440740D6844EA052422F024
:1027300020028D6842EA05121D4DA84200D10FE02B
:102740001C4DA84200D10BE01B4DA84200D100BF98
:102750001A4DA84200D100BF194DA84207D106E08A
:1027600022F08002CD6842EA051222F04002104DAC
:10277000A8420BD00F4DA84208D00F4DA84205D05B
:102780000E4DA84202D00E4DA84209D123F4806319
:1027900023F400634D6943EA85038D6943EA8503A9
:1027A000436084614D688563026230BDFF8FFFFE28
:1027B000002C014000340140004001400044014031
:1027C0000048014030B5026A056A25F4807505624B
:1027D0004368C469224D2C4024F003040D682C4347
:1027E00022F400728D6842EA05221E4DA84200D1F3
:1027F0000FE01D4DA84200D10BE01C4DA84200D1B6
:1028000000BF1B4DA84200D100BF1A4DA84207D1FE
:1028100006E022F40062CD6842EA052222F48062DA
:10282000104DA8420BD0104DA84208D00F4DA84221
:1028300005D00F4DA84202D00E4DA84209D123F475
:10284000805323F400534D6943EA05138D6943EA2D
:1028500005134360C4614D68C563026230BD00006A
:102860008FFFFEFF002C014000340140004001407A
:10287000004401400048014030B5026A056A25F471
:10288000805505624368C469224D2C4024F440748D
:102890000D6844EA052422F400528D6842EA0532AC
:1028A0001D4DA84200D10FE01C4DA84200D10BE005
:1028B0001B4DA84200D100BF1A4DA84200D100BF55
:1028C000194DA84207D106E022F40042CD6842EA41
:1028D000053222F48042104DA8420BD00F4DA84281
:1028E00008D00F4DA84205D00E4DA84202D00E4D83
:1028F000A84209D123F4804323F400434D6943EAFD
:1029000085138D6943EA85134360C4614D6805648E
:10291000026230BDFF8FFFFE002C014000340140F9
:1029200000400140004401400048014030B5026AC7
:10293000056A25F4803505624368046D114D2C400D
:102940000D682C4322F400320D8942EA05420E4DF7
:10295000A8420BD00D4DA84208D00D4DA84205D07D
:102960000C4DA84202D00C4DA84204D123F4803370
:102970004D6943EA0523436004654D68856402623E
:1029800030BD00008FFFFEFF002C014000340140ED
:1029900000400140004401400048014030B5026A57
:1029A000056A25F4801505624368046D114D2C40BD
:1029B0000D6844EA052422F400120D8942EA05520A
:1029C0000D4DA8420BD00D4DA84208D00C4DA84289
:1029D00005D00C4DA84202D00B4DA84204D123F4DF
:1029E00080234D6943EA8523436004654D68C564CF
:1029F000026230BDFF8FFFFE002C01400034014019
:102A000000400140004401400048014030B50B4601
:102A10001446026A056A25F001050562816921F004
:102A2000F00141EA041122F00A021A4381610262B4
:102A300030BD30B50B461446026A056A25F0100514
:102A40000562816921F4704141EA043122F0A0025B
:102A500042EA03128161026230BD00BFFEE700005E
:102A600002480068C0F30220704700000CED00E04F
:102A700010B5002804DB0A07130E054A135406E0BC
:102A80000A07140E034A00F00F031B1FD45410BD95
:102A900000E400E018ED00E00A2000F0F8FA002061
:102AA0000BE000221F4921F810209FED1F0A103172
:102AB00001EB800181ED000A401C0828F1DB00BF1A
:102AC000FDF7DEFD9FED190AFDF702FE00E000BFF5
:102AD0004FF400611648FDF737FF0128F7D0114881
:102AE000FDF78CFD002015E00E4931F9101000EEC5
:102AF000101AB8EEC00ADFED0F0A20EE200ADFED53
:102B00000E0A80EE201A0749103101EB800181ED99
:102B1000001A401C0828E7DB9FED040AFDF7D8FDEA
:102B2000CEE70000B41F00200000000017B7D13826
:102B30000008004800401C460000004770B50446ED
:102B4000002509E004F14C0101EB05102E499FED31
:102B50002F0A00F01DFA6D1C032DF3DB002509E0A0
:102B600004F17C0101EB051027499FED280A00F0D4
:102B70000FFA6D1C032DF3DBDFED250A9FED250A0F
:102B8000254A002104F1CC00FFF796FBDFED230A74
:102B90009FED230A234A002104F58A70FFF78CFB7E
:102BA000002006E04FF4FA7204F1AC0141F8202055
:102BB000401C0428F6DB00200FE09FED150A04F10D
:102BC000100101EB800181ED000A9FED110A211D2A
:102BD00001EB800181ED000A401C0328EDDBB3EE20
:102BE0000E0A84ED2F0A9FED0A0A84ED300A9FED4C
:102BF000080A84ED600A9FED050A84ED610A4FF032
:102C0000FF30C4F8880170BDA03F00086F12833AFE
:102C10000000000000002F44A43F00080000C8424C
:102C20000000FA43B03F000870B504467749D4F875
:102C3000AC0009684863B02000597449096888638A
:102C4000B420005971490968C863B82000596F4918
:102C50000968086494ED200AD4ED140AB2EE041A4F
:102C600001EE200AB5EEC00AF1EE10FA04D29FED93
:102C7000680A84ED300A09E094ED200AD4ED140AC4
:102C8000B2EE041A01EE200A84ED300A00250EE0AF
:102C900004F1100101EB8501D1ED000AB0EE600AEC
:102CA00004F14C0101EB051000F048F96D1C032DF7
:102CB000EEDB00250DE0211D01EB8501D1ED000AC1
:102CC000B0EE600A04F17C0101EB051000F036F96A
:102CD0006D1C032DEFDB4F480068C821B0FBF1F2FB
:102CE00001FB120002285BD194ED200AD4ED140AF6
:102CF00020EE200A84ED5F0A94ED620AB8EEC00A65
:102D0000D4ED610A20EE200ADFED430A20EE200A0E
:102D1000BDEEC00A10EE100A40490968081A3F4982
:102D2000086094ED200AD4ED310AB4EEE00AF1EE29
:102D300010FA03DD0120C4F888010EE094ED200AAA
:102D4000D4ED310AB4EEE00AF1EE10FA04D24FF0FD
:102D5000FF30C4F8880100E01EE030480068B0F59C
:102D6000757F04DD4FF475702C49086008E02B482E
:102D70000068B0F5C87F03DA4FF4C87027490860CF
:102D8000002006E025490A6804F1AC0141F8202042
:102D9000401C0228F6DB00BF94ED5F0A84ED600A58
:102DA000022024E094ED4D0ABDEEC00A1C4981EDDD
:102DB000000A1B4AD4F8C8101268891A194A11600F
:102DC00011460968B1F5757F03DD4FF47571116027
:102DD00006E014490968FA2902DAFA21114A116059
:102DE00010490A6804F1AC0141F82020401C042875
:102DF000D8DB08480068C82802D9002005490860C7
:102E000004480068401C0349086070BD101200208F
:102E1000000000009800002000007A448C00002090
:102E2000880000209000002010B5044694ED0E0AA2
:102E30009FED3C1AC0EE010A9FED3B1A9FED3B0A45
:102E400010EE810A84ED040A94ED0B0ADFED350AD9
:102E500080EE201A9FED360A21EE000AF1EE080AF4
:102E600080EE201AB1EE410ADFED320A20EE200A90
:102E700084ED010AD4ED0C0A9FED2A1A80EE810A36
:102E8000DFED2B0A20EE200AF1EE080A80EE201A70
:102E9000B1EE410ADFED280A80EE201A84ED021A15
:102EA000D4ED0D0A9FED1F1A80EE810ADFED200A96
:102EB00020EE200AF1EE080A80EE201AB1EE410A57
:102EC00084ED030A94ED140AF2EE040A20EE200ABF
:102ED00084ED310AD4ED280A94ED2F1A80EE810A90
:102EE000DFED100A20EE200ABDEEC00A84ED320AA2
:102EF00094ED311AF0EE410A94ED201AB0EE410A39
:102F000004F1CC00FFF7E0F894ED2F1AF0EE410A3F
:102F100094ED241AB0EE410A04F58A70FFF7D4F854
:102F200010BD000000007A44E3A59B3F9EEFE73E02
:102F30000000CA42DC11823F643B7F3F10EE101A52
:102F40000160816800EE901AC16801EE101A70EEFF
:102F5000811A816800EE901A80EEA11A416800EE95
:102F6000901A61EE200A816801EE101AC16801EE24
:102F7000901A31EE212A01EE101AC1EE021A0168F0
:102F800001EE101A41EE810A10EE901A416070476E
:102F900010EE102AC2600A688260DFED050A10EEAA
:102FA000902A0260DFED020A10EE902A426070471C
:102FB0000000000010B58A4200DA10BD904205DD25
:102FC000531A00E0C01A9042FCDC07E0884205DAA0
:102FD000531A00E018448842FCDB00BF00BFECE756
:102FE000FDF7D2FCFFF7DBF9FEF750FFFEF7FAFF23
:102FF000FEF786FF00211548FEF744FE0421134822
:10300000FEF740FE08211148FEF73CFE0C210F4858
:10301000FEF738FE00210E48FEF734FE04210C486E
:10302000FEF730FE08210A48FEF72CFE0C21084866
:10303000FEF728FE9620FDF769FBFDF757FAFEF72D
:10304000F5FE00F030F800BFFEE700005C12002043
:1030500010120020642000F01AF80748FFF76EFDF8
:1030600000BF0548FFF7E0FE0348FFF7DDFD9FEDD9
:10307000030AFDF72DFBF4E7981F002017B7D1389E
:1030800001460020842901D0CA1C1044704770B545
:10309000044625460DB1294600E00121084600F00E
:1030A0005BFC002070BD10B500F084FC002010BD5A
:1030B000FEB504460D46B4F90800FFF7E1FF0646E9
:1030C00002A8CDE90060238A9AB22B46D4E9001009
:1030D00000F0D0FD012801D00020FEBD0298FCE7E1
:1030E0002DE9F04105460E461C4807681C4800685B
:1030F000001D00F039FB50B91948006890F82C10F9
:103100000120884017490968814316480160681CFE
:1031100038B936B112480168091D134800F062FB46
:103120001AE07C190E4800684460BC4207D20C4883
:103130000168091D0D48006800F03AFB0CE00848E2
:103140000168091D0A48006800F032FB0948006860
:10315000844201D207480460BDE8F08130000020BD
:103160001C000020340000208413002024000020D4
:10317000200000204C00002010B5044600F03EFB6B
:1031800023480068401C224908602248006840B972
:10319000204804600846006801280DD100F020F99D
:1031A0000AE01D48006838B91A480068C06AE16A38
:1031B000884201D81748046018480068401C174925
:1031C000086094F82C1001208840154909680843CC
:1031D00013490860E16A01EB8101124A02EB8100A8
:1031E000211D00F0FFFA00F033FB0B48006868B1C6
:1031F00008480068C06AE16A884207D24FF08050F0
:1032000009490860BFF34F8FBFF36F8F10BD0000F7
:103210002C0000201C000020380000204800002066
:1032200034000020A812002004ED00E010B516E0E4
:1032300000F0E4FA0C48C068C468201D00F094FA5D
:103240000A480068401E0949086009480068401E95
:103250000749086000F0FCFA204600F00BF804482B
:1032600000680028E4D110BD701300202C0000205D
:103270002800002010B50446206B00F007FB204614
:1032800000F004FB10BD000030B54FF44063174858
:1032900000F007042CB1C01D20F00700134C041BE4
:1032A0001B1B0246124C22600024114D6C60D0188A
:1032B000083820F007000F4C206000240D4D2D68C9
:1032C0006C600C4D2D682C601146441A4C60094C02
:1032D00024680C60084D4C682C60084D4C682C60CC
:1032E0004FF00044064D2C6030BD000098130020C4
:1032F00058000020600000206800002064000020CA
:103300007400002000BFFFF791FF06480068012805
:10331000F9D94FF0805004490860BFF34F8FBFF3D5
:103320006F8FF0E7A812002004ED00E02DE9FF5FA9
:1033300081460E469246DDE90E7B109CAAF1010003
:10334000216B01EB800828F0070808F0070008B996
:10335000012000E0002050B900BF502080F3118808
:10336000BFF34F8FBFF36F8F00BF00BFFEE786B183
:10337000002507E0715D04F134004155705D00B92E
:1033800002E06D1C102DF5D300BF00214320015534
:1033900002E0002084F83400072F00D30627E762FC
:1033A00067640020A064201D00F0FFF904F11800FC
:1033B00000F0FBF92461C7F10700A06164620020FE
:1033C000E06484F8500049464046039A00F050F902
:1033D0002060BBF1000F01D0CBF80040BDE8FF9F9B
:1033E00010B5002407E004EB84010F4A02EB8100D2
:1033F00000F0CEF9641C072CF5D30C4800F0C8F996
:103400000B4800F0C5F90B4800F0C2F90A4800F07B
:10341000BFF90A4800F0BCF90448094908600448AB
:103420000849086010BD0000A812002034130020D5
:10343000481300205C130020701300208413002028
:10344000200000202400002010B50146164800E0AE
:10345000006803688B42FBD30246436813448B42E7
:1034600004D143684C682344436001460A464B68D4
:1034700013440468A34211D10C4C03682468A3428E
:1034800008D04B680468646823444B6003681B6879
:103490000B6005E0054B1B680B6001E003680B60E7
:1034A000884200D0016010BD58000020600000205C
:1034B0000A490968096809B9012100E0002121B120
:1034C0004FF0FF31064A116006E004490968C968F7
:1034D000C868034A4168116070470000200000205E
:1034E0004C0000200E480068401C08B9012000E094
:1034F000002050B900BF502080F31188BFF34F8FD8
:10350000BFF36F8F00BF00BFFEE700BF502080F306
:103510001188BFF34F8FBFF36F8F00BF00BFFEE76F
:10352000780000202DE9F04104464FF0000800F03B
:1035300085FA4948006808B9FFF7A6FE47480068C1
:103540002040002870D1D4B1083404F00700B0B195
:1035500004F00700C0F10800044404F0070008B9B3
:10356000012000E0002050B900BF502080F31188F6
:10357000BFF34F8FBFF36F8F00BF00BFFEE7002C7C
:1035800052D03748006884424ED8364E30460568DF
:1035900001E02E462D686868A04202D22868002803
:1035A000F7D12D48006885423ED0306800F1080808
:1035B000286830606868001B102819D92F1907F097
:1035C000070008B9012000E0002050B900BF5020DA
:1035D00080F31188BFF34F8FBFF36F8F00BF00BF21
:1035E000FEE76868001B78606C603846FFF72CFFC8
:1035F0001B4968680968081A194908600846006884
:1036000019490968884203D21548006816490860BC
:1036100012496868096808436860002028601348F8
:103620000068401C1149086000F008FC08F0070021
:1036300008B9012000E0002050B900BF502080F3FD
:103640001188BFF34F8FBFF36F8F00BF00BFFEE73E
:103650004046BDE8F08100006000002074000020BA
:103660006400002058000020680000206C0000204A
:10367000001F4FF080730360001F21F001030360FF
:10368000001F054B036014380260001F6FF0020337
:103690000360203870470000E534000800B587B0AB
:1036A00000BF1348C06C40F001001149C8640846CF
:1036B000C06C00F00100019000BF00BF0A20029022
:1036C0000120039004900220059002A90948FDF70B
:1036D00055F804200290002003900120049002205D
:1036E000059002A90348FDF749F807B000BD0000A6
:1036F00000100240000800482DE9F0410546002472
:103700002F46002628E04FF6FF7000EA440407F435
:10371000004028B1012208211248FDF71DF904E0FC
:10372000002208210F48FDF717F9002202210D4859
:10373000FDF712F94FF6FF7000EA47070421094828
:10374000FDF702F908B1601C84B20122022105488C
:10375000FDF702F9701CC6B2102ED4DB2046BDE87E
:10376000F08100000008004801460A69D1E90130F3
:103770009860D1E9010358605068884201D1886897
:103780005060002008611068401E1060106870478B
:1037900000F1080141604FF0FF31816000F1080144
:1037A000C160016100210160704700210161704723
:1037B00010B502460B685C1C0CB9106907E002F1F9
:1037C000080000E04068446824689C42FAD94468D4
:1037D0004C604C68A160886041600A611468641C98
:1037E000146010BD42684A6093688B6093685960AA
:1037F0009160086103685B1C0360704700BF502044
:1038000080F31188BFF34F8FBFF36F8F00BF0E4857
:103810000068401C0C49086008460068012812D165
:103820000A480068C0B208B9012000E0002050B981
:1038300000BF502080F31188BFF34F8FBFF36F8F0D
:1038400000BF00BFFEE770477800002004ED00E0F5
:103850000D48006850B900BF502080F31188BFF3B5
:103860004F8FBFF36F8F00BF00BFFEE706480068B1
:10387000401E054908600846006820B9002080F312
:10388000118800BF00BF70477800002070B5064661
:103890003546002E44D0083D2C4622496068096810
:1038A000084008B1012000E0002050B900BF5020BE
:1038B00080F31188BFF34F8FBFF36F8F00BF00BF3E
:1038C000FEE7206808B9012000E0002050B900BFE1
:1038D000502080F31188BFF34F8FBFF36F8F00BF6D
:1038E00000BFFEE70F49606809680840C0B1206862
:1038F000B0B90C49606809688843606000F09EF8C0
:103900000949606809680844074908602046FFF7CC
:103910009BFD06480068401C0449086000F08EFAD0
:1039200070BD0000740000206400002070000020C2
:1039300000204FF0E02108618861064800684FF4DC
:103940007A71B0FBF1F0401E4FF0E0214861072092
:10395000086170471800002070B504460025D4B1F6
:103960001248006808B9012000E0002050B900BFEB
:10397000502080F31188BFF34F8FBFF36F8F00BFCC
:1039800000BFFEE700F05AF800212046FFF7A8FB31
:1039900000F054FA05463DB94FF0805004490860E4
:1039A000BFF34F8FBFF36F8F70BD00005400002036
:1039B00004ED00E01CB51A4800210B468022CDE939
:1039C000001018A1194800F055F90446012C15D132
:1039D00000BF502080F31188BFF34F8FBFF36F8F6C
:1039E00000BF4FF0FF301249086001201149086004
:1039F00000201149086000F06FF810E0601C08B169
:103A0000012000E0002050B900BF502080F3118851
:103A1000BFF34F8FBFF36F8F00BF00BFFEE71CBD2A
:103A20005000002049444C450000000005330008C8
:103A30004C000020380000203000002002480068C0
:103A4000401C014908607047540000201D48006870
:103A500018B101201C49086032E000201A490860B2
:103A60001A480068B0FA80F0C0F11F0101EB810034
:103A7000174A52F8200008B1012000E0002050B998
:103A800000BF502080F31188BFF34F8FBFF36F8FBB
:103A900000BF00BFFEE701EB81020D4B03EB82008C
:103AA00042685268426000F108024368934202D1C2
:103AB0004268526842604268D268064B1A6000BF92
:103AC0007047000054000020400000203400002017
:103AD000A81200201C0000201CB552480068524962
:103AE000884201D0012000E0002050B900BF5020E2
:103AF00080F31188BFF34F8FBFF36F8F00BF00BFFC
:103B0000FEE7484800684849491E884201D0012024
:103B100000E0002050B900BF502080F31188BFF3AF
:103B20004F8FBFF36F8F00BF00BFFEE73F490846CE
:103B300000780190FF200A46107008460078009037
:103B40009DF8000000F0F0009DF80020904201D1A7
:103B5000012000E0002050B900BF502080F3118800
:103B6000BFF34F8FBFF36F8F00BF00BFFEE79DF81D
:103B7000000000F050002E4A107007202D4A1060FF
:103B800009E02C480068401E2A4A10609DF8000099
:103B90004006000E00909DF8000000F08000802894
:103BA000EFD024480068C0F10700042801D10120AB
:103BB00000E0002050B900BF502080F31188BFF30F
:103BC0004F8FBFF36F8F00BF00BFFEE7194800683B
:103BD0000002184A10601046008800F4E06010608F
:103BE000124A019810700F482030006840F47000AD
:103BF0000C49203108600846006840F070400860B9
:103C0000FFF796FE00200C490860FCF77DFB0B488F
:103C1000006840F0404009490860FCF761FB002063
:103C20001CBD000000ED00E071C20F4100E400E0A7
:103C30007C000020800000207800002034EF00E0AD
:103C400010B500BF502080F31188BFF34F8FBFF332
:103C50006F8F00BF00F04EF818B14FF0805004494C
:103C6000086000BF002080F3118800BF10BD000075
:103C700004ED00E02DE9FF4F85B0804689461746E8
:103C8000DDE912ABB800FFF74DFC064656B15420F3
:103C9000FFF748FC04460CB1266304E03046FFF70A
:103CA000F5FD00E000247CB10020CDE900ABCDE9BA
:103CB00002403A4649464046089BFFF737FB2046FC
:103CC000FFF75AFA012501E04FF0FF35284609B009
:103CD000BDE8F08F0549096809B9012005E00449EC
:103CE000096809B9022000E0002070473800002070
:103CF000540000202DE9F0414FF0000844480068CE
:103D000000287CD143480068451C4248056015BB2B
:103D100041480068006808B9012000E0002050B95F
:103D200000BF502080F31188BFF34F8FBFF36F8F18
:103D300000BF00BFFEE738480768384800683649CA
:103D400008603648076036480068401C34490860FF
:103D5000FFF7AEFB00BF3348006885423CD300BF8D
:103D60002D480068006808B9012000E0002020B15B
:103D70004FF0FF302B4908602DE027480068C068ED
:103D8000C4686668B54202D22648066023E0201D5A
:103D9000FFF7EAFCA06A18B104F11800FFF7E4FC91
:103DA00094F82C10012088401F49096808431E49D7
:103DB0000860E16A01EB81011C4A02EB8100211DD0
:103DC000FFF710FD1A49E06A0968C96A8842C7D33B
:103DD0004FF00108C4E700BF15480068C06A00EB57
:103DE0008000124951F82000012801D94FF0010844
:103DF0001048006808B14FF0010805E0FFE70E48E1
:103E00000068401C0C4908604046BDE8F081000095
:103E1000540000203000002020000020240000205A
:103E2000440000204C00002034000020A812002094
:103E30001C000020400000203C00002070B5002441
:103E400000263648006850B900BF502080F3118822
:103E5000BFF34F8FBFF36F8F00BF00BFFEE7FFF7C9
:103E6000CDFC2E480068401E2C49086008460068BA
:103E700000284FD12A48006800284BD024E0294868
:103E8000C068C46804F11800FFF76EFC201DFFF73E
:103E90006BFC94F82C1001208840234909680843E2
:103EA00021490860E16A01EB8101204A02EB8100AF
:103EB000211DFFF797FC1E49E06A0968C96A88421C
:103EC00002D301201B4908601648006808B9012088
:103ED00000E000200028D2D00CB1FFF7E9FA164824
:103EE000056865B100BFFFF705FF10B1012011495A
:103EF00008606D1E002DF6D100200F4908600D48A6
:103F0000006838B1012630070C490860BFF34F8FB5
:103F1000BFF36F8FFFF79CFC304670BD540000204C
:103F20002C0000205C13002034000020A812002088
:103F30001C000020400000203C00002004ED00E0B8
:103F40004FF04070E1EE100A70470000E43F0008B7
:103F50008123000800000000000000008000000035
:103F6000D43F0008553000080000000000000000A9
:103F700080000000CC3F0008992A000800000000E3
:103F800000000000800000000000000000000000B1
:103F900001020304060708090000000001020304EF
:103FA000CDCCCC3D0000000000000000000000006F
:103FB0000000A0400AD7233C00000000FFFFFFFFE5
:103FC000FFFFFFFFFFFFFFFFFFFFFFFF6164635481
:103FD00061736B006D61696E636F6E74726F6C54A8
:103FE00061736B0064656661756C745461736B001A
:103FF0001040000800000020101200001402000809
:1040000018470008101200207815000078020008F8
:10401000D2000112100422010900045A24F4000104
:1040200012AA01E11443D4031C5284084005000085
:10403000164304121704121804121904121A041257
:104040001B04121C04121D04121E04121F04122051
:1040500004122104122204122304122404522504FF
:10406000122604122704122804122904122A041208
:104070002B04122C04122D04122E04122F041230C1
:10408000041231041232045233041234041235047F
:10409000123604123704123804123904123A041288
:1040A0003B04123C04123D04523E04123F041240F1
:1040B000041241041242041243041244041245043F
:1040C000124604524704124804124904124A0412C8
:1040D0004B04124C04124D04524E04124F04125061
:1040E000041251041252041253041254045255047F
:1040F000125604125704125804125904525A041248
:104100005B04125C04125D04125E04525F041260D0
:1041100004126104126204526304126404126504FE
:10412000126604526704126804126904126A045287
:104130006B04126C04126D04526E04126F04127040
:10414000045271041272041273045274041275043E
:10415000127604527704127804527904127A0452C7
:104160007B04127C04127D04527E04127F04428080
:10417000042280084281045280041300820C5104FE
:104180001300830C510443008404228008428504F8
:104190005280041300860C510443008704528004AB
:1041A0004300880422800842890452800443008A24
:1041B0000452800443008B0452800483008C045218
:1041C000800443008D0452800483008E04528004D6
:1041D00083008F0452800483009004928004830043
:1041E0009104928004C3009204928004C30093045B
:1041F00002118004031000940402118004031C00C7
:10420000950402458004034900964C011EB4011236
:10421000E8051210051238E55CA578E594A5B0A56F
:10422000C8A5E0A5F8690CA9206934A948695C69AA
:104230006C697CA99069A469B469C469D469E469AA
:10424000F49E880C036D1C036D2C036D3C039E864D
:1042500054036D64039E847C036D8C039E83A403CE
:104260009E82BC036DCC038E80E4033DF0036DFCA5
:10427000035E7D10046D1C049E7A34049E784C0409
:104280005E7660046D6C045E7380046D8C045E70F9
:10429000A0046DAC045E6DC0046DCC045E6AE004E5
:1042A0009E68F4045E6608059E641C055E62300527
:1042B0009E6044055E5E58055E5C68056D74055E33
:1042C0005988055E5798056DA4055E54B8055E5281
:1042D000C8055E50D8056DE4055E4DF8055E4B08D7
:1042E000065E4918066D24065E4638065E4448069A
:1042F0005E4258065E4068066D74065E3D88065E46
:104300003B98065E39A8065E37B8065E35C8066D6E
:10431000D4065E32E8065E30F8065E2E08075E2C94
:1043200018075E2A28075E2838079E264C075E2459
:1043300060075E2270075E2080075E1E90075E1C8D
:10434000A0075E1AB0075E18C0076DCC07121504EF
:104350001214041213041212041211041210041283
:104360000F04120E04120D04120C04120B04120A94
:104370000412090412080412070452060412050468
:104380001204041203041202041201041E00480461
:104390001006FE420000FC0412FA0412F80412F6A1
:1043A0000412F40412F20452F00412EE0412EC04AB
:1043B00012EA0412E80412E60412E40412E20412FF
:1043C000E00412DE0412DC0452DA0412D80412D61D
:1043D0000412D40412D20412D00412CE0412CC045B
:1043E00012CA0452C80412C60412C40412C204122F
:1043F000C00412BE0412BC0452BA0412B80412B6AD
:104400000412B40412B20412B00412AE0452AC048A
:1044100012AA0412A80412A60412A40452A204129E
:10442000A004129E04129C04129A0452980412963C
:1044300004129404129204529004128E04128C04FA
:10444000128A0452880412860412840412820452CE
:104450008004127C04127804527404127004126CEA
:1044600004526804126404126004525C041258047A
:10447000125404525004124C045248041244045280
:104480004004123C04123804523404123004522CFA
:1044900004122804522404522004121C045218044A
:1044A000121404521004520C041208045204045250
:1044B000000417F841C8510452E80452E00452D8ED
:1044C0000412D00452C80452C00452B80452B004BA
:1044D00052A80452A00492980452900452880452A4
:1044E000800492700452600492500452400492304E
:1044F00004922004921004920004C3E0400492C08D
:1045000004D2A0040211800402114004021100042C
:10451000031C803F04019201011FB40111E8051240
:1045200010051238E55CA578E594A5B0A5C8A5E00E
:10453000A5F8690CA9206934A948695C696C697C93
:10454000A99069A469B469C469D469E469F49ED086
:104550000C036D1C036D2C036D3C032D48036D543F
:10456000036D64039E087C036D8C039E14A4039E5C
:104570001CBC036DCC039E28E4039E30FC035E3814
:1045800010046D1C049E4434049E4C4C045E546024
:10459000046D6C045E6080046D8C045E6CA0046D20
:1045A000AC045E78C0046DCC045E82E0049E86F4A8
:1045B000045E8A08059E8E1C055E9230059E964418
:1045C000055E9A58055E9E68056D74055EA48805B3
:1045D0005EA898056DA4055EAEB8055EB2C8055E1E
:1045E000B6D8056DE4055EBCF8055EC008065EC47D
:1045F00018066D24065ECA38065ECE48065ED2589E
:10460000065ED668066D74065EDC88065EE0980677
:104610005EE4A8065EE8B8065EECC8066DD4065EE9
:10462000F2E8065EF6F8065EFA08072D10075E004F
:1046300020075E0230075E0440076D4C075E07608E
:10464000075E0970075E0B80075E0D90075E0FA086
:10465000075E11B0075E13C0075E159C0F5E1F5802
:104660000F5E32100F5E44C80E5E55800E5E6634DB
:104670000E4E75F00D3DCC0D5E84800D5E8A3C0DB6
:104680005E8EF00C5E92B00C8E94600C6D1C0C7DF6
:10469000BC0B5E93600B5E90200B5E8CD40A52873D
:1046A000585E81480A5E75000A5E66B8095E5570FC
:1046B000095E4428095E32E0085E1F9808560C2007
:1046C0005EF208085ECEC0075EAC78075E8A2C07F3
:1046D0005E58E8065E2030035EE058065E901006E5
:1046E0005E20D0059E807405EDD0045E008004211C
:1046F000285E2014045E90CC0321505E0864035EA3
:104700003C1C035A74D45A9A885ABC445EE0DC08B4
:084710005203C001400100004A
:04000005080001D915
:00000001FF
