:020000040800F2
:1000000068280020810300081D360008B930000868
:100010001936000809070008B33F00080000000077
:10002000000000000000000000000000C102000805
:10003000D5070008000000001D030008E338000891
:100040009B0300089B0300089B0300089B03000818
:100050009B0300089B0300089B0300089B03000808
:100060009B0300089B0300089B0300080D07000882
:100070001D0700089B0300089B0300089B03000862
:100080009B030008000000009B0300089B0300087E
:100090009B0300089B0300089B0300089B030008C8
:1000A0009B0300089B0300089B0300089B030008B8
:1000B00079390008893900089B0300089B03000870
:1000C0009B0300089B0300089B0300089B03000898
:1000D0009B0300089B0300089B0300089B03000888
:1000E0009B0300089B0300089B0300089B03000878
:1000F0009B0300089B0300089B030008000000000E
:10010000000000009B030008000000009B030008A3
:100110009B030008000000009B0300089B030008ED
:100120009B0300089B0300089B0300089B03000837
:100130009B03000800000000000000009B03000873
:100140009B0300089B030008000000000000000063
:10015000000000000000000000000000000000009F
:100160000000000000000000000000009B030008E9
:100170009B030008000000000000000000000000D9
:10018000000000009B0300080000000000000000C9
:10019000000000000000000000000000000000005F
:1001A00000000000000000009B0300089B03000803
:1001B0009B0300089B0300089B030008000000004D
:1001C000000000009B030008000000000000000089
:1001D0009B0300089B03000800F002F800F060F8A1
:1001E0000AA090E8000C82448344AAF10107DA4592
:1001F00001D100F055F8AFF2090EBAE80F0013F084
:10020000010F18BFFB1A43F001031847E850000024
:100210000851000010F8013B0A4413F0030408BF22
:1002200010F8014B1D1108BF10F8015B641E05D0CA
:1002300010F8016B641E01F8016BF9D1002D15D087
:1002400010F8014B03F00C030C2BA1EB04040ABFC4
:1002500010F8013BA4EB8314A4EB032405F1010384
:1002600014F8016B5B1E01F8016BF9D5914238BFA0
:1002700010F8013BD1D3704700230024002500264D
:10028000103A28BF78C1FBD8520728BF30C148BFF9
:100290000B6070471FB504F0EBFF1FBD10B510BD1C
:1002A00000F0EFF81146FFF7F5FF04F08DF800F0CD
:1002B0000DF903B4FFF7F2FF03BC00F011F90000E1
:1002C0002C4B19680868B0E8F04F80F30988BFF339
:1002D0006F8F4FF0000080F311887047000000001E
:1002E00008480068006880F308884FF0000080F339
:1002F000148862B661B6BFF34F8FBFF36F8F00DF14
:1003000000BF00BF08ED00E0DFF80C00016841F419
:1003100070010160704700BF88ED00E0EFF30980D5
:10032000BFF36F8F134B1A681EF0100F08BF20ED3C
:10033000108A20E9F04F106009B44FF0500080F3AC
:100340001188BFF34F8FBFF36F8F04F017FD4FF08D
:10035000000080F3118809BC19680868B0E8F04F04
:100360001EF0100F08BFB0EC108A80F30988BFF3AD
:100370006F8F70471C000020EFF30580704700006E
:100380000948804709480047FEE7FEE7FEE7FEE729
:10039000FEE7FEE7FEE7FEE7FEE7FEE70448054965
:1003A000054A064B7047000065390008D90100086E
:1003B000682200206828002068240020682400208B
:1003C00010B5203AC0F00B80B1E81850203AA0E8F0
:1003D0001850B1E81850A0E81850BFF4F5AF5FEA24
:1003E000027C24BFB1E81850A0E8185044BF18C9D7
:1003F00018C0BDE810405FEA827C24BF51F8043B7E
:1004000040F8043B08BF7047D20728BF31F8023BD1
:1004100048BF11F8012B28BF20F8023B48BF00F865
:10042000012B70474FF0000200B5134694469646E4
:10043000203922BFA0E80C50A0E80C50B1F12001F7
:10044000BFF4F7AF090728BFA0E80C5048BF0CC0A5
:100450005DF804EB890028BF40F8042B08BF704703
:1004600048BF20F8022B11F0804F18BF00F8012B75
:100470007047704770477047004870470822002057
:1004800070477546FFF7F8FFAE46050069465346CC
:1004900020F00700854618B020B5FFF77FFFBDE8C4
:1004A00020404FF000064FF000074FF000084FF0DB
:1004B000000B21F00701AC46ACE8C009ACE8C0096C
:1004C000ACE8C009ACE8C0098D46704710B50446D9
:1004D000AFF300802046BDE81040FFF7EABE000001
:1004E00001491820ABBEFEE72600020070B50546A4
:1004F000AC6AE06D00F0500098BBE06D40F4007015
:10050000E0652068006800F00800A8B1206802F0EB
:100510000EFE10B32068C06800F40050E8B9E06D2A
:1005200020F48070E065E06D00F48050A8B9E06DC3
:1005300040F00100E06510E02068C06800F00200B3
:1005400058B9E06D20F48070E065E06D00F48050F3
:1005500018B9E06D40F00100E065204600F0A0FC15
:100560000CE0FFE7E06D00F0100018B1204600F04D
:1005700099FC03E0606D416B2846884770BD70B5FB
:100580000546AC6AE06D40F04000E065206E40F04A
:1005900004002066204600F085FC70BD70B504465E
:1005A000A56A284600F07DFC70BD000070B50446C9
:1005B000206802F09EFD0646206802F09FFD98B379
:1005C00096BB2068806800F00D0001280AD12068E1
:1005D00081681A4A1140891C816000BF032021688C
:1005E000086009E0E06D40F01000E065206E40F02A
:1005F00001002066012070BD01F044F9054614E0B9
:1006000001F040F9401B02280FD92068806800F0F3
:10061000010050B1E06D40F01000E065206E40F048
:10062000010020660120E6E705E02068806800F010
:1006300001000028E4D10020DDE70000C0FFFF7FBB
:1006400038B5044600200090206802F057FD0028CD
:100650004FD1206880682849084048B1E06D40F0DB
:100660001000E065206E40F001002066012038BDDA
:10067000206802F023FD00BF2048806800F0E07091
:1006800000F4000080B11E4800681E49B0FBF1F084
:10069000401C00EB40008000009002E00098401EEB
:1006A000009000980028F9D101F0ECF805461AE016
:1006B000206802F023FD10B9206802F0FFFC01F071
:1006C000E1F8401B02280ED92068006800F0010004
:1006D00048B9E06D40F01000E065206E40F0010088
:1006E00020660120C3E72068006800F001000028B0
:1006F000DED00020BBE700003F0000800003005078
:1007000018000020400D030000BFFEE710B50248AE
:1007100000F088FE10BD00008C12002010B50248C9
:1007200000F080FE10BD0000EC12002030B50E4D30
:100730000468AC4201D20D4901E00C4920310B465E
:100740000478083C1425B4FBF5F2446CA40803EBD0
:1007500084048464054C8034C46402F01F050124C1
:10076000AC40046530BD00000804024000080240AF
:1007700001794A1E064B03EB82024265044A40326D
:1007800082654A1E02F01F0301229A40C26570472B
:100790000009024030B5D0E913546C60446D14B1C7
:1007A000D0E916546C6090F8444004F01F05012411
:1007B000AC40056C6C60046863608468102C04D1E4
:1007C0000468A2600468E16003E00468A160046852
:1007D000E26030BD704772B600BFFEE7F8B5044670
:1007E0000D460020009000BF94F85800012801D168
:1007F0000220F8BD012084F8580000BF2046FFF712
:10080000D5FE06468EBBE06D20F4885040F0020015
:10081000E065206881681B4A114005F0804242F083
:1008200000421143816000BF13E00098401C00901B
:100830001549009888420CD3E06D20F0020040F08A
:100840001000E06500BF002084F8580000BF0120C0
:10085000CFE720688168C90F0029E6D1E06D20F05C
:10086000020040F00100E06504E0FFE7E06D40F0C9
:100870001000E06500BF002084F8580000BF30463B
:10088000B7E70000C0FFFF3F02DE04002DE9F043A0
:100890009BB004460E464FF00008306800B100BF20
:1008A00000BF94F85800012803D102201BB0BDE816
:1008B000F083012084F8580000BF002017901890A2
:1008C0002068B0F1A04F02D13148009001E0002033
:1008D0000090009850B9E06D40F02000E06500BF46
:1008E000002084F8580000BF0120DFE7009802F0E4
:1008F00019FC0746206802F015FCD8BBD7BB254D74
:10090000306800B394F83800716841EA4030A96853
:1009100021F460410843A8604FF0A04002F0F3FBCF
:1009200081461B4802F0EFFB49EA0009B9F1000FCC
:1009300027D1B16830680843A96840F61F72914317
:100940000843A8601DE0A86820F46040A8604FF04C
:10095000A04002F0D8FB81460D4802F0D4FB49EAE2
:100960000009B9F1000F0CD1A86840F61F71884347
:10097000A86006E0FFE7E06D40F02000E0654FF082
:10098000010800BF002084F8580000BF40468DE7F2
:1009900000010050000300502DE9F84F05460C46B9
:1009A0004FF0000A00200090FE49E068884200D025
:1009B00000E000BF00BF95F85800012802D10220D6
:1009C000BDE8F88F012085F8580000BF286802F0C4
:1009D000A4FB00287DD12968D4E9002001F1300C66
:1009E000C0F3012B0CEB8B03D3F800C000F01F0EFB
:1009F0004FF01F0B0BFA0EFB2CEA0B0C00F01F0B39
:100A0000C2F3846E0EFA0BFE4CEA0E0CC3F800C063
:100A100000BF286802F081FB8146286802F064FB71
:100A20008046B9F1000F64D1B8F1000FFBD1A06886
:100A3000B0F1004F0AD121680022286802F088FB3B
:100A40004FF00041286802F0A8FB08E0A268216886
:100A5000286802F07DFB0021286802F09EFB606997
:100A60002968C968C1F3C101490000FA01F720698A
:100A700004283FD028682268216900F1600C0CEB43
:100A80008103D3F800C0DFF820B30CEA0B0C02F0AE
:100A9000F84B4BF0004B4BEA070B4CEA0B0CC3F83E
:100AA00000C000BF2868A269216900F1600C0CEB4E
:100AB0008103D3F800C02CF0807C4CEA020CC3F810
:100AC00000C000BF2868227F2169012A02D1520696
:100AD00001E0C6E10022134600F1600C0CEB81023C
:100AE000D2F800C02CF0007C4CEA030CC2F800C025
:100AF00000BFA7E00021286802F0EDFAC0F3120061
:100B000030B90021286802F0E6FAC0F3846007E0FB
:100B10000021286802F0DFFA90FAA0F0B0FA80F025
:100B20002168C1F3120119B92168C1F3846104E09D
:100B3000216891FAA1F1B1FA81F1884204D1002231
:100B40001146286802F01EFB0121286802F0C3FA52
:100B5000C0F3120030B90121286802F0BCFAC0F3DA
:100B6000846007E00121286802F0B5FA90FAA0F04D
:100B7000B0FA80F02168C1F3120119B92168C1F3FC
:100B8000846104E0216891FAA1F1B1FA81F188420F
:100B900004D100220121286802F0F4FA0221286819
:100BA00002F099FAC0F3120030B90221286802F06D
:100BB00092FAC0F3846007E00221286802F08BFA01
:100BC00090FAA0F0B0FA80F02168C1F3120119B9CF
:100BD0002168C1F3846104E0216891FAA1F1B1FABE
:100BE00081F1884204D100220221286802F0CAFA69
:100BF0000321286802F06FFAC0F3120030B9032114
:100C0000286802F068FAC0F3846007E003212868CE
:100C100002F061FA90FAA0F0B0FA80F02168C1F316
:100C2000120119B92168C1F3846104E0216891FAC5
:100C3000A1F1B1FA81F1884204D100220321286890
:100C400002F0A0FA286802F059FA002872D1286848
:100C5000E2682168D0F8B030C1F3120C23EA0C032B
:100C600002F0180BDFF844C12CFA0BFC0CEA010C63
:100C700043EA0C03C0F8B03000BF4A49E06888423C
:100C800058D12368C3F312031BB92368C3F38463E9
:100C900004E0236893FAA3F3B3FA83F35B1C03F035
:100CA0001F03092B3ED82368C3F312031BB9236823
:100CB000C3F3846304E0236893FAA3F3B3FA83F3E2
:100CC0005B1C03F01F034FF0010C0CFA03FC2368BC
:100CD000C3F312031BB92368C3F3846304E02368DE
:100CE00093FAA3F3B3FA83F35B1C03F01F034CEAFC
:100CF000836C2368C3F312031BB92368C3F38463B3
:100D000004E0236893FAA3F3B3FA83F35B1C03F0C4
:100D10001F0303EB43034FF0000B4BEA03534CEA72
:100D2000030347E02368C3F3120323B92368C3F323
:100D3000846305E043E0236893FAA3F3B3FA83F3F3
:100D40005B1C03F01F034FF0010C0CFA03FC23683B
:100D5000C3F312031BB92368C3F3846304E023685D
:100D600093FAA3F3B3FA83F35B1C03F01F034CEA7B
:100D7000836C2368C3F312031BB92368C3F3846332
:100D800004E0236893FAA3F3B3FA83F35B1C03F044
:100D90001F030A3B03EB43034FF0007B4BEA035373
:100DA00006E0000000007F4000F0FF03FFFF0700A7
:100DB0004CEA03031946A268286802F0C9F92F49D2
:100DC0002068084050B300BF2D48806800F0E076EE
:100DD00000BF2C492068884203D02B4920688842F4
:100DE0001DD106F40000D0B92868B0F1A04F3ED163
:100DF00046F40001224802F0BFF924480068244963
:100E0000B0FBF1F0401C00EB40008000009002E0DD
:100E10000098401E009000980028F9D127E01D4955
:100E2000206888420CD106F0807048B91A492868B9
:100E300088421CD046F08071114802F09DF916E0FE
:100E400016492068884212D106F4800078B9124908
:100E5000286888420BD046F48001094802F08CF9DA
:100E600005E0E86D40F02000E8654FF0010A00BFA2
:100E7000002085F8580000BF5046A1E5000008801A
:100E800000030050000021C31000C0901800002093
:100E9000400D0300000052C700010050000084CB49
:100EA00070477047704700002DE9F84304464FF043
:100EB00000080020009014B90120BDE8F8836069A3
:100EC00020B194F82400012800D100BFE06D30B9B2
:100ED000204600F017F90020206684F858002068AA
:100EE0008168C1F3407131B1206881687E4A114048
:100EF000816000BF00BF206802F00AF9B0B9206825
:100F000081687A4A114041F08051816000BF784881
:100F100000687849B0FBF1F0401C4000009002E00E
:100F20000098401E009000980028F9D1206802F037
:100F3000EFF848B9E06D40F01000E065206E40F039
:100F4000010020664FF00108206802F0E6F806462E
:100F5000E06D00F01000002877D1002EFCD1E06D8C
:100F600020F4807040F00200E065206802F0C6F8CE
:100F7000B0B94FF0A04002F0C1F881465E4802F0DF
:100F8000BDF849EA0009B9F1000F09D160685B4971
:100F9000896821F47C110143584A916000BF00BF69
:100FA000607FE16B41EA4030E1680843A168084393
:100FB00094F8241040EA014594F82400012803D154
:100FC000208D401E45EA4045E06A28B1A08D00F41E
:100FD0007870216B084305432068C0684849084081
:100FE00028432168C8602068006920F04060616B78
:100FF000084321680861206802F076F80746002E51
:1010000050D1EFBB207F002141EA803194F83800B5
:1010100041EA40052068C06844F202018843284341
:101020002168C860206988B12068006940F4803078
:10103000216808612068D0F8C0006FF30D002169B5
:1010400008432168C1F8C0000EE045E0206800694F
:1010500020F48030216808612068D0F8C0006FF368
:101060000D002168C1F8C00094F84000012813D198
:10107000606C40F00101A06C0843E16C084300E0A3
:1010800010E0216D08432168096940F2FC72914328
:1010900008432168086105E02068006920F001002C
:1010A000216808616069012809D12068006B20F07F
:1010B0000F00216A491E08432168086305E0206883
:1010C000006B20F00F0021680863E06D20F0020043
:1010D00040F00100E06505E0E06D40F01000E065E3
:1010E0004FF001084046E8E6C0FFFF5FC0FFFF7F0A
:1010F00018000020400D03000001005000030050C4
:101100000740F0FF10B598B00446142113A8FFF76C
:1011100089F9442102A8FFF785F92068B0F1A04FB2
:1011200070D14FF4004002908003119002A800F0AB
:1011300019FD08B1FFF74FFB6D480068401C6C4972
:1011400008600846006801280DD100BF6948C06CDE
:1011500040F400506749C8640846C06C00F4005071
:10116000019000BF00BF00BF6248C06C40F00100AA
:101170006049C8640846C06C00F00100019000BFDF
:1011800000BF00BF0846C06C40F00200C8640846BB
:10119000C06C00F00200019000BF00BF052013905A
:1011A000032014900020159013A94FF0904000F0F8
:1011B00083FA4FF480401390032014900020159080
:1011C00013A94D4800F078FA4C484D4908600520B5
:1011D000486000214A488160C16080210161490066
:1011E0004161890081612021C1610021016200F01B
:1011F00099F908B1FFF7EFFA00BF414860658462D2
:1012000073E0FFE73F49206888426ED1C001029039
:101210008003119002A800F0A5FC08B1FFF7DBFAEB
:1012200033480068401C32490860084600680128BD
:101230000DD100BF2F48C06C40F400502D49C86448
:101240000846C06C00F40050019000BF00BF00BF12
:101250002848C06C40F004002649C8640846C06CA9
:1012600000F00400019000BF00BF00BF0846C06C42
:1012700040F00100C8640846C06C00F00100019015
:1012800000BF00BF01201390032014900020159090
:1012900013A91D4800F010FA822013900320149027
:1012A0000020159013A94FF0904000F005FA134864
:1012B00014301649086024204860002113488160DA
:1012C000C160802101614900416189008161202163
:1012D000C1610021016200F025F908B1FFF77BFA36
:1012E00000BF0A486065846200BF18B010BD0000EE
:1012F00008000020001002400004004808000240DE
:101300008C1200200001005000080048EC12002060
:101310002DE9F04104460F4690463D4801F0D6FEC7
:101320000646206801F0F9FE00286DD100BF94F850
:101330005800012802D10220BDE8F081012084F884
:10134000580000BF1EB1052E01D0092E56D12046EF
:10135000FFF776F90546002D4BD1E06D40F60161AF
:10136000884340F48070E0652A492068884202D1B1
:101370004FF0A04000E020682168884200D01EB9EC
:10138000E06D20F48010E065E06D00F4805020B145
:10139000206E20F00600206601E0002020661E4836
:1013A000616DC8621D48616D08631D48616D4863C9
:1013B0001C202168086000BF002084F8580000BF8E
:1013C0002068406840F01000216848602068C068CC
:1013D00040F001002168C860226802F140014346E4
:1013E0003A46606D00F006F90546206801F0A8FE57
:1013F0000BE000BF002084F8580006E0012500BF84
:10140000002084F8580000E00225284694E70000F8
:101410000003005000010050ED0400089D05000885
:101420007F05000870B50446206C056820680668D2
:1014300094F8440000F01F01042088402840E0B1E7
:1014400006F00400C8B12068006800F0200028B948
:101450002068006820F004002168086094F84400C7
:1014600000F01F0104208840216C4860206B002898
:1014700056D02046216B884752E094F8440000F093
:101480001F0102208840284018B306F0020000B374
:101490002068006800F0200040B92068006820F053
:1014A0000A0021680860012084F8250094F84400AF
:1014B00000F01F0102208840216C486000BF00201E
:1014C00084F8240000BFE06A50B32046E16A8847F0
:1014D00026E094F8440000F01F01082088402840CE
:1014E000F0B106F00800D8B12068006820F00E00C6
:1014F0002168086094F8440000F01F010120884032
:10150000216C48600120E06384F8250000BF0020C2
:1015100084F8240000BF606B10B12046616B8847DF
:1015200070BD000070B504460CB9012070BD2F4994
:10153000206888420BD22E492068401A1421B0FB43
:10154000F1F0800060642A48083820640AE02749E6
:101550002068401A1421B0FBF1F080006064234839
:1015600008382064022084F825002068056847F6C2
:10157000F0708543D4E90201084321690843616999
:101580000843A1690843E1690843216A0843054308
:10159000206805602046FFF7C9F8A068B0F5804FC5
:1015A00001D1002060602079A16C0860D4E913109B
:1015B0004860606860B16068042809D82046FFF779
:1015C000D7F80020616D0860D4E91610486003E088
:1015D00000206065A065E0650020E063012084F8DC
:1015E0002500002084F8240000BF9FE70804024083
:1015F000080002402DE9F04104460D4616461F46FC
:101600004FF0000800BF94F82400012802D1022006
:10161000BDE8F081012084F8240000BF94F8250083
:1016200001283FD1022084F825000020E0632068D3
:10163000006820F00100216808603B4632462946D8
:101640002046FFF7A7F8206B30B12068006840F013
:101650000E00216808600BE02068006820F004009C
:10166000216808602068006840F00A00216808606E
:10167000A06C006800F4803028B1A06C006840F4D1
:101680008070A16C0860606D28B1606D006840F4E6
:101690008070616D08602068006840F0010021687A
:1016A000086006E000BF002084F8240000BF4FF06F
:1016B00002084046ACE7000078B502460B46002120
:1016C000CAE001268E401D6805EA0604002C73D08E
:1016D0001D7905F00305012D04D01D7905F00305E2
:1016E000022D13D190684E000325B540A8434E004B
:1016F000DD68B54028439060506801258D40A843BF
:101700001D79C5F300158D40284350601D7905F003
:101710000305032D09D0D0684E000325B540A8432A
:101720004E009D68B5402843D0601D7905F0030543
:10173000022D13D1CE0802F1200555F826004D07E1
:10174000EE0E0F25B540A8434E07F60E1D69B540B5
:101750002843CE0802F1200545F8260010684E0007
:101760000325B540A8431D7905F003054E00B5409B
:10177000284310605D6805F44035002D6BD000BF34
:10178000384D2D6E45F00105364E356635462D6EC9
:1017900005F00105009500BF00BF4FEAB6358E0881
:1017A00055F826008D072E0F0F25B540A843B2F13E
:1017B000904F02D100251AE04DE02B4DAA4201D1F5
:1017C000012514E0294DAA4201D102250FE0284D40
:1017D000AA4201D103250AE0264DAA4201D10425DF
:1017E00005E0254DAA4201D1052500E006258E071A
:1017F000360FB5402843214D8E0845F82600204D70
:101800002868A0435D6805F4801505B120431C4D90
:1018100028602D1D2868A0435D6805F4001505B1FA
:101820002043174D2D1D2860154D2D1F2868A043FE
:101830005D6805F4003505B12043114D2D1F28606A
:101840002D1F2868A0435D6805F4803505B120434D
:101850000B4D083D2860491C1D68CD40002D7FF4CC
:1018600030AF78BD00100240000400480008004876
:10187000000C004800100048001400480800014017
:101880000804014001480068704700000C00002077
:101890000348006803490968084401490860704723
:1018A0000C0000201400002010B50024032000F0DC
:1018B000AFF80F2000F008F808B1012401E000F0B3
:1018C0002FF8204610BD000070B5044600251148D1
:1018D0000068D8B10F4800684FF47A71B1FBF0F09E
:1018E0000D490968B1FBF0F6304600F0FFFE58B92B
:1018F000102C07D200222146501E00F04BF807485A
:10190000046004E0012502E0012500E001252846ED
:1019100070BD0000140000201800002010000020FE
:1019200008B500BF1048006E40F001000E4908667F
:101930000846006E00F00100009000BF00BF00BF2D
:101940000846806D40F0805088650846806D00F044
:101950008050009000BF00BF00220F21901E00F0B9
:1019600019F800F0F5F808BD0010024001460846DD
:1019700000280DDB00BF00BF00F01F0301229A40CA
:1019800043099B0003F1E023C3F8002100BF00BF1F
:1019900000BF70472DE9F05F80460D46164602F005
:1019A0000BFB074639462A46334601F00700C0F1D3
:1019B000070ABAF1040F02D94FF0040A01E0C0F19E
:1019C000070AD14600F1040ABAF1070F02D24FF01C
:1019D000000A01E0A0F1030AD4464FF0010A0AFA16
:1019E00009FAAAF1010A0AEA020A0AFA0CFA4FF005
:1019F000010B0BFA0CFBABF1010B0BEA030B4AEAF0
:101A00000B042146404602F0DFFABDE8F09F0000DB
:101A100000BF00F00702064B19684FF6FF0319409C
:101A2000044B0B4343EA0221014B196000BF70478E
:101A30000CED00E00000FA0502468ABB4148006850
:101A400000F4C060B0F5806F2BD13E488030006854
:101A500020F480703B4BC3F880001846006820F4E7
:101A6000C06040F400701860374800683223584363
:101A7000364BB0FBF3F0411C00E0491E3148406991
:101A800000F48060B0F5806F01D10029F5D12D48B8
:101A9000406900F48060B0F5806F51D10320704739
:101AA00008E028488030006820F48070254BC3F897
:101AB000800045E0B2F5007F3AD12248006800F48A
:101AC000C060B0F5806F2AD11E488030006840F4B5
:101AD00080701C4BC3F880001846006820F4C0607A
:101AE00040F4007018601848006832235843174BC0
:101AF000B0FBF3F0411C00E0491E1248406900F4BD
:101B00008060B0F5806F01D10029F5D10D484069A2
:101B100000F48060B0F5806F12D10320BFE7094860
:101B20008030006840F48070064BC3F8800007E006
:101B30000448006820F4C06040F48060014B1860E5
:101B40000020ACE7007000401800002040420F0069
:101B50000348806840F48040014988607047000075
:101B6000007000402DE9F84304460027B84620687D
:101B700000F40020B0F5002F73D1B946D348806D32
:101B800000F0805078B900BFD048806D40F08050A0
:101B9000CE4988650846806D00F08050009000BFF7
:101BA00000BF4FF00109CA48006840F48070C8497E
:101BB0000860FFF767FE064606E0FFF763FE801B3E
:101BC000022801D9032705E0C148006800F48070AD
:101BD0000028F2D000BF002F46D1BC4890300068EA
:101BE00000F44075CDB1206CA84216D0B7489030B3
:101BF000006820F44075B548D0F8900040F480307B
:101C0000B249C1F890000846D0F8900020F4803026
:101C1000C1F890000846C0F8905005F00100A0B14E
:101C2000FFF730FE064608E0FFF72CFE801B41F26E
:101C30008831884201D9032706E0A4489030006823
:101C400000F002000028EFD000BF5FB99F4890303D
:101C5000006820F44070216C08439C49C1F8900052
:101C600003E00CE0B84600E0B846B9F1010F05D139
:101C70009648806D20F080509449886500BF207898
:101C800000F0010048B191488830006820F003005E
:101C9000616808438D49C1F88800207800F002008F
:101CA000022809D189488830006820F00C00A1681A
:101CB00008438649C1F88800207800F00400042811
:101CC00009D182488830006820F03000E16808437C
:101CD0007E49C1F88800207800F00800082809D162
:101CE0007A488830006820F0C000216908437749AD
:101CF000C1F88800207800F02000202809D173481E
:101D00008830006820F44060616908436F49C1F879
:101D10008800207800F04000402809D16B488830C6
:101D2000006820F44050A16908436849C1F8880060
:101D3000207800F08000802809D16448883000684D
:101D400020F44040E16908436049C1F888002088D8
:101D500000F48070B0F5807F09D15C48883000685D
:101D600020F44030216A08435849C1F8880020888F
:101D700000F40070B0F5007F09D154488830006845
:101D800020F44020616A08435049C1F88800208847
:101D900000F48060B0F5806F13D14C488830006843
:101DA00020F44010A16A0843484988310860A06ABD
:101DB000B0F5801F05D14548C06840F48010434904
:101DC000C860208800F40060B0F5006F13D13F4870
:101DD0008830006820F44000E16A08433B498831BC
:101DE0000860E06AB0F5800F05D13848C06840F45B
:101DF00080103649C860208800F48050B0F5805FBC
:101E000013D132488830006820F04070216B0843BD
:101E10002E4988310860206BB0F1807F05D12B48B6
:101E2000C06840F480102949C860208800F4005040
:101E3000B0F5005F13D125488830006820F040607D
:101E4000616B0843214988310860606BB0F1006F15
:101E500005D11E48C06840F480101C49C860208825
:101E600000F48040B0F5804F13D1184888300068E6
:101E700020F04060A16B0843144988310860A06BD2
:101E8000B0F1006F05D11148C06840F480100F49CF
:101E9000C860208800F40040B0F5004F13D10B4813
:101EA0008830006820F04050E16B084307498831D2
:101EB0000860E06BB0F1805F05D10448C06840F471
:101EC00080300249C8604046BDE8F88300100240F7
:101ED000007000402DE9F04104460D464FF0000827
:101EE00014B90120BDE8F0817D48006800F00F00C2
:101EF000A8420ED27A48006820F00F0028437849A3
:101F000008600846006800F00F00A84201D00120D8
:101F1000E8E7207800F00100002864D0606803281A
:101F200023D17048006800F0007008B90120D9E79B
:101F300001F09EFC06466C48864237D969488068A5
:101F400000F0F00030B1207800F0020002282DD11E
:101F5000A06858BB6348806820F0F00040F0800023
:101F6000604988604FF0800820E06068022806D150
:101F70005C48006800F4003040B90120B2E75948DD
:101F8000006800F4806008B90120ABE700F0B4F805
:101F900006465548864209D95248806820F0F0002C
:101FA00040F080004F4988604FF080084D488068BD
:101FB00020F00300616808434A498860FFF762FC2B
:101FC000074608E0FFF75EFCC01B41F288318842FB
:101FD00001D9032086E74348806800F00C0061685F
:101FE000B0EB810FEED1207800F00200022820D162
:101FF000207800F00400042805D13A48806840F4B5
:10200000E06038498860207800F00800082807D18F
:102010003448806820F4605040F4E06031498860C2
:102020003048806820F0F000A16808432D4988609E
:1020300008E0B8F1800F05D12A48806820F0F00050
:10204000284988602648006800F00F00A84219D986
:102050002348006820F00F00284321490860FFF75B
:1020600011FC074608E0FFF70DFCC01B41F2883168
:10207000884201D9032035E71948006800F00F00B5
:10208000A842F0D1207800F00400042807D11548B8
:10209000806820F4E060E168084312498860207895
:1020A00000F00800082808D10E48806820F460502D
:1020B000216940EAC1000B49886000F01DF8094918
:1020C0008968C1F30311094A515C01F01F01C8403E
:1020D0000749086007480068FFF7F6FB02E70000C1
:1020E000002002400010024000B4C404A4520008C2
:1020F000180000201000002070B5224DAD6805F0DA
:102100000C05042D01D120483AE01E4DAD6805F0C4
:102110000C05082D01D11D4832E01A4DAD6805F0BF
:102120000C050C2D2BD1174DED6805F00304154D52
:10213000ED68C5F303156A1C022C0CD0032C09D1E1
:10214000124DB5FBF2F50F4EF668C6F3062605FBF9
:1021500006F10AE000BF0C4DB5FBF2F5094EF6683A
:10216000C6F3062605FB06F100BF00BF054DED686E
:10217000C5F341656D1C6B00B1FBF3F000E000207E
:1021800070BD0000001002400024F40000127A002C
:102190002DE9F843044614B90120BDE8F8832078FE
:1021A00000F00100002865D0FC48806800F00C07B2
:1021B000FA48C06800F003060C2F01D1032E01D0AD
:1021C000082F0AD1F548006800F40030002851D0EB
:1021D000606800284ED10120DFE700BF6068B0F5DD
:1021E000803F06D1ED48006840F48030EB4908603C
:1021F0001AE06068B0F5A02F0BD1E848006840F401
:102200008020E64908600846006840F48030086095
:102210000AE0E248006820F48030E049086008469F
:10222000006820F48020086000BF606888B1FFF774
:1022300029FB054606E0FFF725FB401B642801D972
:102240000320AAE7D548006800F400300028F2D047
:1022500010E0FFF717FB054606E0FFF713FB401BF6
:10226000642801D9032098E7CC48006800F40030C6
:102270000028F2D1207800F00200022860D1C7487F
:10228000806800F00C07C548C06800F003060C2FFA
:1022900001D1022E01D0042F18D1C048006800F4EB
:1022A000806018B1E06808B9012076E7BB48406853
:1022B00020F0FE40217C40EA0160B8494860B848FF
:1022C0000068FFF701FB18B3012066E7E06800B380
:1022D000B248006840F48070B0490860FFF7D2FA55
:1022E000054606E0FFF7CEFA401B022801D903207D
:1022F00053E7AA48006800F480600028F2D0A7489D
:10230000406820F0FE40217C40EA0160A34948601B
:1023100016E0A248006820F48070A0490860FFF72A
:10232000B1FA054606E0FFF7ADFA401B022801D9D5
:10233000032032E79948006800F480600028F2D159
:10234000207800F00800082836D16069D0B19348A1
:102350009430006840F001009049C1F89400FFF704
:1023600091FA054606E0FFF78DFA401B022801D9D5
:10237000032012E789489430006800F0020000282A
:10238000F1D019E085489430006820F001008349BD
:10239000C1F89400FFF776FA054606E0FFF772FAF7
:1023A000401B022801D90320F7E67C4894300068DE
:1023B00000F002000028F1D1207800F00400042889
:1023C00072D14FF000087548806D012121EA10702C
:1023D00078B100BF7148806D40F080506F498865CA
:1023E0000846806D00F08050009000BF00BF4FF0A5
:1023F00001086C48006800F48070B0B96948006852
:1024000040F4807067490860FFF73CFA054606E033
:10241000FFF738FA401B022801D90320BDE66148C6
:10242000006800F480700028F2D000BFA068012886
:1024300008D15A489030006840F001005749C1F86F
:10244000900021E0A06805280FD154489030006822
:1024500040F004005149C1F890000846D0F89000BF
:1024600040F00100C1F890000EE04C489030006848
:1024700020F001004949C1F890000846D0F89000CA
:1024800020F00400C1F8900000BFA068A8B1FFF7D9
:10249000F9F9054609E0FFF7F5F9401B41F28831EB
:1024A000884202D9032078E625E03C489030006855
:1024B00000F002000028EED013E0FFF7E3F9054634
:1024C00008E0FFF7DFF9401B41F28831884201D96B
:1024D000032062E631489030006800F002000028D6
:1024E000EFD1B8F1010F05D12C48806D20F080505C
:1024F0002A49886500BF207800F02000202836D1C6
:10250000A069D0B125489830006840F00100234907
:10251000C1F89800FFF7B6F9054606E0FFF7B2F9F3
:10252000401B022801D9032037E61C489830006878
:1025300000F002000028F1D019E018489830006837
:1025400020F001001549C1F89800FFF79BF90546F6
:1025500006E0FFF797F9401B022801D903201CE68B
:102560000E489830006800F002000028F1D1E069C0
:10257000002860D00948806800F00C000C287AD050
:10258000E069022858D10548006820F080700349AE
:102590000860FFF777F905460DE0000000100240E3
:1025A0001000002000700040FFF76CF9401B02286B
:1025B00001D90320F1E54A48006800F000700028C6
:1025C000F2D1D4E90810401E41EA0011A06A41EAA4
:1025D0000021208E0122C2EB500041EA40513420FC
:1025E000005DC2EB500041EA40612C20005D41EAF1
:1025F000C0603B49C9683B4A114008433849C8603C
:102600000846006840F0807008600846C06840F0E6
:102610008070C860FFF736F9054606E0FFF732F92B
:10262000401B022801D90320B7E52D48006800F0BF
:1026300000700028F2D051E02948006820F0807036
:1026400027490860FFF71EF9054606E0FFF71AF96B
:10265000401B022801D903209FE52148006800F0B3
:1026600000700028F2D11E48C0681F4908401C496C
:10267000C86033E0FFE7E069012800D18DE5184824
:10268000C66806F00301206A814225D106F0F001F8
:10269000606A401EB1EB001F1ED106F4FE41A06A25
:1026A000B1EB002F18D106F078412C20005DB1EB82
:1026B000C06F11D106F4C001208E0122C2EB500080
:1026C000B1EB405F08D106F0C0613420005DC2EB81
:1026D0005000B1EB406F01D001205EE500205CE5C9
:1026E000001002400C809F01FCFFEEFE70B5044616
:1026F0002546681EB0F1807F01D301200FE0681EDF
:102700004FF0E02148610F214FF0FF3001F05CFCF9
:1027100000204FF0E021886107200861002070BD93
:1027200070477047704770477047704730B5024632
:102730000B4600BF92F83C00012801D1022030BDB9
:10274000012082F83C0000BF022082F83D001068A2
:102750004168106884681D4D1068A84203D01C4D64
:102760001068A84203D121F4700158680143194848
:1027700001401868014310684160144D1068A84278
:1027800013D01068B0F1804F0FD0134D1068A842DD
:102790000BD0124D1068A84207D00D4D1068A8420A
:1027A00003D00F4D1068A84205D124F0800498682A
:1027B000044310688460012082F83D0000BF0020BF
:1027C00082F83C0000BF00BFB9E70000002C0140C8
:1027D000003401408FFFFFFD00040040000800406E
:1027E00000400140704710B504460CB9012010BDEF
:1027F00094F83D0028B9002084F83C00204600F001
:1028000029F8022084F83D00211D206801F048F9D4
:10281000012084F8480000BF84F83E0001213F20D9
:1028200001554020015541200155422001554320CA
:10283000015500BF00BF012084F844004520015528
:10284000462001554720015500BF012084F83D0076
:102850000020CCE738B504462068B0F1804F16D18F
:1028600000BF1848806D40F0010016498865084691
:10287000806D00F00100009000BF00BF0022052124
:102880001C20FFF787F81C20FFF770F819E00E49AD
:102890002068884215D100BF0A48806D40F00200D0
:1028A000084988650846806D00F00200009000BF6E
:1028B00000BF002205211D20FFF76CF81D20FFF747
:1028C00055F838BD00100240000400402DE9F041E9
:1028D00004460D46002700BF94F83C00012802D1B1
:1028E0000220BDE8F081012084F83C0000BF0220F6
:1028F00084F83D00206886683F48064026F47F46FD
:10290000206886602868702824D00CDC00F00F0155
:10291000002964D10011072861D2DFE800F0535488
:10292000555649353F00354A811A90424FD009DC4F
:10293000B0F5805F0DD0B0F5005F18D0B0F1101F7A
:102940004DD143E0102943D0202942D0502946D10F
:1029500040E046E0D5E902136A68206801F017F903
:102960002068866846F077062068866039E0D5E9F9
:1029700002136A68206801F00AF92068806840F450
:102980008040216888602CE0EA686968206801F06E
:10299000E9FA5021206801F005F922E0EA68696847
:1029A000206801F0F2FA6021206801F0FBF818E0DD
:1029B000EA686968206801F0D5FA4021206801F0D2
:1029C000F1F80EE000BF00BF00BF00BF00BF00BFB6
:1029D00000BF00BF2968206801F0E4F801E001278A
:1029E00000BF00BF012084F83D0000BF002084F834
:1029F0003C0000BF384674E788FFCEFF200010007F
:102A0000704770B504462068C6682068056905F0FF
:102A10000200022819D106F00200022815D1401F39
:102A200021680861012020772068806900F0030098
:102A300018B12046FFF7E4FF05E0204600F078F9E2
:102A4000204600F066FA0020207705F004000428F4
:102A500019D106F00400042815D1C043216808618B
:102A6000022020772068806900F4407018B1204669
:102A7000FFF7C6FF05E0204600F05AF9204600F0B7
:102A800048FA0020207705F00800082819D106F040
:102A90000800082815D1C043216808610420207768
:102AA0002068C06900F0030018B12046FFF7A8FFB6
:102AB00005E0204600F03CF9204600F02AFA00200C
:102AC000207705F01000102819D106F0100010280A
:102AD00015D1C04321680861082020772068C069AB
:102AE00000F4407018B12046FFF78AFF05E0204649
:102AF00000F01EF9204600F00CFA0020207705F0C7
:102B0000010048B106F0010030B16FF0010021680A
:102B10000861204600F0CEFA05F08000802804D03D
:102B200005F40050B0F5005F0AD106F0800080285F
:102B300006D16FF40250216808612046FFF7F1FDCD
:102B400005F48070B0F5807F0AD106F080008028FF
:102B500006D16FF48070216808612046FFF7E0FD20
:102B600005F04000402809D106F04000402805D17A
:102B7000C04321680861204600F09DFA05F020005E
:102B8000202809D106F02000202805D1C043216863
:102B900008612046FFF7C6FD05F48010B0F5801FE0
:102BA0000BD106F48010B0F5801F06D16FF48010B1
:102BB000216808612046FFF7B7FD05F40010B0F565
:102BC000001F0BD106F40010B0F5001F06D16FF402
:102BD0000010216808612046FFF7A5FD05F480007C
:102BE000B0F5800F0BD106F48000B0F5800F06D150
:102BF0006FF48000216808612046FFF796FD05F418
:102C00000000B0F5000F0BD106F40000B0F5000F86
:102C100006D16FF40000216808612046FFF7E2FD4D
:102C200070BD000010B586B00446142101A8FDF760
:102C3000F9FB2068B0F1804F37D100BF3948C06C34
:102C400040F001003749C8640846C06C00F001003C
:102C5000009000BF00BF00BF0846C06C40F00200FB
:102C6000C8640846C06C00F00200009000BF00BFBE
:102C70002020019002200290002003900490012067
:102C8000059001A94FF09040FEF716FD40F6084070
:102C900001900220029000200390049001200590F2
:102CA00001A92148FEF708FD39E020492068884243
:102CB00035D100BF1B48C06C40F001001949C86401
:102CC0000846C06C00F00100009000BF00BF00BFCC
:102CD0000846C06C40F00200C8640846C06C00F0B2
:102CE0000200009000BF00BF50200190022002901F
:102CF0000020039004900220059001A94FF090401D
:102D0000FEF7DAFC032001900220029000200390DD
:102D100004900220059001A90348FEF7CDFC06B0FF
:102D200010BD0000001002400004004800040040F4
:102D300070472DE9F04104460D461646002700BFB6
:102D400094F83C00012802D10220BDE8F081012066
:102D500084F83C0000BF0C2E51D005DC4EB1042E8F
:102D60001ED0082E7AD133E0102E60D0142EF9D167
:102D700075E02946206800F021FF2068806940F056
:102D80000800216888612068806920F004002168BB
:102D9000886120688069296908432168886178E032
:102DA0002946206800F060FF2068806940F40060D8
:102DB000216888612068806920F4806021688861CA
:102DC00020688069296940EA01202168886160E003
:102DD0002946206800F0A2FF2068C06940F0080082
:102DE0002168C8612068C06920F004002168C861BA
:102DF0002068C069296908432168C86149E02946FB
:102E0000206800F0E5FF2068C06940F40060216898
:102E1000C8612068C06920F480602168C8612068AA
:102E2000C069296940EA01202168C86131E029466A
:102E3000206801F027F82068006D40F00800216844
:102E400008652068006D20F004002168086520688E
:102E5000006D29690843216808651AE017E02946D2
:102E6000206801F047F82068006D40F40060216898
:102E700008652068006D20F480602168086520687E
:102E8000006D296940EA01202168086501E00127F9
:102E900000BF00BF00BF002084F83C0000BF3846E0
:102EA00053E710B504460CB9012010BD94F83D005D
:102EB00028B9002084F83C00204600F029F80220C0
:102EC00084F83D00211D206800F0EAFD012084F80F
:102ED000480000BF84F83E0001213F2001554020FA
:102EE000015541200155422001554320015500BFA5
:102EF00000BF012084F844004520015546200155BB
:102F00004720015500BF012084F83D000020CCE798
:102F100070477047F0B504460D46002715B994F880
:102F20003E0015E0042D02D13F20005D10E0082D89
:102F300002D14020005D0BE00C2D02D14120005D4C
:102F400006E0102D02D14220005D01E04320005D2B
:102F5000012801D00120F0BD1DB9022084F83E00F7
:102F60001AE0042D03D102213F20015514E0082D61
:102F700003D10221402001550EE00C2D03D1022186
:102F80004120015508E0102D03D1022142200155B6
:102F900002E002214320015535B1042D0BD0082D4C
:102FA00010D00C2D1CD114E02068C06840F0020045
:102FB0002168C86016E02068C06840F004002168FD
:102FC000C8600FE02068C06840F008002168C86051
:102FD00008E02068C06840F010002168C86001E087
:102FE000012700BF00BFEFBB01222946206800F087
:102FF000BDFD2849206888420FD0274920688842B3
:103000000BD026492068884207D02549206888428D
:1030100003D024492068884201D1012000E000202B
:1030200028B12068406C40F4004021684864194988
:103030002068884213D02068B0F1804F0FD01A4921
:10304000206888420BD019492068884207D012496D
:103050002068884203D011492068884212D1206834
:10306000806800E00DE0124900EA0106062E0FD04C
:10307000B6F5803F0CD02068006840F00100216860
:10308000086005E02068006840F0010021680860E1
:10309000384660E7002C0140003401400040014008
:1030A0000044014000480140000400400008004086
:1030B000070001007047704700BFFEE78168024AC1
:1030C0001140491C81607047C0FFFF7F014688683E
:1030D00000F01F007047024602F1600000EB810320
:1030E000186800F0F840704701468868C0F3C000D7
:1030F000704701468868C0F3400070470146886801
:1031000000F0010070470146886800F00100704738
:1031100001468868C0F30070704701468868C0F3B4
:103120008000704701468868C0F380007047014600
:10313000C86800F4406008B9012070470020FCE72F
:103140008168024A1140091D81607047C0FFFF7FFE
:1031500070B500F11404C1F3406504EB85031C68ED
:10316000C1F304560725B540AC43C1F3045502FA38
:1031700005F52C431C6070BD826822F0E0720A43A2
:103180008260704710B500F1600404EB81031C6895
:1031900024F0004414431C6010BD426922F0004238
:1031A0000A4342617047000000B58BB000200890D0
:1031B00009900A9020216846FDF734F94FF0A040AD
:1031C0002B4908604FF44030486000212848816056
:1031D000C160016101214161042181610021017708
:1031E000417703210162002180F82410C16201634C
:1031F000012180F838100021C16380F84010FDF7EC
:1032000053FE08B1FDF7E7FA0020089008A9184816
:10321000FDF73CFB08B1FDF7DEFA164800900620EA
:103220000190002002907F20039004200490002051
:10323000059069460E48FDF7AFFB08B1FDF7CBFAE4
:103240000D4800900C20019069460948FDF7A4FB49
:1032500008B1FDF7C0FA09480090122001906946B4
:103260000348FDF799FB08B1FDF7B5FA0BB000BDB7
:10327000B4110020020030040800900C2000F0146B
:1032800000B589B0202101A8FDF7CCF827482849CE
:1032900008604FF440304860002125488160C160DB
:1032A00001610121416104218161002101774177A0
:1032B00003210162002180F82410C1620163012111
:1032C00080F838100021C16380F84010FDF7ECFD54
:1032D00008B1FDF780FA17480190062002900020FF
:1032E00003907F200490042005900020069001A9FF
:1032F0000F48FDF751FB08B1FDF76DFA0E4801903C
:103300000C20029001A90A48FDF746FB08B1FDF721
:1033100062FA0A4801901220029001A90448FDF7C0
:103320003BFB08B1FDF757FA09B000BD00010050A2
:1033300020120020040060081000C0104000201976
:1033400008B500BF1548806C40F00400134988643C
:103350000846806C00F00400009000BF00BF00BF72
:103360000846806C40F0010088640846806C00F0DC
:103370000100009000BF00BF002205210B20FEF7D6
:1033800009FB0B20FEF7F2FA002205210C20FEF7C4
:1033900001FB0C20FEF7EAFA08BD00000010024015
:1033A00000B58BB014220C4906A8FDF709F80021DE
:1033B00006A801F07BF80949086014220649143177
:1033C00001A8FCF7FDFF002101A801F06FF80449F6
:1033D00008600BB000BD00007C5200080000002017
:1033E0000400002008B500BF1A48C06C40F004007B
:1033F0001849C8640846C06C00F00400009000BF83
:1034000000BF00BF0846C06C40F02000C8640846FA
:10341000C06C00F02000009000BF00BF00BF084655
:10342000C06C40F00100C8640846C06C00F00100A8
:10343000009000BF00BF00BF0846C06C40F0020013
:10344000C8640846C06C00F00200009000BF00BFD6
:1034500008BD00000010024000B58FB000200B90A6
:103460000C900D900E90089009900A901C2101A8D4
:10347000FCF7D8FF4FF080402F49086002204860D9
:1034800000212D48816040F2E731C16000210161D7
:103490008161FFF7A8F908B1FDF79DF94FF480505D
:1034A0000B900BA92448FFF711FA08B1FDF793F927
:1034B0002148FFF7F6FC08B1FDF78DF900200890D0
:1034C0000A9008A91C48FFF731F908B1FDF783F904
:1034D000602001904FF4FA60029000200390059064
:1034E000002201A91448FFF724FC08B1FDF773F985
:1034F00070200190042201A90F48FFF71AFC08B1BF
:10350000FDF769F960200190082201A90A48FFF738
:1035100010FC08B1FDF75FF9702001900C2201A9A1
:103520000548FFF706FC08B1FDF755F90248FFF71B
:1035300079FB0FB000BD00004C13002000B58FB028
:1035400000200B900C900D900E90089009900A901E
:103550001C2101A8FCF766FF2D482E4908600220B7
:10356000486000212B48816040F2E731C1600021B2
:1035700001618161FFF737F908B1FDF72CF94FF4CC
:1035800080500B900BA92348FFF7A0F908B1FDF775
:1035900022F92048FFF785FC08B1FDF71CF900204F
:1035A00008900A9008A91B48FFF7C0F808B1FDF77A
:1035B00012F9602001904FF4FA600290002003900D
:1035C0000590002201A91348FFF7B3FB08B1FDF7EE
:1035D00002F9042201A90F48FFF7ABFB08B1FDF780
:1035E000FAF870200190082201A90A48FFF7A1FB10
:1035F00008B1FDF7F0F80C2201A90648FFF799FB86
:1036000008B1FDF7E8F80348FFF70CFB0FB000BD69
:10361000000400409813002000BFFEE700BFFEE753
:10362000B0EE401A10B99FED790A704790ED100A7C
:1036300080ED110A90ED0F0A80ED100AC0ED060A28
:1036400080ED071A30EEC10A80ED0F0A01780029DB
:1036500075D190ED010AD0ED0F1A20EE210A80ED10
:10366000090A90ED0A0AD0ED021A90ED0F2A01EE38
:10367000820A80ED0A0A90ED0D0A80ED0E0A90EDA7
:103680000C0A80ED0D0A90ED0F0AD0ED101A30EE05
:10369000610A80ED0C0A90ED030AD0ED0C1A20EEC1
:1036A000210A80ED0B0A90ED0A0AD0ED051AB4EE5E
:1036B000E10AF1EE10FA04DD90ED050A80ED0A0A48
:1036C00010E090ED0A0AD0ED051AF1EE611AB4EEA1
:1036D000E10AF1EE10FA05D290ED050AB1EE400ACA
:1036E00080ED0A0A90ED090AD0ED0A1A30EE210A9F
:1036F000D0ED0B1A30EE210A80ED080A90ED080A91
:10370000D0ED041AB4EEE10AF1EE10FA04DD90ED0A
:10371000040A80ED080A76E090ED080AD0ED041A5C
:10372000F1EE611AB4EEE10AF1EE10FA6BD290ED0F
:10373000040AB1EE400A80ED080A64E0FFE7017870
:10374000012960D190ED0F0AD0ED101A30EE610A18
:10375000D0ED011A20EE210A80ED090A90ED020A4F
:10376000D0ED0F1A20EE210A80ED0A0A90ED0D0A25
:1037700080ED0E0A90ED0C0A80ED0D0A90ED0F0A17
:10378000D0ED101AB0EE002A02EE610AD0ED111A47
:1037900030EE210A80ED0C0A90ED030AD0ED0C1AF0
:1037A00020EE210A80ED0B0A90ED090AD0ED0A1AED
:1037B00030EE210AD0ED0B1A30EE210AD0ED081AB6
:1037C00030EE210A80ED080A90ED080AD0ED041AC7
:1037D000B4EEE10AF1EE10FA04DD90ED040A80ED9A
:1037E000080A10E090ED080AD0ED041AF1EE611A13
:1037F000B4EEE10AF1EE10FA05D290ED040AB1EE52
:10380000400A80ED080A90ED080A0EE7000000006B
:1038100000B102B97047017092ED001A80ED011AF3
:1038200092ED011A80ED021A92ED021A80ED031A50
:1038300080ED040AC0ED050A9FED0C1A80ED0E1A0A
:1038400080ED0D1A80ED0C1A9FED081A80ED081A14
:1038500080ED0B1A80ED0A1A80ED091A80ED111A1D
:1038600080ED101A80ED0F1A00BFD3E700000000B2
:1038700070B5164DED6805F00304144DED68C5F301
:1038800003156B1C022C0CD0032C09D1104DB5FB79
:10389000F3F50E4EF668C6F3062605FB06F10AE0C0
:1038A00000BF0C4DB5FBF3F5084EF668C6F30626CF
:1038B00005FB06F100BF00BF044DED68C5F341658F
:1038C0006D1C6A00B1FBF2F070BD000000100240F8
:1038D00000127A000024F40000BF012000F0D5FDA2
:1038E000FBE710B5FDF7D4FF01F08CFB012801D0F8
:1038F00001F03EFB10BD00B593B0382105A8FCF7E0
:1039000091FD14216846FCF78DFD4FF40070FEF721
:1039100093F802200590C0010890402009900220F1
:103920000C9002210D9104210E914B210F91022147
:1039300010911191129105A8FEF72AFC08B1FCF72D
:103940004AFF0F2000900320019000200290039076
:10395000049004216846FEF7BDFA08B1FCF73BFF6E
:1039600013B000BD0348006840F4700001490860CE
:103970007047000088ED00E010B50248FFF741F8FD
:1039800010BD00004C13002010B5404800686428AA
:1039900007DB00203D49086008460068401C0860BD
:1039A00004E03A480068401C3849086037496322FF
:1039B0000868002100F0F2FC354901EB800090ED31
:1039C000000ADFED340A20EE200ADFED330A80EE34
:1039D000201ABCEEC10A10EE100A3049096848638B
:1039E0002A49096801F132006322002100F0D6FC67
:1039F000274901EB800090ED000ADFED260A20EE5A
:103A0000200ADFED250A80EE201ABCEEC10A10EE76
:103A1000100A2249096888631C496322086800214A
:103A200000F0BCFC1A4901EB800090ED000ADFEDCC
:103A3000190A20EE200ADFED180A80EE201ABCEEEB
:103A4000C10A10EE100A15490968C8630F490968D0
:103A500001F132006322002100F0A0FC0C4901EBCF
:103A6000800090ED000ADFED0B0A20EE200ADFED6A
:103A70000A0A80EE201ABCEEC10A10EE100A0749AD
:103A8000096808640548FEF7BCFF10BDD42000207B
:103A90002410002000007A44000096439813002070
:103AA00010B502682A4B98420BD0B0F1804F08D075
:103AB000284B984205D0284B984202D0274B984279
:103AC00003D122F070024B681A43214B984214D064
:103AD000B0F1804F11D01F4B98420ED01E4B984230
:103AE0000BD01E4B984208D01D4B984205D01D4B61
:103AF000984202D01C4B984203D122F44072CB680A
:103B00001A4322F080034C6943EA040202608B6886
:103B1000C3620B6883620E4B98420BD00F4B9842E6
:103B200008D00F4B984205D00E4B984202D00E4B56
:103B3000984201D10B69036301234361036903F0D8
:103B400001031BB1036923F00103036110BD0000F1
:103B5000002C0140000400400008004000340140F7
:103B600000400140004401400048014030B501F0F0
:103B70001F05012404FA05F3046A9C430462046AE5
:103B800001F01F0502FA05F52C43046230BD30B583
:103B90000C46816821F47F4142EA032525432943ED
:103BA000816030BD0A468168034B194042F007032B
:103BB00019438160704700008FFFCFFF30B5026A64
:103BC000056A25F00105056243688469204D2C4093
:103BD00024F003040D682C4322F002028D682A436E
:103BE0001C4DA84200D10FE01B4DA84200D10BE0B4
:103BF0001A4DA84200D107E0194DA84200D103E0B8
:103C0000184DA84206D100BF22F00802CD682A4311
:103C100022F004020F4DA8420BD00F4DA84208D04D
:103C20000E4DA84205D00E4DA84202D00D4DA8421F
:103C300007D123F4807323F400734D692B438D69FE
:103C40002B43436084614D684563026230BD0000D0
:103C50008FFFFEFF002C0140003401400040014076
:103C6000004401400048014030B5026A056A25F071
:103C70001005056243688469224D2C4024F4407489
:103C80000D6844EA052422F020028D6842EA0512FC
:103C90001D4DA84200D10FE01C4DA84200D10BE001
:103CA0001B4DA84200D100BF1A4DA84200D100BF51
:103CB000194DA84207D106E022F08002CD6842EA01
:103CC000051222F04002104DA8420BD00F4DA84221
:103CD00008D00F4DA84205D00E4DA84202D00E4D7F
:103CE000A84209D123F4806323F400634D6943EAB9
:103CF00085038D6943EA8503436084614D6885636C
:103D0000026230BDFF8FFFFE002C014000340140F5
:103D100000400140004401400048014030B5026AC3
:103D2000056A25F4807505624368C469224D2C40FC
:103D300024F003040D682C4322F400728D6842EADB
:103D400005221E4DA84200D10FE01D4DA84200D112
:103D50000BE01C4DA84200D100BF1B4DA84200D172
:103D600000BF1A4DA84207D106E022F40062CD68D8
:103D700042EA052222F48062104DA8420BD0104D79
:103D8000A84208D00F4DA84205D00F4DA84202D03E
:103D90000E4DA84209D123F4805323F400534D69FA
:103DA00043EA05138D6943EA05134360C4614D6816
:103DB000C563026230BD00008FFFFEFF002C014092
:103DC00000340140004001400044014000480140EF
:103DD00030B5026A056A25F4805505624368C469F6
:103DE000224D2C4024F440740D6844EA052422F44A
:103DF00000528D6842EA05321D4DA84200D10FE005
:103E00001C4DA84200D10BE01B4DA84200D100BFC1
:103E10001A4DA84200D100BF194DA84207D106E0B3
:103E200022F40042CD6842EA053222F48042104D6D
:103E3000A8420BD00F4DA84208D00F4DA84205D084
:103E40000E4DA84202D00E4DA84209D123F4804362
:103E500023F400434D6943EA85138D6943EA8513D2
:103E60004360C4614D680564026230BDFF8FFFFE90
:103E7000002C01400034014000400140004401405A
:103E80000048014030B5026A056A25F480350562B4
:103E90004368046D114D2C400D682C4322F4003210
:103EA0000D8942EA05420E4DA8420BD00D4DA842A5
:103EB00008D00D4DA84205D00C4DA84202D00C4DA3
:103EC000A84204D123F480334D6943EA05234360BB
:103ED00004654D688564026230BD00008FFFFEFFFF
:103EE000002C0140003401400040014000440140EA
:103EF0000048014030B5026A056A25F48015056264
:103F00004368046D114D2C400D6844EA052422F4E9
:103F100000120D8942EA05520D4DA8420BD00D4DFD
:103F2000A84208D00C4DA84205D00C4DA84202D0A2
:103F30000B4DA84204D123F480234D6943EA852325
:103F4000436004654D68C564026230BDFF8FFFFEAB
:103F5000002C014000340140004001400044014079
:103F60000048014030B50B461446026A056A25F048
:103F700001050562816921F0F00141EA041122F096
:103F80000A021A438161026230BD30B50B46144605
:103F9000026A056A25F010050562816921F4704105
:103FA00041EA043122F0A00242EA03128161026276
:103FB00030BD00BFFEE7000002480068C0F30220E9
:103FC000704700000CED00E010B5002804DB0A0784
:103FD000130E054A135406E00A07140E034A00F0B4
:103FE0000F031B1FD45410BD00E400E018ED00E0E7
:103FF00070B50446002509E004F1280101EB051025
:104000002B499FED2C0A00F0B7F96D1C032DF3DB53
:10401000002509E004F1580101EB051024499FED4A
:10402000250A00F0A9F96D1C032DF3DBDFED220A50
:104030009FED220A224A002104F1A400FFF7E8FBC9
:10404000DFED1D0A9FED1D0A1E4A002104F1EC0060
:10405000FFF7DEFB002005E0002204F1880141F8B3
:104060002020401C0428F7DB002016E00022211D40
:1040700021F81020891D21F810209FED0F0A123120
:1040800001EB800181ED000A9FED0B0A04F11001A4
:1040900001EB800181ED000A401C0328E6DBB3EE52
:1040A0000E0A84ED260A9FED040A84ED270A70BDEE
:1040B000BC5200086F12833A0000000000002F4439
:1040C000C0520008CC52000870B504464849D4F8E4
:1040D0008800096848638C2000594549096888634D
:1040E0009020005942490968C8639420005940490A
:1040F000096808640322211D3E48FDF709F90322DF
:1041000004F10A013C48FDF703F994ED170AD4EDD8
:104110000B0AB2EE041A01EE200AB5EEC00AF1EE67
:1041200010FA04D29FED350A84ED270A09E094EDD8
:10413000170AD4ED0B0AB2EE041A01EE200A84ED40
:10414000270A002013E094ED310ABDEEC00A10EEFC
:10415000101AB1F52F7F02DD4FF42F7102E0C8294C
:1041600000DAC82104F1880242F82010401C02281D
:10417000E9DB022013E094ED430ABDEEC00A10EE25
:10418000101AB1F52F7F02DD4FF42F7102E0C8291C
:1041900000DAC82104F1880242F82010401C0428EB
:1041A000E9DB00250EE004F11C0101EB8501D1EDF6
:1041B000000AB0EE600A04F1280101EB051000F0DE
:1041C000B1F86D1C032DEEDB00250EE004F11001AB
:1041D00001EB8501D1ED000AB0EE600A04F158014F
:1041E00001EB051000F09EF86D1C032DEEDB70BD99
:1041F0004C130020B4110020201200200000000009
:1042000010B50446A08800EE100AB8EE400ADFEDB3
:10421000400A20EE200ADFED3F0A80EE201AB7EEBA
:10422000040A31EE400ADFED3C0A80EE201A84EDEC
:10423000071AE08800EE100AB8EE400ADFED340AF3
:1042400020EE200A9FED331AC0EE010AB7EE040AF1
:1042500030EEC00ADFED310A80EE201A84ED081A34
:10426000208900EE100AB8EE400ADFED290A20EEA0
:10427000200ADFED280A80EE201AB7EE040A31EE9C
:10428000400ADFED270A80EE201A84ED091A00208B
:104290001AE004F10A0131F8101000EE101AB8EE1D
:1042A000400ADFED1B0A60EE200A9FED1A1A80EE2D
:1042B000810AF2EE040A20EE200A04F1100101EB5B
:1042C000800181ED000A401C0328E2DB94ED0B0A1B
:1042D000F2EE040A20EE200A84ED280A94ED281A52
:1042E000F0EE410A94ED171AB0EE410A04F1A40071
:1042F000FFF796F994ED261AF0EE410A94ED1B1A99
:10430000B0EE410A04F1EC00FFF78AF910BD00009D
:1043100033335340000080450AD7A33F04CAA63F69
:1043200085EBB13F10EE101A0160816800EE901A23
:10433000C16801EE101A70EE811A816800EE901AC1
:1043400080EEA11A416800EE901A61EE200A8168A1
:1043500001EE101AC16801EE901A31EE212A01EE29
:10436000101AC1EE021A016801EE101A41EE810A1C
:1043700010EE901A4160704710EE102AC2600A6871
:104380008260DFED050A10EE902A0260DFED020A7E
:1043900010EE902A426070470000000010B58A427B
:1043A00000DA10BD904205DD531A00E0C01A9042B9
:1043B000FCDC07E0884205DA531A00E01844884222
:1043C000FCDB00BF00BFECE7FDF76EFAFFF793FAE6
:1043D000FFF708F8FEF7B4FFFFF7B0F8FFF73CF877
:1043E000FEF7E2FEFEF74CFF7F211648FCF7F6F9D8
:1043F0007F211548FCF7F2F900211448FEF78AFDE9
:1044000004211248FEF786FD08211048FEF782FDC0
:104410000C210E48FEF77EFD00210D48FEF77AFDC7
:1044200004210B48FEF776FD08210948FEF772FDCE
:104430000C210748FEF76EFDFEF7B2FF00F031F8E1
:1044400000BFFEE7B41100202012002098130020C6
:104450004C130020642000F018F80748FFF7C8FD4F
:1044600000BF0548FFF7CCFE0348FFF72DFE0120F3
:1044700000F00BF8F5E70000D420002001460020F2
:10448000842901D0CA1C1044704770B504462546E3
:104490000DB1294600E00121084600F0F5FB00209F
:1044A00070BD10B500F01EFC002010BDFEB5044626
:1044B0000D46B4F90800FFF7E1FF064602A8CDE972
:1044C0000060238A9AB22B46D4E9001000F06AFDFE
:1044D000012801D00020FEBD0298FCE72DE9F04143
:1044E00005460E461C4807681C480068001D00F081
:1044F000D3FA50B91948006890F82C100120884070
:1045000017490968814316480160681C38B936B1FB
:1045100012480168091D134800F0FCFA1AE07C19E2
:104520000E4800684460BC4207D20C480168091D6F
:104530000D48006800F0D4FA0CE008480168091D35
:104540000A48006800F0CCFA09480068844201D2A9
:1045500007480460BDE8F081300000201C00002006
:1045600034000020C014002024000020200000207F
:104570004C00002010B5044600F0D8FA234800682B
:10458000401C224908602248006840B92048046065
:104590000846006801280DD100F020F90AE01D4806
:1045A000006838B91A480068C06AE16A884201D8D0
:1045B0001748046018480068401C1749086094F8C0
:1045C0002C100120884015490968084313490860E8
:1045D000E16A01EB8101124A02EB8100211D00F02A
:1045E00099FA00F0CDFA0B48006868B108480068F5
:1045F000C06AE16A884207D24FF0805009490860DA
:10460000BFF34F8FBFF36F8F10BD00002C00002051
:104610001C0000203800002048000020340000204A
:10462000E413002004ED00E010B516E000F07EFA7F
:104630000C48C068C468201D00F02EFA0A480068C3
:10464000401E0949086009480068401E0749086083
:1046500000F096FA204600F00BF8044800680028A5
:10466000E4D110BDAC1400202C0000202800002054
:1046700010B50446206B00F0A1FA204600F09EFA27
:1046800010BD000030B54FF44063174800F0070438
:104690002CB1C01D20F00700134C041B1B1B02464D
:1046A000124C22600024114D6C60D018083820F0A4
:1046B00007000F4C206000240D4D2D686C600C4DE0
:1046C0002D682C601146441A4C60094C24680C601B
:1046D000084D4C682C60084D4C682C604FF000442D
:1046E000064D2C6030BD0000D4140020580000207E
:1046F000600000206800002064000020740000209A
:1047000000BFFFF791FF064800680128F9D94FF074
:10471000805004490860BFF34F8FBFF36F8FF0E7FD
:10472000E413002004ED00E02DE9FF5F81460E4612
:104730009246DDE90E7B109CAAF10100216B01EB92
:10474000800828F0070808F0070008B9012000E0F9
:10475000002050B900BF502080F31188BFF34F8F65
:10476000BFF36F8F00BF00BFFEE786B1002507E0F3
:10477000715D04F134004155705D00B902E06D1CBB
:10478000102DF5D300BF00214320015502E0002089
:1047900084F83400072F00D30627E76267640020FF
:1047A000A064201D00F099F904F1180000F095F9BB
:1047B0002461C7F10700A06164620020E06484F80E
:1047C000500049464046039A00F050F92060BBF182
:1047D000000F01D0CBF80040BDE8FF9F10B50024CA
:1047E00007E004EB84010F4A02EB810000F068F956
:1047F000641C072CF5D30C4800F062F90B4800F05C
:104800005FF90B4800F05CF90A4800F059F90A48D2
:1048100000F056F90448094908600448084908604E
:1048200010BD0000E4130020701400208414002048
:1048300098140020AC140020C01400202000002098
:104840002400002010B50146164800E00068036807
:104850008B42FBD30246436813448B4204D1436826
:104860004C682344436001460A464B68134404687D
:10487000A34211D10C4C03682468A34208D04B68B2
:104880000468646823444B6003681B680B6005E0A0
:10489000054B1B680B6001E003680B60884200D089
:1048A000016010BD58000020600000200A4909681E
:1048B000096809B9012100E0002121B14FF0FF3161
:1048C000064A116006E004490968C968C868034AD5
:1048D0004168116070470000200000204C0000205B
:1048E0000E480068401C08B9012000E0002050B9C3
:1048F00000BF502080F31188BFF34F8FBFF36F8F3D
:1049000000BF00BFFEE700BF502080F31188BFF357
:104910004F8FBFF36F8F00BF00BFFEE7780000200E
:104920002DE9F04104464FF0000800F01FFA494815
:10493000006808B9FFF7A6FE474800682040002835
:1049400070D1D4B1083404F00700B0B104F007000E
:10495000C0F10800044404F0070008B9012000E099
:10496000002050B900BF502080F31188BFF34F8F53
:10497000BFF36F8F00BF00BFFEE7002C52D0374857
:10498000006884424ED8364E3046056801E02E4617
:104990002D686868A04202D228680028F7D12D4807
:1049A000006885423ED0306800F108082868306011
:1049B0006868001B102819D92F1907F0070008B9DB
:1049C000012000E0002050B900BF502080F3118882
:1049D000BFF34F8FBFF36F8F00BF00BFFEE7686864
:1049E000001B78606C603846FFF72CFF1B49686835
:1049F0000968081A194908600846006819490968D1
:104A0000884203D215480068164908601249686850
:104A10000968084368600020286013480068401C4B
:104A20001149086000F0A2FB08F0070008B9012056
:104A300000E0002050B900BF502080F31188BFF380
:104A40004F8FBFF36F8F00BF00BFFEE74046BDE84A
:104A5000F08100006000002074000020640000204D
:104A600058000020680000206C000020001F4FF05C
:104A700080730360001F21F001030360001F054BDA
:104A8000036014380260001F6FF0020303602038D7
:104A900070470000E148000801460A69D1E9013089
:104AA0009860D1E9010358605068884201D1886854
:104AB0005060002008611068401E10601068704748
:104AC00000F1080141604FF0FF31816000F1080101
:104AD000C1600161002101607047002101617047E0
:104AE00010B502460B685C1C0CB9106907E002F1B6
:104AF000080000E04068446824689C42FAD9446891
:104B00004C604C68A160886041600A611468641C54
:104B1000146010BD42684A6093688B609368596066
:104B20009160086103685B1C0360704700BF502000
:104B300080F31188BFF34F8FBFF36F8F00BF0E4814
:104B40000068401C0C49086008460068012812D122
:104B50000A480068C0B208B9012000E0002050B93E
:104B600000BF502080F31188BFF34F8FBFF36F8FCA
:104B700000BF00BFFEE770477800002004ED00E0B2
:104B80000D48006850B900BF502080F31188BFF372
:104B90004F8FBFF36F8F00BF00BFFEE7064800686E
:104BA000401E054908600846006820B9002080F3CF
:104BB000118800BF00BF70477800002070B506461E
:104BC0003546002E44D0083D2C46224960680968CD
:104BD000084008B1012000E0002050B900BF50207B
:104BE00080F31188BFF34F8FBFF36F8F00BF00BFFB
:104BF000FEE7206808B9012000E0002050B900BF9E
:104C0000502080F31188BFF34F8FBFF36F8F00BF29
:104C100000BFFEE70F49606809680840C0B120681E
:104C2000B0B90C49606809688843606000F09EF87C
:104C30000949606809680844074908602046FFF789
:104C400001FE06480068401C0449086000F08EFA26
:104C500070BD00007400002064000020700000207F
:104C600000204FF0E02108618861064800684FF499
:104C70007A71B0FBF1F0401E4FF0E021486107204F
:104C8000086170471800002070B504460025D4B1B3
:104C90001248006808B9012000E0002050B900BFA8
:104CA000502080F31188BFF34F8FBFF36F8F00BF89
:104CB00000BFFEE700F05AF800212046FFF70EFC87
:104CC00000F054FA05463DB94FF0805004490860A1
:104CD000BFF34F8FBFF36F8F70BD000054000020F3
:104CE00004ED00E01CB51A4800210B468022CDE9F6
:104CF000001018A1194800F055F90446012C15D1EF
:104D000000BF502080F31188BFF34F8FBFF36F8F28
:104D100000BF4FF0FF3012490860012011490860C0
:104D200000201149086000F06FF810E0601C08B125
:104D3000012000E0002050B900BF502080F311880E
:104D4000BFF34F8FBFF36F8F00BF00BFFEE71CBDE7
:104D50005000002049444C45000000000147000875
:104D60004C0000203800002030000020024800687D
:104D7000401C014908607047540000201D4800682D
:104D800018B101201C49086032E000201A4908606F
:104D90001A480068B0FA80F0C0F11F0101EB8100F1
:104DA000174A52F8200008B1012000E0002050B955
:104DB00000BF502080F31188BFF34F8FBFF36F8F78
:104DC00000BF00BFFEE701EB81020D4B03EB820049
:104DD00042685268426000F108024368934202D17F
:104DE0004268526842604268D268064B1A6000BF4F
:104DF00070470000540000204000002034000020D4
:104E0000E41300201C0000201CB5524800685249E1
:104E1000884201D0012000E0002050B900BF50209E
:104E200080F31188BFF34F8FBFF36F8F00BF00BFB8
:104E3000FEE7484800684849491E884201D00120E1
:104E400000E0002050B900BF502080F31188BFF36C
:104E50004F8FBFF36F8F00BF00BFFEE73F4908468B
:104E600000780190FF200A461070084600780090F4
:104E70009DF8000000F0F0009DF80020904201D164
:104E8000012000E0002050B900BF502080F31188BD
:104E9000BFF34F8FBFF36F8F00BF00BFFEE79DF8DA
:104EA000000000F050002E4A107007202D4A1060BC
:104EB00009E02C480068401E2A4A10609DF8000056
:104EC0004006000E00909DF8000000F08000802851
:104ED000EFD024480068C0F10700042801D1012068
:104EE00000E0002050B900BF502080F31188BFF3CC
:104EF0004F8FBFF36F8F00BF00BFFEE719480068F8
:104F00000002184A10601046008800F4E06010604B
:104F1000124A019810700F482030006840F4700069
:104F20000C49203108600846006840F07040086075
:104F3000FFF796FE00200C490860FBF7E5F90B48E7
:104F4000006840F0404009490860FBF7C9F90020BB
:104F50001CBD000000ED00E071C20F4100E400E064
:104F60007C000020800000207800002034EF00E06A
:104F700010B500BF502080F31188BFF34F8FBFF3EF
:104F80006F8F00BF00F04EF818B14FF08050044909
:104F9000086000BF002080F3118800BF10BD000032
:104FA00004ED00E02DE9FF4F85B0804689461746A5
:104FB000DDE912ABB800FFF7B3FC064656B154204A
:104FC000FFF7AEFC04460CB1266304E03046FFF761
:104FD000F5FD00E000247CB10020CDE900ABCDE977
:104FE00002403A4649464046089BFFF79DFB204653
:104FF000FFF7C0FA012501E04FF0FF35284609B060
:10500000BDE8F08F0549096809B9012005E00449A8
:10501000096809B9022000E000207047380000202C
:10502000540000202DE9F0414FF00008444800688A
:1050300000287CD143480068451C4248056015BBE8
:1050400041480068006808B9012000E0002050B91C
:1050500000BF502080F31188BFF34F8FBFF36F8FD5
:1050600000BF00BFFEE73848076838480068364987
:1050700008603648076036480068401C34490860BC
:10508000FFF714FC00BF3348006885423CD300BFE3
:105090002D480068006808B9012000E0002020B118
:1050A0004FF0FF302B4908602DE027480068C068AA
:1050B000C4686668B54202D22648066023E0201D17
:1050C000FFF7EAFCA06A18B104F11800FFF7E4FC4E
:1050D00094F82C10012088401F49096808431E4994
:1050E0000860E16A01EB81011C4A02EB8100211D8D
:1050F000FFF710FD1A49E06A0968C96A8842C7D3F8
:105100004FF00108C4E700BF15480068C06A00EB13
:105110008000124951F82000012801D94FF0010800
:105120001048006808B14FF0010805E0FFE70E489D
:105130000068401C0C4908604046BDE8F081000052
:105140005400002030000020200000202400002017
:10515000440000204C00002034000020E413002014
:105160001C000020400000203C00002070B50024FE
:1051700000263648006850B900BF502080F31188DF
:10518000BFF34F8FBFF36F8F00BF00BFFEE7FFF786
:10519000CDFC2E480068401E2C4908600846006877
:1051A00000284FD12A48006800284BD024E0294825
:1051B000C068C46804F11800FFF76EFC201DFFF7FB
:1051C0006BFC94F82C10012088402349096808439F
:1051D00021490860E16A01EB8101204A02EB81006C
:1051E000211DFFF797FC1E49E06A0968C96A8842D9
:1051F00002D301201B4908601648006808B9012045
:1052000000E000200028D2D00CB1FFF74FFB164879
:10521000056865B100BFFFF705FF10B10120114916
:1052200008606D1E002DF6D100200F4908600D4862
:10523000006838B1012630070C490860BFF34F8F72
:10524000BFF36F8FFFF79CFC304670BD5400002009
:105250002C0000209814002034000020E4130020CB
:105260001C000020400000203C00002004ED00E075
:105270004FF04070E1EE100A70470000E85200085D
:10528000D938000800000000000000008000000085
:10529000D85200085544000800000000000000003B
:1052A00000010000000000000000000001020304F3
:1052B000060708090000000001020304ABAA2A3E09
:1052C00000000000000000000000000000000000DE
:1052D00000000000000000006D61696E636F6E7475
:1052E000726F6C5461736B0064656661756C7454A5
:1052F00061736B001453000800000020B41100001B
:1053000014020008145A0008B4110020B41600005A
:1053100078020008D2000112100422010900045A88
:1053200024F4000112AA01810E431643041217044B
:10533000121804121904121A04121B04121C04126B
:105340001D04121E04121F04122004122104122232
:1053500004122304122404522504122604122704E2
:10536000122804122904122A04122B04122C0412EB
:105370002D04122E04122F041230041231041232A2
:105380000452330412340412350412360412370462
:10539000123804123904123A04123B04123C04126B
:1053A0003D04523E04123F041240041241041242D2
:1053B00004124304124404124504124604524704E2
:1053C000124804124904124A04124B04124C0412EB
:1053D0004D04524E04124F04125004125104125242
:1053E0000412530412540452550412560412570462
:1053F000125804125904525A04125B04125C04122B
:105400005D04125E04525F041260041261041262B1
:1054100004526304126404126504126604526704A1
:10542000126804126904126A04526B04126C0412AA
:105430006D04526E04126F041270045271041272E1
:105440000412730452740412750412760452770421
:10545000127804527904127A04527B04127C0412EA
:105460007D04527E04127F0442800422800842811F
:10547000045280041300820C51041300830C510465
:10548000430084042280084285045280041300866D
:105490000C51044300870452800443008804228096
:1054A0000842890452800443008A04528004430065
:1054B0008B0452800483008C0452800443008D04CA
:1054C00052800483008E0452800483008F04528033
:1054D000048300900492800483009104928004C3AA
:1054E000009204928004C30093040211800403100C
:1054F00000940402118004031C00950402458004FA
:10550000034900964C011EB40112E8051210051261
:1055100038E55CA578E594A5B0A5C8A5E0A5F8692F
:105520000CA9206934A948695C696C697CA99069F7
:10553000A469B469C469D469E469F49E880C036DF4
:105540001C036D2C036D3C039E8654036D64039E07
:10555000847C036D8C039E83A4039E82BC036DCC6C
:10556000038E80E4033DF0036DFC035E7D10046D4B
:105570001C049E7A34049E784C045E7660046D6C44
:10558000045E7380046D8C045E70A0046DAC045ED8
:105590006DC0046DCC045E6AE0049E68F4045E662F
:1055A00008059E641C055E6230059E6044055E5ED3
:1055B00058055E5C68056D74055E5988055E5798F0
:1055C000056DA4055E54B8055E52C8055E50D80549
:1055D0006DE4055E4DF8055E4B08065E4918066DE4
:1055E00024065E4638065E4448065E4258065E4023
:1055F00068066D74065E3D88065E3B98065E39A8B7
:10560000065E37B8065E35C8066DD4065E32E8061B
:105610005E30F8065E2E08075E2C18075E2A280703
:105620005E2838079E264C075E2460075E227007BE
:105630005E2080075E1E90075E1CA0075E1AB00702
:105640005E18C0076DCC071215041214041213045F
:10565000121204121104121004120F04120E04127A
:105660000D04120C04120B04120A0412090412088D
:10567000041207045206041205041204041203045F
:105680001202041201041E0048041006FE4200002B
:10569000FC0412FA0412F80412F60412F40412F2D2
:1056A0000452F00412EE0412EC0412EA0412E804AC
:1056B00012E60412E40412E20412E00412DE041200
:1056C000DC0452DA0412D80412D60412D40412D222
:1056D0000412D00412CE0412CC0412CA0452C8041C
:1056E00012C60412C40412C20412C00412BE041270
:1056F000BC0452BA0412B80412B60412B40412B2B2
:105700000412B00412AE0452AC0412AA0412A8048B
:1057100012A60412A40452A20412A004129E04129F
:105720009C04129A04529804129604129404129241
:1057300004529004128E04128C04128A04528804BB
:10574000128604128404128204528004127C041211
:105750007804527404127004126C045268041264C7
:1057600004126004525C041258041254045250048F
:10577000124C04524804124404524004123C0412D5
:105780003804523404123004522C041228045224D7
:1057900004522004121C045218041214045210045F
:1057A000520C0412080452040452000417F841C8B1
:1057B000510452E80452E00452D80412D00452C8F2
:1057C0000452C00452B80452B00452A80452A004B7
:1057D00092980452900452880452800492700452A9
:1057E00060049250045240049230049220049210BB
:1057F00004920004C3E0400492C004D2A004021149
:1058000080040211400402110004031C803F0401C3
:105810009201011FB40111E8051210051238E55C70
:10582000A578E594A5B0A5C8A5E0A5F8690CA920C0
:105830006934A948695C696C697CA99069A469B4F8
:1058400069C469D469E469F49ED00C036D1C036DCE
:105850002C036D3C032D48036D54036D64039E08B7
:105860007C036D8C039E14A4039E1CBC036DCC03AF
:105870009E28E4039E30FC035E3810046D1C049ED9
:105880004434049E4C4C045E5460046D6C045E60B1
:1058900080046D8C045E6CA0046DAC045E78C00462
:1058A0006DCC045E82E0049E86F4045E8A08059E48
:1058B0008E1C055E9230059E9644055E9A58055EE4
:1058C0009E68056D74055EA488055EA898056DA4A4
:1058D000055EAEB8055EB2C8055EB6D8056DE405D6
:1058E0005EBCF8055EC008065EC418066D24065E40
:1058F000CA38065ECE48065ED258065ED668066D89
:1059000074065EDC88065EE098065EE4A8065EE843
:10591000B8065EECC8066DD4065EF2E8065EF6F8E0
:10592000065EFA08072D10075E0020075E023007AA
:105930005E0440076D4C075E0760075E0970075EF6
:105940000B80075E0D90075E0FA0075E11B0075E2B
:1059500013C0075E159C0F5E1F580F5E32100F5E5E
:1059600044C80E5E55800E5E66340E4E75F00D3DD9
:10597000CC0D5E84800D5E8A3C0D5E8EF00C5E92D6
:10598000B00C8E94600C6D1C0C7DBC0B5E93600B98
:105990005E90200B5E8CD40A5287585E81480A5E66
:1059A00075000A5E66B8095E5570095E4428095E96
:1059B00032E0085E1F9808560C205EF208085ECEA2
:1059C000C0075EAC78075E8A2C075E58E8065E204A
:1059D00030035EE058065E9010065E20D0059E8083
:1059E0007405EDD0045E00800421285E2014045E5E
:1059F00090CC0321505E0864035E3C1C035A74D4AF
:105A00005A9A885ABC445EE0DC0821B803000C4373
:045A10000000000092
:04000005080001D915
:00000001FF
